{"abi":[{"inputs":[{"internalType":"uint256","name":"minimum","type":"uint256"},{"internalType":"address","name":"creator","type":"address"}],"stateMutability":"nonpayable","type":"constructor"},{"inputs":[{"internalType":"uint256","name":"index","type":"uint256"}],"name":"approveRequest","outputs":[],"stateMutability":"nonpayable","type":"function"},{"inputs":[{"internalType":"address","name":"","type":"address"}],"name":"approvers","outputs":[{"internalType":"bool","name":"","type":"bool"}],"stateMutability":"view","type":"function"},{"inputs":[],"name":"approversCount","outputs":[{"internalType":"uint256","name":"","type":"uint256"}],"stateMutability":"view","type":"function"},{"inputs":[],"name":"contribute","outputs":[],"stateMutability":"payable","type":"function"},{"inputs":[{"internalType":"string","name":"description","type":"string"},{"internalType":"uint256","name":"value","type":"uint256"},{"internalType":"address payable","name":"recipient","type":"address"}],"name":"createRequest","outputs":[],"stateMutability":"nonpayable","type":"function"},{"inputs":[{"internalType":"uint256","name":"index","type":"uint256"}],"name":"finalizeRequest","outputs":[],"stateMutability":"nonpayable","type":"function"},{"inputs":[],"name":"getAllRequests","outputs":[{"components":[{"internalType":"string","name":"description","type":"string"},{"internalType":"uint256","name":"value","type":"uint256"},{"internalType":"address payable","name":"recipient","type":"address"},{"internalType":"bool","name":"complete","type":"bool"},{"internalType":"uint256","name":"approvalCount","type":"uint256"}],"internalType":"struct Campaign.RequestForExport[]","name":"","type":"tuple[]"}],"stateMutability":"view","type":"function"},{"inputs":[],"name":"getRequestsCount","outputs":[{"internalType":"uint256","name":"","type":"uint256"}],"stateMutability":"view","type":"function"},{"inputs":[],"name":"getSummary","outputs":[{"internalType":"uint256","name":"","type":"uint256"},{"internalType":"uint256","name":"","type":"uint256"},{"internalType":"uint256","name":"","type":"uint256"},{"internalType":"uint256","name":"","type":"uint256"},{"internalType":"address","name":"","type":"address"}],"stateMutability":"view","type":"function"},{"inputs":[],"name":"manager","outputs":[{"internalType":"address","name":"","type":"address"}],"stateMutability":"view","type":"function"},{"inputs":[],"name":"minimumContribution","outputs":[{"internalType":"uint256","name":"","type":"uint256"}],"stateMutability":"view","type":"function"},{"inputs":[{"internalType":"uint256","name":"","type":"uint256"}],"name":"requests","outputs":[{"internalType":"string","name":"description","type":"string"},{"internalType":"uint256","name":"value","type":"uint256"},{"internalType":"address payable","name":"recipient","type":"address"},{"internalType":"bool","name":"complete","type":"bool"},{"internalType":"uint256","name":"approvalCount","type":"uint256"}],"stateMutability":"view","type":"function"}],"devdoc":{"kind":"dev","methods":{},"version":1},"evm":{"assembly":"    /* \"Campaign.sol\":422:3546  contract Campaign  {... */\n  mstore(0x40, 0x80)\n    /* \"Campaign.sol\":1088:1204  constructor(uint minimum, address creator) {... */\n  callvalue\n  dup1\n  iszero\n  tag_1\n  jumpi\n  0x00\n  dup1\n  revert\ntag_1:\n  pop\n  mload(0x40)\n  sub(codesize, bytecodeSize)\n  dup1\n  bytecodeSize\n  dup4\n  codecopy\n  dup2\n  dup2\n  add\n  0x40\n  mstore\n  dup2\n  add\n  swap1\n  tag_2\n  swap2\n  swap1\n  tag_3\n  jump\t// in\ntag_2:\n    /* \"Campaign.sol\":1151:1158  creator */\n  dup1\n    /* \"Campaign.sol\":1141:1148  manager */\n  0x01\n  0x00\n    /* \"Campaign.sol\":1141:1158  manager = creator */\n  0x0100\n  exp\n  dup2\n  sload\n  dup2\n  0xffffffffffffffffffffffffffffffffffffffff\n  mul\n  not\n  and\n  swap1\n  dup4\n  0xffffffffffffffffffffffffffffffffffffffff\n  and\n  mul\n  or\n  swap1\n  sstore\n  pop\n    /* \"Campaign.sol\":1190:1197  minimum */\n  dup2\n    /* \"Campaign.sol\":1168:1187  minimumContribution */\n  0x02\n    /* \"Campaign.sol\":1168:1197  minimumContribution = minimum */\n  dup2\n  swap1\n  sstore\n  pop\n    /* \"Campaign.sol\":1088:1204  constructor(uint minimum, address creator) {... */\n  pop\n  pop\n    /* \"Campaign.sol\":422:3546  contract Campaign  {... */\n  jump(tag_6)\n    /* \"#utility.yul\":88:205   */\ntag_8:\n    /* \"#utility.yul\":197:198   */\n  0x00\n    /* \"#utility.yul\":194:195   */\n  dup1\n    /* \"#utility.yul\":187:199   */\n  revert\n    /* \"#utility.yul\":334:411   */\ntag_10:\n    /* \"#utility.yul\":371:378   */\n  0x00\n    /* \"#utility.yul\":400:405   */\n  dup2\n    /* \"#utility.yul\":389:405   */\n  swap1\n  pop\n    /* \"#utility.yul\":334:411   */\n  swap2\n  swap1\n  pop\n  jump\t// out\n    /* \"#utility.yul\":417:539   */\ntag_11:\n    /* \"#utility.yul\":490:514   */\n  tag_23\n    /* \"#utility.yul\":508:513   */\n  dup2\n    /* \"#utility.yul\":490:514   */\n  tag_10\n  jump\t// in\ntag_23:\n    /* \"#utility.yul\":483:488   */\n  dup2\n    /* \"#utility.yul\":480:515   */\n  eq\n    /* \"#utility.yul\":470:533   */\n  tag_24\n  jumpi\n    /* \"#utility.yul\":529:530   */\n  0x00\n    /* \"#utility.yul\":526:527   */\n  dup1\n    /* \"#utility.yul\":519:531   */\n  revert\n    /* \"#utility.yul\":470:533   */\ntag_24:\n    /* \"#utility.yul\":417:539   */\n  pop\n  jump\t// out\n    /* \"#utility.yul\":545:688   */\ntag_12:\n    /* \"#utility.yul\":602:607   */\n  0x00\n    /* \"#utility.yul\":633:639   */\n  dup2\n    /* \"#utility.yul\":627:640   */\n  mload\n    /* \"#utility.yul\":618:640   */\n  swap1\n  pop\n    /* \"#utility.yul\":649:682   */\n  tag_26\n    /* \"#utility.yul\":676:681   */\n  dup2\n    /* \"#utility.yul\":649:682   */\n  tag_11\n  jump\t// in\ntag_26:\n    /* \"#utility.yul\":545:688   */\n  swap3\n  swap2\n  pop\n  pop\n  jump\t// out\n    /* \"#utility.yul\":694:820   */\ntag_13:\n    /* \"#utility.yul\":731:738   */\n  0x00\n    /* \"#utility.yul\":771:813   */\n  0xffffffffffffffffffffffffffffffffffffffff\n    /* \"#utility.yul\":764:769   */\n  dup3\n    /* \"#utility.yul\":760:814   */\n  and\n    /* \"#utility.yul\":749:814   */\n  swap1\n  pop\n    /* \"#utility.yul\":694:820   */\n  swap2\n  swap1\n  pop\n  jump\t// out\n    /* \"#utility.yul\":826:922   */\ntag_14:\n    /* \"#utility.yul\":863:870   */\n  0x00\n    /* \"#utility.yul\":892:916   */\n  tag_29\n    /* \"#utility.yul\":910:915   */\n  dup3\n    /* \"#utility.yul\":892:916   */\n  tag_13\n  jump\t// in\ntag_29:\n    /* \"#utility.yul\":881:916   */\n  swap1\n  pop\n    /* \"#utility.yul\":826:922   */\n  swap2\n  swap1\n  pop\n  jump\t// out\n    /* \"#utility.yul\":928:1050   */\ntag_15:\n    /* \"#utility.yul\":1001:1025   */\n  tag_31\n    /* \"#utility.yul\":1019:1024   */\n  dup2\n    /* \"#utility.yul\":1001:1025   */\n  tag_14\n  jump\t// in\ntag_31:\n    /* \"#utility.yul\":994:999   */\n  dup2\n    /* \"#utility.yul\":991:1026   */\n  eq\n    /* \"#utility.yul\":981:1044   */\n  tag_32\n  jumpi\n    /* \"#utility.yul\":1040:1041   */\n  0x00\n    /* \"#utility.yul\":1037:1038   */\n  dup1\n    /* \"#utility.yul\":1030:1042   */\n  revert\n    /* \"#utility.yul\":981:1044   */\ntag_32:\n    /* \"#utility.yul\":928:1050   */\n  pop\n  jump\t// out\n    /* \"#utility.yul\":1056:1199   */\ntag_16:\n    /* \"#utility.yul\":1113:1118   */\n  0x00\n    /* \"#utility.yul\":1144:1150   */\n  dup2\n    /* \"#utility.yul\":1138:1151   */\n  mload\n    /* \"#utility.yul\":1129:1151   */\n  swap1\n  pop\n    /* \"#utility.yul\":1160:1193   */\n  tag_34\n    /* \"#utility.yul\":1187:1192   */\n  dup2\n    /* \"#utility.yul\":1160:1193   */\n  tag_15\n  jump\t// in\ntag_34:\n    /* \"#utility.yul\":1056:1199   */\n  swap3\n  swap2\n  pop\n  pop\n  jump\t// out\n    /* \"#utility.yul\":1205:1712   */\ntag_3:\n    /* \"#utility.yul\":1284:1290   */\n  0x00\n    /* \"#utility.yul\":1292:1298   */\n  dup1\n    /* \"#utility.yul\":1341:1343   */\n  0x40\n    /* \"#utility.yul\":1329:1338   */\n  dup4\n    /* \"#utility.yul\":1320:1327   */\n  dup6\n    /* \"#utility.yul\":1316:1339   */\n  sub\n    /* \"#utility.yul\":1312:1344   */\n  slt\n    /* \"#utility.yul\":1309:1428   */\n  iszero\n  tag_36\n  jumpi\n    /* \"#utility.yul\":1347:1426   */\n  tag_37\n  tag_8\n  jump\t// in\ntag_37:\n    /* \"#utility.yul\":1309:1428   */\ntag_36:\n    /* \"#utility.yul\":1467:1468   */\n  0x00\n    /* \"#utility.yul\":1492:1556   */\n  tag_38\n    /* \"#utility.yul\":1548:1555   */\n  dup6\n    /* \"#utility.yul\":1539:1545   */\n  dup3\n    /* \"#utility.yul\":1528:1537   */\n  dup7\n    /* \"#utility.yul\":1524:1546   */\n  add\n    /* \"#utility.yul\":1492:1556   */\n  tag_12\n  jump\t// in\ntag_38:\n    /* \"#utility.yul\":1482:1556   */\n  swap3\n  pop\n    /* \"#utility.yul\":1438:1566   */\n  pop\n    /* \"#utility.yul\":1605:1607   */\n  0x20\n    /* \"#utility.yul\":1631:1695   */\n  tag_39\n    /* \"#utility.yul\":1687:1694   */\n  dup6\n    /* \"#utility.yul\":1678:1684   */\n  dup3\n    /* \"#utility.yul\":1667:1676   */\n  dup7\n    /* \"#utility.yul\":1663:1685   */\n  add\n    /* \"#utility.yul\":1631:1695   */\n  tag_16\n  jump\t// in\ntag_39:\n    /* \"#utility.yul\":1621:1695   */\n  swap2\n  pop\n    /* \"#utility.yul\":1576:1705   */\n  pop\n    /* \"#utility.yul\":1205:1712   */\n  swap3\n  pop\n  swap3\n  swap1\n  pop\n  jump\t// out\n    /* \"Campaign.sol\":422:3546  contract Campaign  {... */\ntag_6:\n  dataSize(sub_0)\n  dup1\n  dataOffset(sub_0)\n  0x00\n  codecopy\n  0x00\n  return\nstop\n\nsub_0: assembly {\n        /* \"Campaign.sol\":422:3546  contract Campaign  {... */\n      mstore(0x40, 0x80)\n      jumpi(tag_1, lt(calldatasize, 0x04))\n      shr(0xe0, calldataload(0x00))\n      dup1\n      0x82fde093\n      gt\n      tag_14\n      jumpi\n      dup1\n      0x82fde093\n      eq\n      tag_8\n      jumpi\n      dup1\n      0x8a9cfd55\n      eq\n      tag_9\n      jumpi\n      dup1\n      0x937e09b1\n      eq\n      tag_10\n      jumpi\n      dup1\n      0xd7bb99ba\n      eq\n      tag_11\n      jumpi\n      dup1\n      0xd7d1bbdb\n      eq\n      tag_12\n      jumpi\n      dup1\n      0xfb1a002a\n      eq\n      tag_13\n      jumpi\n      jump(tag_1)\n    tag_14:\n      dup1\n      0x03441006\n      eq\n      tag_2\n      jumpi\n      dup1\n      0x0a144391\n      eq\n      tag_3\n      jumpi\n      dup1\n      0x3410452a\n      eq\n      tag_4\n      jumpi\n      dup1\n      0x4051ddac\n      eq\n      tag_5\n      jumpi\n      dup1\n      0x481c6a75\n      eq\n      tag_6\n      jumpi\n      dup1\n      0x81d12c58\n      eq\n      tag_7\n      jumpi\n    tag_1:\n      0x00\n      dup1\n      revert\n        /* \"Campaign.sol\":2883:3180  function finalizeRequest(uint index) public restricted {... */\n    tag_2:\n      callvalue\n      dup1\n      iszero\n      tag_15\n      jumpi\n      0x00\n      dup1\n      revert\n    tag_15:\n      pop\n      tag_16\n      0x04\n      dup1\n      calldatasize\n      sub\n      dup2\n      add\n      swap1\n      tag_17\n      swap2\n      swap1\n      tag_18\n      jump\t// in\n    tag_17:\n      tag_19\n      jump\t// in\n    tag_16:\n      stop\n        /* \"Campaign.sol\":920:963  mapping( address => bool ) public approvers */\n    tag_3:\n      callvalue\n      dup1\n      iszero\n      tag_20\n      jumpi\n      0x00\n      dup1\n      revert\n    tag_20:\n      pop\n      tag_21\n      0x04\n      dup1\n      calldatasize\n      sub\n      dup2\n      add\n      swap1\n      tag_22\n      swap2\n      swap1\n      tag_23\n      jump\t// in\n    tag_22:\n      tag_24\n      jump\t// in\n    tag_21:\n      mload(0x40)\n      tag_25\n      swap2\n      swap1\n      tag_26\n      jump\t// in\n    tag_25:\n      mload(0x40)\n      dup1\n      swap2\n      sub\n      swap1\n      return\n        /* \"Campaign.sol\":3450:3544  function getRequestsCount() public view returns (uint) {... */\n    tag_4:\n      callvalue\n      dup1\n      iszero\n      tag_27\n      jumpi\n      0x00\n      dup1\n      revert\n    tag_27:\n      pop\n      tag_28\n      tag_29\n      jump\t// in\n    tag_28:\n      mload(0x40)\n      tag_30\n      swap2\n      swap1\n      tag_31\n      jump\t// in\n    tag_30:\n      mload(0x40)\n      dup1\n      swap2\n      sub\n      swap1\n      return\n        /* \"Campaign.sol\":3186:3444  function getSummary() public view returns ( uint, uint, uint, uint, address ) {... */\n    tag_5:\n      callvalue\n      dup1\n      iszero\n      tag_32\n      jumpi\n      0x00\n      dup1\n      revert\n    tag_32:\n      pop\n      tag_33\n      tag_34\n      jump\t// in\n    tag_33:\n      mload(0x40)\n      tag_35\n      swap6\n      swap5\n      swap4\n      swap3\n      swap2\n      swap1\n      tag_36\n      jump\t// in\n    tag_35:\n      mload(0x40)\n      dup1\n      swap2\n      sub\n      swap1\n      return\n        /* \"Campaign.sol\":855:877  address public manager */\n    tag_6:\n      callvalue\n      dup1\n      iszero\n      tag_37\n      jumpi\n      0x00\n      dup1\n      revert\n    tag_37:\n      pop\n      tag_38\n      tag_39\n      jump\t// in\n    tag_38:\n      mload(0x40)\n      tag_40\n      swap2\n      swap1\n      tag_41\n      jump\t// in\n    tag_40:\n      mload(0x40)\n      dup1\n      swap2\n      sub\n      swap1\n      return\n        /* \"Campaign.sol\":824:849  Request[] public requests */\n    tag_7:\n      callvalue\n      dup1\n      iszero\n      tag_42\n      jumpi\n      0x00\n      dup1\n      revert\n    tag_42:\n      pop\n      tag_43\n      0x04\n      dup1\n      calldatasize\n      sub\n      dup2\n      add\n      swap1\n      tag_44\n      swap2\n      swap1\n      tag_18\n      jump\t// in\n    tag_44:\n      tag_45\n      jump\t// in\n    tag_43:\n      mload(0x40)\n      tag_46\n      swap6\n      swap5\n      swap4\n      swap3\n      swap2\n      swap1\n      tag_47\n      jump\t// in\n    tag_46:\n      mload(0x40)\n      dup1\n      swap2\n      sub\n      swap1\n      return\n        /* \"Campaign.sol\":969:995  uint public approversCount */\n    tag_8:\n      callvalue\n      dup1\n      iszero\n      tag_48\n      jumpi\n      0x00\n      dup1\n      revert\n    tag_48:\n      pop\n      tag_49\n      tag_50\n      jump\t// in\n    tag_49:\n      mload(0x40)\n      tag_51\n      swap2\n      swap1\n      tag_31\n      jump\t// in\n    tag_51:\n      mload(0x40)\n      dup1\n      swap2\n      sub\n      swap1\n      return\n        /* \"Campaign.sol\":1644:2010  function createRequest(string memory description, uint value, address payable recipient) public restricted {... */\n    tag_9:\n      callvalue\n      dup1\n      iszero\n      tag_52\n      jumpi\n      0x00\n      dup1\n      revert\n    tag_52:\n      pop\n      tag_53\n      0x04\n      dup1\n      calldatasize\n      sub\n      dup2\n      add\n      swap1\n      tag_54\n      swap2\n      swap1\n      tag_55\n      jump\t// in\n    tag_54:\n      tag_56\n      jump\t// in\n    tag_53:\n      stop\n        /* \"Campaign.sol\":883:914  uint public minimumContribution */\n    tag_10:\n      callvalue\n      dup1\n      iszero\n      tag_57\n      jumpi\n      0x00\n      dup1\n      revert\n    tag_57:\n      pop\n      tag_58\n      tag_59\n      jump\t// in\n    tag_58:\n      mload(0x40)\n      tag_60\n      swap2\n      swap1\n      tag_31\n      jump\t// in\n    tag_60:\n      mload(0x40)\n      dup1\n      swap2\n      sub\n      swap1\n      return\n        /* \"Campaign.sol\":1210:1638  function contribute() public payable {... */\n    tag_11:\n      tag_61\n      tag_62\n      jump\t// in\n    tag_61:\n      stop\n        /* \"Campaign.sol\":2016:2287  function approveRequest(uint index) public {... */\n    tag_12:\n      callvalue\n      dup1\n      iszero\n      tag_63\n      jumpi\n      0x00\n      dup1\n      revert\n    tag_63:\n      pop\n      tag_64\n      0x04\n      dup1\n      calldatasize\n      sub\n      dup2\n      add\n      swap1\n      tag_65\n      swap2\n      swap1\n      tag_18\n      jump\t// in\n    tag_65:\n      tag_66\n      jump\t// in\n    tag_64:\n      stop\n        /* \"Campaign.sol\":2293:2877  function getAllRequests() public view returns (RequestForExport[] memory) {... */\n    tag_13:\n      callvalue\n      dup1\n      iszero\n      tag_67\n      jumpi\n      0x00\n      dup1\n      revert\n    tag_67:\n      pop\n      tag_68\n      tag_69\n      jump\t// in\n    tag_68:\n      mload(0x40)\n      tag_70\n      swap2\n      swap1\n      tag_71\n      jump\t// in\n    tag_70:\n      mload(0x40)\n      dup1\n      swap2\n      sub\n      swap1\n      return\n        /* \"Campaign.sol\":2883:3180  function finalizeRequest(uint index) public restricted {... */\n    tag_19:\n        /* \"Campaign.sol\":1053:1063  msg.sender */\n      caller\n        /* \"Campaign.sol\":1042:1063  manager == msg.sender */\n      0xffffffffffffffffffffffffffffffffffffffff\n      and\n        /* \"Campaign.sol\":1042:1049  manager */\n      0x01\n      0x00\n      swap1\n      sload\n      swap1\n      0x0100\n      exp\n      swap1\n      div\n      0xffffffffffffffffffffffffffffffffffffffff\n      and\n        /* \"Campaign.sol\":1042:1063  manager == msg.sender */\n      0xffffffffffffffffffffffffffffffffffffffff\n      and\n      eq\n        /* \"Campaign.sol\":1034:1064  require(manager == msg.sender) */\n      tag_73\n      jumpi\n      0x00\n      dup1\n      revert\n    tag_73:\n        /* \"Campaign.sol\":2948:2971  Request storage request */\n      0x00\n        /* \"Campaign.sol\":2974:2982  requests */\n      dup1\n        /* \"Campaign.sol\":2983:2988  index */\n      dup3\n        /* \"Campaign.sol\":2974:2989  requests[index] */\n      dup2\n      sload\n      dup2\n      lt\n      tag_75\n      jumpi\n      tag_76\n      tag_77\n      jump\t// in\n    tag_76:\n    tag_75:\n      swap1\n      0x00\n      mstore\n      keccak256(0x00, 0x20)\n      swap1\n      0x05\n      mul\n      add\n        /* \"Campaign.sol\":2948:2989  Request storage request = requests[index] */\n      swap1\n      pop\n        /* \"Campaign.sol\":3008:3015  request */\n      dup1\n        /* \"Campaign.sol\":3008:3024  request.complete */\n      0x02\n      add\n      0x14\n      swap1\n      sload\n      swap1\n      0x0100\n      exp\n      swap1\n      div\n      0xff\n      and\n        /* \"Campaign.sol\":3007:3024  !request.complete */\n      iszero\n        /* \"Campaign.sol\":2999:3025  require(!request.complete) */\n      tag_79\n      jumpi\n      0x00\n      dup1\n      revert\n    tag_79:\n        /* \"Campaign.sol\":3085:3086  2 */\n      0x02\n        /* \"Campaign.sol\":3068:3082  approversCount */\n      sload(0x04)\n        /* \"Campaign.sol\":3068:3086  approversCount / 2 */\n      tag_80\n      swap2\n      swap1\n      tag_81\n      jump\t// in\n    tag_80:\n        /* \"Campaign.sol\":3043:3050  request */\n      dup2\n        /* \"Campaign.sol\":3043:3064  request.approvalCount */\n      0x03\n      add\n      sload\n        /* \"Campaign.sol\":3043:3087  request.approvalCount > (approversCount / 2) */\n      gt\n        /* \"Campaign.sol\":3035:3088  require(request.approvalCount > (approversCount / 2)) */\n      tag_82\n      jumpi\n      0x00\n      dup1\n      revert\n    tag_82:\n        /* \"Campaign.sol\":3099:3106  request */\n      dup1\n        /* \"Campaign.sol\":3099:3116  request.recipient */\n      0x02\n      add\n      0x00\n      swap1\n      sload\n      swap1\n      0x0100\n      exp\n      swap1\n      div\n      0xffffffffffffffffffffffffffffffffffffffff\n      and\n        /* \"Campaign.sol\":3099:3125  request.recipient.transfer */\n      0xffffffffffffffffffffffffffffffffffffffff\n      and\n        /* \"Campaign.sol\":3099:3140  request.recipient.transfer(request.value) */\n      0x08fc\n        /* \"Campaign.sol\":3126:3133  request */\n      dup3\n        /* \"Campaign.sol\":3126:3139  request.value */\n      0x01\n      add\n      sload\n        /* \"Campaign.sol\":3099:3140  request.recipient.transfer(request.value) */\n      swap1\n      dup2\n      iszero\n      mul\n      swap1\n      mload(0x40)\n      0x00\n      mload(0x40)\n      dup1\n      dup4\n      sub\n      dup2\n      dup6\n      dup9\n      dup9\n      call\n      swap4\n      pop\n      pop\n      pop\n      pop\n      iszero\n      dup1\n      iszero\n      tag_84\n      jumpi\n      returndatasize\n      0x00\n      dup1\n      returndatacopy\n      revert(0x00, returndatasize)\n    tag_84:\n      pop\n        /* \"Campaign.sol\":3169:3173  true */\n      0x01\n        /* \"Campaign.sol\":3150:3157  request */\n      dup2\n        /* \"Campaign.sol\":3150:3166  request.complete */\n      0x02\n      add\n      0x14\n        /* \"Campaign.sol\":3150:3173  request.complete = true */\n      0x0100\n      exp\n      dup2\n      sload\n      dup2\n      0xff\n      mul\n      not\n      and\n      swap1\n      dup4\n      iszero\n      iszero\n      mul\n      or\n      swap1\n      sstore\n      pop\n        /* \"Campaign.sol\":2938:3180  {... */\n      pop\n        /* \"Campaign.sol\":2883:3180  function finalizeRequest(uint index) public restricted {... */\n      pop\n      jump\t// out\n        /* \"Campaign.sol\":920:963  mapping( address => bool ) public approvers */\n    tag_24:\n      mstore(0x20, 0x03)\n      dup1\n      0x00\n      mstore\n      keccak256(0x00, 0x40)\n      0x00\n      swap2\n      pop\n      sload\n      swap1\n      0x0100\n      exp\n      swap1\n      div\n      0xff\n      and\n      dup2\n      jump\t// out\n        /* \"Campaign.sol\":3450:3544  function getRequestsCount() public view returns (uint) {... */\n    tag_29:\n        /* \"Campaign.sol\":3499:3503  uint */\n      0x00\n        /* \"Campaign.sol\":3522:3530  requests */\n      dup1\n        /* \"Campaign.sol\":3522:3537  requests.length */\n      dup1\n      sload\n      swap1\n      pop\n        /* \"Campaign.sol\":3515:3537  return requests.length */\n      swap1\n      pop\n        /* \"Campaign.sol\":3450:3544  function getRequestsCount() public view returns (uint) {... */\n      swap1\n      jump\t// out\n        /* \"Campaign.sol\":3186:3444  function getSummary() public view returns ( uint, uint, uint, uint, address ) {... */\n    tag_34:\n        /* \"Campaign.sol\":3230:3234  uint */\n      0x00\n        /* \"Campaign.sol\":3236:3240  uint */\n      dup1\n        /* \"Campaign.sol\":3242:3246  uint */\n      0x00\n        /* \"Campaign.sol\":3248:3252  uint */\n      dup1\n        /* \"Campaign.sol\":3254:3261  address */\n      0x00\n        /* \"Campaign.sol\":3295:3314  minimumContribution */\n      sload(0x02)\n        /* \"Campaign.sol\":3328:3349  address(this).balance */\n      selfbalance\n        /* \"Campaign.sol\":3363:3371  requests */\n      0x00\n        /* \"Campaign.sol\":3363:3378  requests.length */\n      dup1\n      sload\n      swap1\n      pop\n        /* \"Campaign.sol\":3392:3406  approversCount */\n      sload(0x04)\n        /* \"Campaign.sol\":3420:3427  manager */\n      0x01\n      0x00\n      swap1\n      sload\n      swap1\n      0x0100\n      exp\n      swap1\n      div\n      0xffffffffffffffffffffffffffffffffffffffff\n      and\n        /* \"Campaign.sol\":3274:3437  return (... */\n      swap5\n      pop\n      swap5\n      pop\n      swap5\n      pop\n      swap5\n      pop\n      swap5\n      pop\n        /* \"Campaign.sol\":3186:3444  function getSummary() public view returns ( uint, uint, uint, uint, address ) {... */\n      swap1\n      swap2\n      swap3\n      swap4\n      swap5\n      jump\t// out\n        /* \"Campaign.sol\":855:877  address public manager */\n    tag_39:\n      0x01\n      0x00\n      swap1\n      sload\n      swap1\n      0x0100\n      exp\n      swap1\n      div\n      0xffffffffffffffffffffffffffffffffffffffff\n      and\n      dup2\n      jump\t// out\n        /* \"Campaign.sol\":824:849  Request[] public requests */\n    tag_45:\n      0x00\n      dup2\n      dup2\n      sload\n      dup2\n      lt\n      tag_87\n      jumpi\n      0x00\n      dup1\n      revert\n    tag_87:\n      swap1\n      0x00\n      mstore\n      keccak256(0x00, 0x20)\n      swap1\n      0x05\n      mul\n      add\n      0x00\n      swap2\n      pop\n      swap1\n      pop\n      dup1\n      0x00\n      add\n      dup1\n      sload\n      tag_89\n      swap1\n      tag_90\n      jump\t// in\n    tag_89:\n      dup1\n      0x1f\n      add\n      0x20\n      dup1\n      swap2\n      div\n      mul\n      0x20\n      add\n      mload(0x40)\n      swap1\n      dup2\n      add\n      0x40\n      mstore\n      dup1\n      swap3\n      swap2\n      swap1\n      dup2\n      dup2\n      mstore\n      0x20\n      add\n      dup3\n      dup1\n      sload\n      tag_91\n      swap1\n      tag_90\n      jump\t// in\n    tag_91:\n      dup1\n      iszero\n      tag_92\n      jumpi\n      dup1\n      0x1f\n      lt\n      tag_93\n      jumpi\n      0x0100\n      dup1\n      dup4\n      sload\n      div\n      mul\n      dup4\n      mstore\n      swap2\n      0x20\n      add\n      swap2\n      jump(tag_92)\n    tag_93:\n      dup3\n      add\n      swap2\n      swap1\n      0x00\n      mstore\n      keccak256(0x00, 0x20)\n      swap1\n    tag_94:\n      dup2\n      sload\n      dup2\n      mstore\n      swap1\n      0x01\n      add\n      swap1\n      0x20\n      add\n      dup1\n      dup4\n      gt\n      tag_94\n      jumpi\n      dup3\n      swap1\n      sub\n      0x1f\n      and\n      dup3\n      add\n      swap2\n    tag_92:\n      pop\n      pop\n      pop\n      pop\n      pop\n      swap1\n      dup1\n      0x01\n      add\n      sload\n      swap1\n      dup1\n      0x02\n      add\n      0x00\n      swap1\n      sload\n      swap1\n      0x0100\n      exp\n      swap1\n      div\n      0xffffffffffffffffffffffffffffffffffffffff\n      and\n      swap1\n      dup1\n      0x02\n      add\n      0x14\n      swap1\n      sload\n      swap1\n      0x0100\n      exp\n      swap1\n      div\n      0xff\n      and\n      swap1\n      dup1\n      0x03\n      add\n      sload\n      swap1\n      pop\n      dup6\n      jump\t// out\n        /* \"Campaign.sol\":969:995  uint public approversCount */\n    tag_50:\n      sload(0x04)\n      dup2\n      jump\t// out\n        /* \"Campaign.sol\":1644:2010  function createRequest(string memory description, uint value, address payable recipient) public restricted {... */\n    tag_56:\n        /* \"Campaign.sol\":1053:1063  msg.sender */\n      caller\n        /* \"Campaign.sol\":1042:1063  manager == msg.sender */\n      0xffffffffffffffffffffffffffffffffffffffff\n      and\n        /* \"Campaign.sol\":1042:1049  manager */\n      0x01\n      0x00\n      swap1\n      sload\n      swap1\n      0x0100\n      exp\n      swap1\n      div\n      0xffffffffffffffffffffffffffffffffffffffff\n      and\n        /* \"Campaign.sol\":1042:1063  manager == msg.sender */\n      0xffffffffffffffffffffffffffffffffffffffff\n      and\n      eq\n        /* \"Campaign.sol\":1034:1064  require(manager == msg.sender) */\n      tag_96\n      jumpi\n      0x00\n      dup1\n      revert\n    tag_96:\n        /* \"Campaign.sol\":1762:1788  Request storage newRequest */\n      0x00\n        /* \"Campaign.sol\":1791:1799  requests */\n      dup1\n        /* \"Campaign.sol\":1791:1806  requests.push() */\n      0x01\n      dup2\n      0x01\n      dup2\n      sload\n      add\n      dup1\n      dup3\n      sstore\n      dup1\n      swap2\n      pop\n      pop\n      sub\n      swap1\n      0x00\n      mstore\n      keccak256(0x00, 0x20)\n      swap1\n      0x05\n      mul\n      add\n        /* \"Campaign.sol\":1762:1806  Request storage newRequest = requests.push() */\n      swap1\n      pop\n        /* \"Campaign.sol\":1841:1852  description */\n      dup4\n        /* \"Campaign.sol\":1816:1826  newRequest */\n      dup2\n        /* \"Campaign.sol\":1816:1838  newRequest.description */\n      0x00\n      add\n        /* \"Campaign.sol\":1816:1852  newRequest.description = description */\n      swap1\n      dup2\n      tag_99\n      swap2\n      swap1\n      tag_100\n      jump\t// in\n    tag_99:\n      pop\n        /* \"Campaign.sol\":1881:1886  value */\n      dup3\n        /* \"Campaign.sol\":1862:1872  newRequest */\n      dup2\n        /* \"Campaign.sol\":1862:1878  newRequest.value */\n      0x01\n      add\n        /* \"Campaign.sol\":1862:1886  newRequest.value = value */\n      dup2\n      swap1\n      sstore\n      pop\n        /* \"Campaign.sol\":1919:1928  recipient */\n      dup2\n        /* \"Campaign.sol\":1896:1906  newRequest */\n      dup2\n        /* \"Campaign.sol\":1896:1916  newRequest.recipient */\n      0x02\n      add\n      0x00\n        /* \"Campaign.sol\":1896:1928  newRequest.recipient = recipient */\n      0x0100\n      exp\n      dup2\n      sload\n      dup2\n      0xffffffffffffffffffffffffffffffffffffffff\n      mul\n      not\n      and\n      swap1\n      dup4\n      0xffffffffffffffffffffffffffffffffffffffff\n      and\n      mul\n      or\n      swap1\n      sstore\n      pop\n        /* \"Campaign.sol\":1960:1965  false */\n      0x00\n        /* \"Campaign.sol\":1938:1948  newRequest */\n      dup2\n        /* \"Campaign.sol\":1938:1957  newRequest.complete */\n      0x02\n      add\n      0x14\n        /* \"Campaign.sol\":1938:1965  newRequest.complete = false */\n      0x0100\n      exp\n      dup2\n      sload\n      dup2\n      0xff\n      mul\n      not\n      and\n      swap1\n      dup4\n      iszero\n      iszero\n      mul\n      or\n      swap1\n      sstore\n      pop\n        /* \"Campaign.sol\":2002:2003  0 */\n      0x00\n        /* \"Campaign.sol\":1975:1985  newRequest */\n      dup2\n        /* \"Campaign.sol\":1975:1999  newRequest.approvalCount */\n      0x03\n      add\n        /* \"Campaign.sol\":1975:2003  newRequest.approvalCount = 0 */\n      dup2\n      swap1\n      sstore\n      pop\n        /* \"Campaign.sol\":1751:2010  {... */\n      pop\n        /* \"Campaign.sol\":1644:2010  function createRequest(string memory description, uint value, address payable recipient) public restricted {... */\n      pop\n      pop\n      pop\n      jump\t// out\n        /* \"Campaign.sol\":883:914  uint public minimumContribution */\n    tag_59:\n      sload(0x02)\n      dup2\n      jump\t// out\n        /* \"Campaign.sol\":1210:1638  function contribute() public payable {... */\n    tag_62:\n        /* \"Campaign.sol\":1277:1296  minimumContribution */\n      sload(0x02)\n        /* \"Campaign.sol\":1265:1274  msg.value */\n      callvalue\n        /* \"Campaign.sol\":1265:1296  msg.value > minimumContribution */\n      gt\n        /* \"Campaign.sol\":1257:1297  require(msg.value > minimumContribution) */\n      tag_102\n      jumpi\n      0x00\n      dup1\n      revert\n    tag_102:\n        /* \"Campaign.sol\":1331:1335  true */\n      0x01\n        /* \"Campaign.sol\":1307:1316  approvers */\n      0x03\n        /* \"Campaign.sol\":1307:1328  approvers[msg.sender] */\n      0x00\n        /* \"Campaign.sol\":1317:1327  msg.sender */\n      caller\n        /* \"Campaign.sol\":1307:1328  approvers[msg.sender] */\n      0xffffffffffffffffffffffffffffffffffffffff\n      and\n      0xffffffffffffffffffffffffffffffffffffffff\n      and\n      dup2\n      mstore\n      0x20\n      add\n      swap1\n      dup2\n      mstore\n      0x20\n      add\n      0x00\n      keccak256\n      0x00\n        /* \"Campaign.sol\":1307:1335  approvers[msg.sender] = true */\n      0x0100\n      exp\n      dup2\n      sload\n      dup2\n      0xff\n      mul\n      not\n      and\n      swap1\n      dup4\n      iszero\n      iszero\n      mul\n      or\n      swap1\n      sstore\n      pop\n        /* \"Campaign.sol\":1345:1359  approversCount */\n      0x04\n      0x00\n        /* \"Campaign.sol\":1345:1361  approversCount++ */\n      dup2\n      sload\n      dup1\n      swap3\n      swap2\n      swap1\n      tag_103\n      swap1\n      tag_104\n      jump\t// in\n    tag_103:\n      swap2\n      swap1\n      pop\n      sstore\n      pop\n        /* \"Campaign.sol\":1210:1638  function contribute() public payable {... */\n      jump\t// out\n        /* \"Campaign.sol\":2016:2287  function approveRequest(uint index) public {... */\n    tag_66:\n        /* \"Campaign.sol\":2077:2086  approvers */\n      0x03\n        /* \"Campaign.sol\":2077:2098  approvers[msg.sender] */\n      0x00\n        /* \"Campaign.sol\":2087:2097  msg.sender */\n      caller\n        /* \"Campaign.sol\":2077:2098  approvers[msg.sender] */\n      0xffffffffffffffffffffffffffffffffffffffff\n      and\n      0xffffffffffffffffffffffffffffffffffffffff\n      and\n      dup2\n      mstore\n      0x20\n      add\n      swap1\n      dup2\n      mstore\n      0x20\n      add\n      0x00\n      keccak256\n      0x00\n      swap1\n      sload\n      swap1\n      0x0100\n      exp\n      swap1\n      div\n      0xff\n      and\n        /* \"Campaign.sol\":2069:2099  require(approvers[msg.sender]) */\n      tag_106\n      jumpi\n      0x00\n      dup1\n      revert\n    tag_106:\n        /* \"Campaign.sol\":2110:2133  Request storage request */\n      0x00\n        /* \"Campaign.sol\":2136:2144  requests */\n      dup1\n        /* \"Campaign.sol\":2145:2150  index */\n      dup3\n        /* \"Campaign.sol\":2136:2151  requests[index] */\n      dup2\n      sload\n      dup2\n      lt\n      tag_107\n      jumpi\n      tag_108\n      tag_77\n      jump\t// in\n    tag_108:\n    tag_107:\n      swap1\n      0x00\n      mstore\n      keccak256(0x00, 0x20)\n      swap1\n      0x05\n      mul\n      add\n        /* \"Campaign.sol\":2110:2151  Request storage request = requests[index] */\n      swap1\n      pop\n        /* \"Campaign.sol\":2170:2177  request */\n      dup1\n        /* \"Campaign.sol\":2170:2187  request.approvals */\n      0x04\n      add\n        /* \"Campaign.sol\":2170:2199  request.approvals[msg.sender] */\n      0x00\n        /* \"Campaign.sol\":2188:2198  msg.sender */\n      caller\n        /* \"Campaign.sol\":2170:2199  request.approvals[msg.sender] */\n      0xffffffffffffffffffffffffffffffffffffffff\n      and\n      0xffffffffffffffffffffffffffffffffffffffff\n      and\n      dup2\n      mstore\n      0x20\n      add\n      swap1\n      dup2\n      mstore\n      0x20\n      add\n      0x00\n      keccak256\n      0x00\n      swap1\n      sload\n      swap1\n      0x0100\n      exp\n      swap1\n      div\n      0xff\n      and\n        /* \"Campaign.sol\":2169:2199  !request.approvals[msg.sender] */\n      iszero\n        /* \"Campaign.sol\":2161:2200  require(!request.approvals[msg.sender]) */\n      tag_110\n      jumpi\n      0x00\n      dup1\n      revert\n    tag_110:\n        /* \"Campaign.sol\":2243:2247  true */\n      0x01\n        /* \"Campaign.sol\":2211:2218  request */\n      dup2\n        /* \"Campaign.sol\":2211:2228  request.approvals */\n      0x04\n      add\n        /* \"Campaign.sol\":2211:2240  request.approvals[msg.sender] */\n      0x00\n        /* \"Campaign.sol\":2229:2239  msg.sender */\n      caller\n        /* \"Campaign.sol\":2211:2240  request.approvals[msg.sender] */\n      0xffffffffffffffffffffffffffffffffffffffff\n      and\n      0xffffffffffffffffffffffffffffffffffffffff\n      and\n      dup2\n      mstore\n      0x20\n      add\n      swap1\n      dup2\n      mstore\n      0x20\n      add\n      0x00\n      keccak256\n      0x00\n        /* \"Campaign.sol\":2211:2247  request.approvals[msg.sender] = true */\n      0x0100\n      exp\n      dup2\n      sload\n      dup2\n      0xff\n      mul\n      not\n      and\n      swap1\n      dup4\n      iszero\n      iszero\n      mul\n      or\n      swap1\n      sstore\n      pop\n        /* \"Campaign.sol\":2257:2264  request */\n      dup1\n        /* \"Campaign.sol\":2257:2278  request.approvalCount */\n      0x03\n      add\n      0x00\n        /* \"Campaign.sol\":2257:2280  request.approvalCount++ */\n      dup2\n      sload\n      dup1\n      swap3\n      swap2\n      swap1\n      tag_111\n      swap1\n      tag_104\n      jump\t// in\n    tag_111:\n      swap2\n      swap1\n      pop\n      sstore\n      pop\n        /* \"Campaign.sol\":2059:2287  {... */\n      pop\n        /* \"Campaign.sol\":2016:2287  function approveRequest(uint index) public {... */\n      pop\n      jump\t// out\n        /* \"Campaign.sol\":2293:2877  function getAllRequests() public view returns (RequestForExport[] memory) {... */\n    tag_69:\n        /* \"Campaign.sol\":2340:2365  RequestForExport[] memory */\n      0x60\n        /* \"Campaign.sol\":2377:2409  RequestForExport[] memory result */\n      0x00\n        /* \"Campaign.sol\":2435:2443  requests */\n      dup1\n        /* \"Campaign.sol\":2435:2450  requests.length */\n      dup1\n      sload\n      swap1\n      pop\n        /* \"Campaign.sol\":2412:2451  new RequestForExport[](requests.length) */\n      0xffffffffffffffff\n      dup2\n      gt\n      iszero\n      tag_113\n      jumpi\n      tag_114\n      tag_115\n      jump\t// in\n    tag_114:\n    tag_113:\n      mload(0x40)\n      swap1\n      dup1\n      dup3\n      mstore\n      dup1\n      0x20\n      mul\n      0x20\n      add\n      dup3\n      add\n      0x40\n      mstore\n      dup1\n      iszero\n      tag_116\n      jumpi\n      dup2\n      0x20\n      add\n    tag_117:\n      tag_118\n      tag_119\n      jump\t// in\n    tag_118:\n      dup2\n      mstore\n      0x20\n      add\n      swap1\n      0x01\n      swap1\n      sub\n      swap1\n      dup2\n      tag_117\n      jumpi\n      swap1\n      pop\n    tag_116:\n      pop\n        /* \"Campaign.sol\":2377:2451  RequestForExport[] memory result = new RequestForExport[](requests.length) */\n      swap1\n      pop\n        /* \"Campaign.sol\":2466:2472  uint i */\n      0x00\n        /* \"Campaign.sol\":2461:2848  for (uint i=0; i<requests.length; i++ ) {... */\n    tag_120:\n        /* \"Campaign.sol\":2478:2486  requests */\n      0x00\n        /* \"Campaign.sol\":2478:2493  requests.length */\n      dup1\n      sload\n      swap1\n      pop\n        /* \"Campaign.sol\":2476:2477  i */\n      dup2\n        /* \"Campaign.sol\":2476:2493  i<requests.length */\n      lt\n        /* \"Campaign.sol\":2461:2848  for (uint i=0; i<requests.length; i++ ) {... */\n      iszero\n      tag_121\n      jumpi\n        /* \"Campaign.sol\":2515:2534  Request storage src */\n      0x00\n        /* \"Campaign.sol\":2537:2545  requests */\n      dup1\n        /* \"Campaign.sol\":2546:2547  i */\n      dup3\n        /* \"Campaign.sol\":2537:2548  requests[i] */\n      dup2\n      sload\n      dup2\n      lt\n      tag_123\n      jumpi\n      tag_124\n      tag_77\n      jump\t// in\n    tag_124:\n    tag_123:\n      swap1\n      0x00\n      mstore\n      keccak256(0x00, 0x20)\n      swap1\n      0x05\n      mul\n      add\n        /* \"Campaign.sol\":2515:2548  Request storage src = requests[i] */\n      swap1\n      pop\n        /* \"Campaign.sol\":2563:2590  RequestForExport memory req */\n      tag_126\n      tag_119\n      jump\t// in\n    tag_126:\n        /* \"Campaign.sol\":2622:2625  src */\n      dup2\n        /* \"Campaign.sol\":2622:2637  src.description */\n      0x00\n      add\n        /* \"Campaign.sol\":2604:2637  req.description = src.description */\n      dup1\n      sload\n      tag_127\n      swap1\n      tag_90\n      jump\t// in\n    tag_127:\n      dup1\n      0x1f\n      add\n      0x20\n      dup1\n      swap2\n      div\n      mul\n      0x20\n      add\n      mload(0x40)\n      swap1\n      dup2\n      add\n      0x40\n      mstore\n      dup1\n      swap3\n      swap2\n      swap1\n      dup2\n      dup2\n      mstore\n      0x20\n      add\n      dup3\n      dup1\n      sload\n      tag_128\n      swap1\n      tag_90\n      jump\t// in\n    tag_128:\n      dup1\n      iszero\n      tag_129\n      jumpi\n      dup1\n      0x1f\n      lt\n      tag_130\n      jumpi\n      0x0100\n      dup1\n      dup4\n      sload\n      div\n      mul\n      dup4\n      mstore\n      swap2\n      0x20\n      add\n      swap2\n      jump(tag_129)\n    tag_130:\n      dup3\n      add\n      swap2\n      swap1\n      0x00\n      mstore\n      keccak256(0x00, 0x20)\n      swap1\n    tag_131:\n      dup2\n      sload\n      dup2\n      mstore\n      swap1\n      0x01\n      add\n      swap1\n      0x20\n      add\n      dup1\n      dup4\n      gt\n      tag_131\n      jumpi\n      dup3\n      swap1\n      sub\n      0x1f\n      and\n      dup3\n      add\n      swap2\n    tag_129:\n      pop\n      pop\n      pop\n      pop\n      pop\n        /* \"Campaign.sol\":2604:2607  req */\n      dup2\n        /* \"Campaign.sol\":2604:2619  req.description */\n      0x00\n      add\n        /* \"Campaign.sol\":2604:2637  req.description = src.description */\n      dup2\n      swap1\n      mstore\n      pop\n        /* \"Campaign.sol\":2663:2666  src */\n      dup2\n        /* \"Campaign.sol\":2663:2672  src.value */\n      0x01\n      add\n      sload\n        /* \"Campaign.sol\":2651:2654  req */\n      dup2\n        /* \"Campaign.sol\":2651:2660  req.value */\n      0x20\n      add\n        /* \"Campaign.sol\":2651:2672  req.value = src.value */\n      dup2\n      dup2\n      mstore\n      pop\n      pop\n        /* \"Campaign.sol\":2702:2705  src */\n      dup2\n        /* \"Campaign.sol\":2702:2715  src.recipient */\n      0x02\n      add\n      0x00\n      swap1\n      sload\n      swap1\n      0x0100\n      exp\n      swap1\n      div\n      0xffffffffffffffffffffffffffffffffffffffff\n      and\n        /* \"Campaign.sol\":2686:2689  req */\n      dup2\n        /* \"Campaign.sol\":2686:2699  req.recipient */\n      0x40\n      add\n        /* \"Campaign.sol\":2686:2715  req.recipient = src.recipient */\n      swap1\n      0xffffffffffffffffffffffffffffffffffffffff\n      and\n      swap1\n      dup2\n      0xffffffffffffffffffffffffffffffffffffffff\n      and\n      dup2\n      mstore\n      pop\n      pop\n        /* \"Campaign.sol\":2744:2747  src */\n      dup2\n        /* \"Campaign.sol\":2744:2756  src.complete */\n      0x02\n      add\n      0x14\n      swap1\n      sload\n      swap1\n      0x0100\n      exp\n      swap1\n      div\n      0xff\n      and\n        /* \"Campaign.sol\":2729:2732  req */\n      dup2\n        /* \"Campaign.sol\":2729:2741  req.complete */\n      0x60\n      add\n        /* \"Campaign.sol\":2729:2756  req.complete = src.complete */\n      swap1\n      iszero\n      iszero\n      swap1\n      dup2\n      iszero\n      iszero\n      dup2\n      mstore\n      pop\n      pop\n        /* \"Campaign.sol\":2790:2793  src */\n      dup2\n        /* \"Campaign.sol\":2790:2807  src.approvalCount */\n      0x03\n      add\n      sload\n        /* \"Campaign.sol\":2770:2773  req */\n      dup2\n        /* \"Campaign.sol\":2770:2787  req.approvalCount */\n      0x80\n      add\n        /* \"Campaign.sol\":2770:2807  req.approvalCount = src.approvalCount */\n      dup2\n      dup2\n      mstore\n      pop\n      pop\n        /* \"Campaign.sol\":2834:2837  req */\n      dup1\n        /* \"Campaign.sol\":2822:2828  result */\n      dup5\n        /* \"Campaign.sol\":2829:2830  i */\n      dup5\n        /* \"Campaign.sol\":2822:2831  result[i] */\n      dup2\n      mload\n      dup2\n      lt\n      tag_132\n      jumpi\n      tag_133\n      tag_77\n      jump\t// in\n    tag_133:\n    tag_132:\n      0x20\n      mul\n      0x20\n      add\n      add\n        /* \"Campaign.sol\":2822:2837  result[i] = req */\n      dup2\n      swap1\n      mstore\n      pop\n        /* \"Campaign.sol\":2501:2848  {... */\n      pop\n      pop\n        /* \"Campaign.sol\":2495:2498  i++ */\n      dup1\n      dup1\n      0x01\n      add\n      swap2\n      pop\n      pop\n        /* \"Campaign.sol\":2461:2848  for (uint i=0; i<requests.length; i++ ) {... */\n      jump(tag_120)\n    tag_121:\n      pop\n        /* \"Campaign.sol\":2864:2870  result */\n      dup1\n        /* \"Campaign.sol\":2857:2870  return result */\n      swap2\n      pop\n      pop\n        /* \"Campaign.sol\":2293:2877  function getAllRequests() public view returns (RequestForExport[] memory) {... */\n      swap1\n      jump\t// out\n    tag_119:\n      mload(0x40)\n      dup1\n      0xa0\n      add\n      0x40\n      mstore\n      dup1\n      0x60\n      dup2\n      mstore\n      0x20\n      add\n      0x00\n      dup2\n      mstore\n      0x20\n      add\n      and(0xffffffffffffffffffffffffffffffffffffffff, 0x00)\n      dup2\n      mstore\n      0x20\n      add\n      iszero(iszero(0x00))\n      dup2\n      mstore\n      0x20\n      add\n      0x00\n      dup2\n      mstore\n      pop\n      swap1\n      jump\t// out\n        /* \"#utility.yul\":7:82   */\n    tag_134:\n        /* \"#utility.yul\":40:46   */\n      0x00\n        /* \"#utility.yul\":73:75   */\n      0x40\n        /* \"#utility.yul\":67:76   */\n      mload\n        /* \"#utility.yul\":57:76   */\n      swap1\n      pop\n        /* \"#utility.yul\":7:82   */\n      swap1\n      jump\t// out\n        /* \"#utility.yul\":88:205   */\n    tag_135:\n        /* \"#utility.yul\":197:198   */\n      0x00\n        /* \"#utility.yul\":194:195   */\n      dup1\n        /* \"#utility.yul\":187:199   */\n      revert\n        /* \"#utility.yul\":211:328   */\n    tag_136:\n        /* \"#utility.yul\":320:321   */\n      0x00\n        /* \"#utility.yul\":317:318   */\n      dup1\n        /* \"#utility.yul\":310:322   */\n      revert\n        /* \"#utility.yul\":334:411   */\n    tag_137:\n        /* \"#utility.yul\":371:378   */\n      0x00\n        /* \"#utility.yul\":400:405   */\n      dup2\n        /* \"#utility.yul\":389:405   */\n      swap1\n      pop\n        /* \"#utility.yul\":334:411   */\n      swap2\n      swap1\n      pop\n      jump\t// out\n        /* \"#utility.yul\":417:539   */\n    tag_138:\n        /* \"#utility.yul\":490:514   */\n      tag_201\n        /* \"#utility.yul\":508:513   */\n      dup2\n        /* \"#utility.yul\":490:514   */\n      tag_137\n      jump\t// in\n    tag_201:\n        /* \"#utility.yul\":483:488   */\n      dup2\n        /* \"#utility.yul\":480:515   */\n      eq\n        /* \"#utility.yul\":470:533   */\n      tag_202\n      jumpi\n        /* \"#utility.yul\":529:530   */\n      0x00\n        /* \"#utility.yul\":526:527   */\n      dup1\n        /* \"#utility.yul\":519:531   */\n      revert\n        /* \"#utility.yul\":470:533   */\n    tag_202:\n        /* \"#utility.yul\":417:539   */\n      pop\n      jump\t// out\n        /* \"#utility.yul\":545:684   */\n    tag_139:\n        /* \"#utility.yul\":591:596   */\n      0x00\n        /* \"#utility.yul\":629:635   */\n      dup2\n        /* \"#utility.yul\":616:636   */\n      calldataload\n        /* \"#utility.yul\":607:636   */\n      swap1\n      pop\n        /* \"#utility.yul\":645:678   */\n      tag_204\n        /* \"#utility.yul\":672:677   */\n      dup2\n        /* \"#utility.yul\":645:678   */\n      tag_138\n      jump\t// in\n    tag_204:\n        /* \"#utility.yul\":545:684   */\n      swap3\n      swap2\n      pop\n      pop\n      jump\t// out\n        /* \"#utility.yul\":690:1019   */\n    tag_18:\n        /* \"#utility.yul\":749:755   */\n      0x00\n        /* \"#utility.yul\":798:800   */\n      0x20\n        /* \"#utility.yul\":786:795   */\n      dup3\n        /* \"#utility.yul\":777:784   */\n      dup5\n        /* \"#utility.yul\":773:796   */\n      sub\n        /* \"#utility.yul\":769:801   */\n      slt\n        /* \"#utility.yul\":766:885   */\n      iszero\n      tag_206\n      jumpi\n        /* \"#utility.yul\":804:883   */\n      tag_207\n      tag_135\n      jump\t// in\n    tag_207:\n        /* \"#utility.yul\":766:885   */\n    tag_206:\n        /* \"#utility.yul\":924:925   */\n      0x00\n        /* \"#utility.yul\":949:1002   */\n      tag_208\n        /* \"#utility.yul\":994:1001   */\n      dup5\n        /* \"#utility.yul\":985:991   */\n      dup3\n        /* \"#utility.yul\":974:983   */\n      dup6\n        /* \"#utility.yul\":970:992   */\n      add\n        /* \"#utility.yul\":949:1002   */\n      tag_139\n      jump\t// in\n    tag_208:\n        /* \"#utility.yul\":939:1002   */\n      swap2\n      pop\n        /* \"#utility.yul\":895:1012   */\n      pop\n        /* \"#utility.yul\":690:1019   */\n      swap3\n      swap2\n      pop\n      pop\n      jump\t// out\n        /* \"#utility.yul\":1025:1151   */\n    tag_140:\n        /* \"#utility.yul\":1062:1069   */\n      0x00\n        /* \"#utility.yul\":1102:1144   */\n      0xffffffffffffffffffffffffffffffffffffffff\n        /* \"#utility.yul\":1095:1100   */\n      dup3\n        /* \"#utility.yul\":1091:1145   */\n      and\n        /* \"#utility.yul\":1080:1145   */\n      swap1\n      pop\n        /* \"#utility.yul\":1025:1151   */\n      swap2\n      swap1\n      pop\n      jump\t// out\n        /* \"#utility.yul\":1157:1253   */\n    tag_141:\n        /* \"#utility.yul\":1194:1201   */\n      0x00\n        /* \"#utility.yul\":1223:1247   */\n      tag_211\n        /* \"#utility.yul\":1241:1246   */\n      dup3\n        /* \"#utility.yul\":1223:1247   */\n      tag_140\n      jump\t// in\n    tag_211:\n        /* \"#utility.yul\":1212:1247   */\n      swap1\n      pop\n        /* \"#utility.yul\":1157:1253   */\n      swap2\n      swap1\n      pop\n      jump\t// out\n        /* \"#utility.yul\":1259:1381   */\n    tag_142:\n        /* \"#utility.yul\":1332:1356   */\n      tag_213\n        /* \"#utility.yul\":1350:1355   */\n      dup2\n        /* \"#utility.yul\":1332:1356   */\n      tag_141\n      jump\t// in\n    tag_213:\n        /* \"#utility.yul\":1325:1330   */\n      dup2\n        /* \"#utility.yul\":1322:1357   */\n      eq\n        /* \"#utility.yul\":1312:1375   */\n      tag_214\n      jumpi\n        /* \"#utility.yul\":1371:1372   */\n      0x00\n        /* \"#utility.yul\":1368:1369   */\n      dup1\n        /* \"#utility.yul\":1361:1373   */\n      revert\n        /* \"#utility.yul\":1312:1375   */\n    tag_214:\n        /* \"#utility.yul\":1259:1381   */\n      pop\n      jump\t// out\n        /* \"#utility.yul\":1387:1526   */\n    tag_143:\n        /* \"#utility.yul\":1433:1438   */\n      0x00\n        /* \"#utility.yul\":1471:1477   */\n      dup2\n        /* \"#utility.yul\":1458:1478   */\n      calldataload\n        /* \"#utility.yul\":1449:1478   */\n      swap1\n      pop\n        /* \"#utility.yul\":1487:1520   */\n      tag_216\n        /* \"#utility.yul\":1514:1519   */\n      dup2\n        /* \"#utility.yul\":1487:1520   */\n      tag_142\n      jump\t// in\n    tag_216:\n        /* \"#utility.yul\":1387:1526   */\n      swap3\n      swap2\n      pop\n      pop\n      jump\t// out\n        /* \"#utility.yul\":1532:1861   */\n    tag_23:\n        /* \"#utility.yul\":1591:1597   */\n      0x00\n        /* \"#utility.yul\":1640:1642   */\n      0x20\n        /* \"#utility.yul\":1628:1637   */\n      dup3\n        /* \"#utility.yul\":1619:1626   */\n      dup5\n        /* \"#utility.yul\":1615:1638   */\n      sub\n        /* \"#utility.yul\":1611:1643   */\n      slt\n        /* \"#utility.yul\":1608:1727   */\n      iszero\n      tag_218\n      jumpi\n        /* \"#utility.yul\":1646:1725   */\n      tag_219\n      tag_135\n      jump\t// in\n    tag_219:\n        /* \"#utility.yul\":1608:1727   */\n    tag_218:\n        /* \"#utility.yul\":1766:1767   */\n      0x00\n        /* \"#utility.yul\":1791:1844   */\n      tag_220\n        /* \"#utility.yul\":1836:1843   */\n      dup5\n        /* \"#utility.yul\":1827:1833   */\n      dup3\n        /* \"#utility.yul\":1816:1825   */\n      dup6\n        /* \"#utility.yul\":1812:1834   */\n      add\n        /* \"#utility.yul\":1791:1844   */\n      tag_143\n      jump\t// in\n    tag_220:\n        /* \"#utility.yul\":1781:1844   */\n      swap2\n      pop\n        /* \"#utility.yul\":1737:1854   */\n      pop\n        /* \"#utility.yul\":1532:1861   */\n      swap3\n      swap2\n      pop\n      pop\n      jump\t// out\n        /* \"#utility.yul\":1867:1957   */\n    tag_144:\n        /* \"#utility.yul\":1901:1908   */\n      0x00\n        /* \"#utility.yul\":1944:1949   */\n      dup2\n        /* \"#utility.yul\":1937:1950   */\n      iszero\n        /* \"#utility.yul\":1930:1951   */\n      iszero\n        /* \"#utility.yul\":1919:1951   */\n      swap1\n      pop\n        /* \"#utility.yul\":1867:1957   */\n      swap2\n      swap1\n      pop\n      jump\t// out\n        /* \"#utility.yul\":1963:2072   */\n    tag_145:\n        /* \"#utility.yul\":2044:2065   */\n      tag_223\n        /* \"#utility.yul\":2059:2064   */\n      dup2\n        /* \"#utility.yul\":2044:2065   */\n      tag_144\n      jump\t// in\n    tag_223:\n        /* \"#utility.yul\":2039:2042   */\n      dup3\n        /* \"#utility.yul\":2032:2066   */\n      mstore\n        /* \"#utility.yul\":1963:2072   */\n      pop\n      pop\n      jump\t// out\n        /* \"#utility.yul\":2078:2288   */\n    tag_26:\n        /* \"#utility.yul\":2165:2169   */\n      0x00\n        /* \"#utility.yul\":2203:2205   */\n      0x20\n        /* \"#utility.yul\":2192:2201   */\n      dup3\n        /* \"#utility.yul\":2188:2206   */\n      add\n        /* \"#utility.yul\":2180:2206   */\n      swap1\n      pop\n        /* \"#utility.yul\":2216:2281   */\n      tag_225\n        /* \"#utility.yul\":2278:2279   */\n      0x00\n        /* \"#utility.yul\":2267:2276   */\n      dup4\n        /* \"#utility.yul\":2263:2280   */\n      add\n        /* \"#utility.yul\":2254:2260   */\n      dup5\n        /* \"#utility.yul\":2216:2281   */\n      tag_145\n      jump\t// in\n    tag_225:\n        /* \"#utility.yul\":2078:2288   */\n      swap3\n      swap2\n      pop\n      pop\n      jump\t// out\n        /* \"#utility.yul\":2294:2412   */\n    tag_146:\n        /* \"#utility.yul\":2381:2405   */\n      tag_227\n        /* \"#utility.yul\":2399:2404   */\n      dup2\n        /* \"#utility.yul\":2381:2405   */\n      tag_137\n      jump\t// in\n    tag_227:\n        /* \"#utility.yul\":2376:2379   */\n      dup3\n        /* \"#utility.yul\":2369:2406   */\n      mstore\n        /* \"#utility.yul\":2294:2412   */\n      pop\n      pop\n      jump\t// out\n        /* \"#utility.yul\":2418:2640   */\n    tag_31:\n        /* \"#utility.yul\":2511:2515   */\n      0x00\n        /* \"#utility.yul\":2549:2551   */\n      0x20\n        /* \"#utility.yul\":2538:2547   */\n      dup3\n        /* \"#utility.yul\":2534:2552   */\n      add\n        /* \"#utility.yul\":2526:2552   */\n      swap1\n      pop\n        /* \"#utility.yul\":2562:2633   */\n      tag_229\n        /* \"#utility.yul\":2630:2631   */\n      0x00\n        /* \"#utility.yul\":2619:2628   */\n      dup4\n        /* \"#utility.yul\":2615:2632   */\n      add\n        /* \"#utility.yul\":2606:2612   */\n      dup5\n        /* \"#utility.yul\":2562:2633   */\n      tag_146\n      jump\t// in\n    tag_229:\n        /* \"#utility.yul\":2418:2640   */\n      swap3\n      swap2\n      pop\n      pop\n      jump\t// out\n        /* \"#utility.yul\":2646:2764   */\n    tag_147:\n        /* \"#utility.yul\":2733:2757   */\n      tag_231\n        /* \"#utility.yul\":2751:2756   */\n      dup2\n        /* \"#utility.yul\":2733:2757   */\n      tag_141\n      jump\t// in\n    tag_231:\n        /* \"#utility.yul\":2728:2731   */\n      dup3\n        /* \"#utility.yul\":2721:2758   */\n      mstore\n        /* \"#utility.yul\":2646:2764   */\n      pop\n      pop\n      jump\t// out\n        /* \"#utility.yul\":2770:3434   */\n    tag_36:\n        /* \"#utility.yul\":2975:2979   */\n      0x00\n        /* \"#utility.yul\":3013:3016   */\n      0xa0\n        /* \"#utility.yul\":3002:3011   */\n      dup3\n        /* \"#utility.yul\":2998:3017   */\n      add\n        /* \"#utility.yul\":2990:3017   */\n      swap1\n      pop\n        /* \"#utility.yul\":3027:3098   */\n      tag_233\n        /* \"#utility.yul\":3095:3096   */\n      0x00\n        /* \"#utility.yul\":3084:3093   */\n      dup4\n        /* \"#utility.yul\":3080:3097   */\n      add\n        /* \"#utility.yul\":3071:3077   */\n      dup9\n        /* \"#utility.yul\":3027:3098   */\n      tag_146\n      jump\t// in\n    tag_233:\n        /* \"#utility.yul\":3108:3180   */\n      tag_234\n        /* \"#utility.yul\":3176:3178   */\n      0x20\n        /* \"#utility.yul\":3165:3174   */\n      dup4\n        /* \"#utility.yul\":3161:3179   */\n      add\n        /* \"#utility.yul\":3152:3158   */\n      dup8\n        /* \"#utility.yul\":3108:3180   */\n      tag_146\n      jump\t// in\n    tag_234:\n        /* \"#utility.yul\":3190:3262   */\n      tag_235\n        /* \"#utility.yul\":3258:3260   */\n      0x40\n        /* \"#utility.yul\":3247:3256   */\n      dup4\n        /* \"#utility.yul\":3243:3261   */\n      add\n        /* \"#utility.yul\":3234:3240   */\n      dup7\n        /* \"#utility.yul\":3190:3262   */\n      tag_146\n      jump\t// in\n    tag_235:\n        /* \"#utility.yul\":3272:3344   */\n      tag_236\n        /* \"#utility.yul\":3340:3342   */\n      0x60\n        /* \"#utility.yul\":3329:3338   */\n      dup4\n        /* \"#utility.yul\":3325:3343   */\n      add\n        /* \"#utility.yul\":3316:3322   */\n      dup6\n        /* \"#utility.yul\":3272:3344   */\n      tag_146\n      jump\t// in\n    tag_236:\n        /* \"#utility.yul\":3354:3427   */\n      tag_237\n        /* \"#utility.yul\":3422:3425   */\n      0x80\n        /* \"#utility.yul\":3411:3420   */\n      dup4\n        /* \"#utility.yul\":3407:3426   */\n      add\n        /* \"#utility.yul\":3398:3404   */\n      dup5\n        /* \"#utility.yul\":3354:3427   */\n      tag_147\n      jump\t// in\n    tag_237:\n        /* \"#utility.yul\":2770:3434   */\n      swap7\n      swap6\n      pop\n      pop\n      pop\n      pop\n      pop\n      pop\n      jump\t// out\n        /* \"#utility.yul\":3440:3662   */\n    tag_41:\n        /* \"#utility.yul\":3533:3537   */\n      0x00\n        /* \"#utility.yul\":3571:3573   */\n      0x20\n        /* \"#utility.yul\":3560:3569   */\n      dup3\n        /* \"#utility.yul\":3556:3574   */\n      add\n        /* \"#utility.yul\":3548:3574   */\n      swap1\n      pop\n        /* \"#utility.yul\":3584:3655   */\n      tag_239\n        /* \"#utility.yul\":3652:3653   */\n      0x00\n        /* \"#utility.yul\":3641:3650   */\n      dup4\n        /* \"#utility.yul\":3637:3654   */\n      add\n        /* \"#utility.yul\":3628:3634   */\n      dup5\n        /* \"#utility.yul\":3584:3655   */\n      tag_147\n      jump\t// in\n    tag_239:\n        /* \"#utility.yul\":3440:3662   */\n      swap3\n      swap2\n      pop\n      pop\n      jump\t// out\n        /* \"#utility.yul\":3668:3767   */\n    tag_148:\n        /* \"#utility.yul\":3720:3726   */\n      0x00\n        /* \"#utility.yul\":3754:3759   */\n      dup2\n        /* \"#utility.yul\":3748:3760   */\n      mload\n        /* \"#utility.yul\":3738:3760   */\n      swap1\n      pop\n        /* \"#utility.yul\":3668:3767   */\n      swap2\n      swap1\n      pop\n      jump\t// out\n        /* \"#utility.yul\":3773:3942   */\n    tag_149:\n        /* \"#utility.yul\":3857:3868   */\n      0x00\n        /* \"#utility.yul\":3891:3897   */\n      dup3\n        /* \"#utility.yul\":3886:3889   */\n      dup3\n        /* \"#utility.yul\":3879:3898   */\n      mstore\n        /* \"#utility.yul\":3931:3935   */\n      0x20\n        /* \"#utility.yul\":3926:3929   */\n      dup3\n        /* \"#utility.yul\":3922:3936   */\n      add\n        /* \"#utility.yul\":3907:3936   */\n      swap1\n      pop\n        /* \"#utility.yul\":3773:3942   */\n      swap3\n      swap2\n      pop\n      pop\n      jump\t// out\n        /* \"#utility.yul\":3948:4194   */\n    tag_150:\n        /* \"#utility.yul\":4029:4030   */\n      0x00\n        /* \"#utility.yul\":4039:4152   */\n    tag_243:\n        /* \"#utility.yul\":4053:4059   */\n      dup4\n        /* \"#utility.yul\":4050:4051   */\n      dup2\n        /* \"#utility.yul\":4047:4060   */\n      lt\n        /* \"#utility.yul\":4039:4152   */\n      iszero\n      tag_245\n      jumpi\n        /* \"#utility.yul\":4138:4139   */\n      dup1\n        /* \"#utility.yul\":4133:4136   */\n      dup3\n        /* \"#utility.yul\":4129:4140   */\n      add\n        /* \"#utility.yul\":4123:4141   */\n      mload\n        /* \"#utility.yul\":4119:4120   */\n      dup2\n        /* \"#utility.yul\":4114:4117   */\n      dup5\n        /* \"#utility.yul\":4110:4121   */\n      add\n        /* \"#utility.yul\":4103:4142   */\n      mstore\n        /* \"#utility.yul\":4075:4077   */\n      0x20\n        /* \"#utility.yul\":4072:4073   */\n      dup2\n        /* \"#utility.yul\":4068:4078   */\n      add\n        /* \"#utility.yul\":4063:4078   */\n      swap1\n      pop\n        /* \"#utility.yul\":4039:4152   */\n      jump(tag_243)\n    tag_245:\n        /* \"#utility.yul\":4186:4187   */\n      0x00\n        /* \"#utility.yul\":4177:4183   */\n      dup5\n        /* \"#utility.yul\":4172:4175   */\n      dup5\n        /* \"#utility.yul\":4168:4184   */\n      add\n        /* \"#utility.yul\":4161:4188   */\n      mstore\n        /* \"#utility.yul\":4010:4194   */\n      pop\n        /* \"#utility.yul\":3948:4194   */\n      pop\n      pop\n      pop\n      jump\t// out\n        /* \"#utility.yul\":4200:4302   */\n    tag_151:\n        /* \"#utility.yul\":4241:4247   */\n      0x00\n        /* \"#utility.yul\":4292:4294   */\n      0x1f\n        /* \"#utility.yul\":4288:4295   */\n      not\n        /* \"#utility.yul\":4283:4285   */\n      0x1f\n        /* \"#utility.yul\":4276:4281   */\n      dup4\n        /* \"#utility.yul\":4272:4286   */\n      add\n        /* \"#utility.yul\":4268:4296   */\n      and\n        /* \"#utility.yul\":4258:4296   */\n      swap1\n      pop\n        /* \"#utility.yul\":4200:4302   */\n      swap2\n      swap1\n      pop\n      jump\t// out\n        /* \"#utility.yul\":4308:4685   */\n    tag_152:\n        /* \"#utility.yul\":4396:4399   */\n      0x00\n        /* \"#utility.yul\":4424:4463   */\n      tag_248\n        /* \"#utility.yul\":4457:4462   */\n      dup3\n        /* \"#utility.yul\":4424:4463   */\n      tag_148\n      jump\t// in\n    tag_248:\n        /* \"#utility.yul\":4479:4550   */\n      tag_249\n        /* \"#utility.yul\":4543:4549   */\n      dup2\n        /* \"#utility.yul\":4538:4541   */\n      dup6\n        /* \"#utility.yul\":4479:4550   */\n      tag_149\n      jump\t// in\n    tag_249:\n        /* \"#utility.yul\":4472:4550   */\n      swap4\n      pop\n        /* \"#utility.yul\":4559:4624   */\n      tag_250\n        /* \"#utility.yul\":4617:4623   */\n      dup2\n        /* \"#utility.yul\":4612:4615   */\n      dup6\n        /* \"#utility.yul\":4605:4609   */\n      0x20\n        /* \"#utility.yul\":4598:4603   */\n      dup7\n        /* \"#utility.yul\":4594:4610   */\n      add\n        /* \"#utility.yul\":4559:4624   */\n      tag_150\n      jump\t// in\n    tag_250:\n        /* \"#utility.yul\":4649:4678   */\n      tag_251\n        /* \"#utility.yul\":4671:4677   */\n      dup2\n        /* \"#utility.yul\":4649:4678   */\n      tag_151\n      jump\t// in\n    tag_251:\n        /* \"#utility.yul\":4644:4647   */\n      dup5\n        /* \"#utility.yul\":4640:4679   */\n      add\n        /* \"#utility.yul\":4633:4679   */\n      swap2\n      pop\n        /* \"#utility.yul\":4400:4685   */\n      pop\n        /* \"#utility.yul\":4308:4685   */\n      swap3\n      swap2\n      pop\n      pop\n      jump\t// out\n        /* \"#utility.yul\":4691:4795   */\n    tag_153:\n        /* \"#utility.yul\":4736:4743   */\n      0x00\n        /* \"#utility.yul\":4765:4789   */\n      tag_253\n        /* \"#utility.yul\":4783:4788   */\n      dup3\n        /* \"#utility.yul\":4765:4789   */\n      tag_140\n      jump\t// in\n    tag_253:\n        /* \"#utility.yul\":4754:4789   */\n      swap1\n      pop\n        /* \"#utility.yul\":4691:4795   */\n      swap2\n      swap1\n      pop\n      jump\t// out\n        /* \"#utility.yul\":4801:4943   */\n    tag_154:\n        /* \"#utility.yul\":4904:4936   */\n      tag_255\n        /* \"#utility.yul\":4930:4935   */\n      dup2\n        /* \"#utility.yul\":4904:4936   */\n      tag_153\n      jump\t// in\n    tag_255:\n        /* \"#utility.yul\":4899:4902   */\n      dup3\n        /* \"#utility.yul\":4892:4937   */\n      mstore\n        /* \"#utility.yul\":4801:4943   */\n      pop\n      pop\n      jump\t// out\n        /* \"#utility.yul\":4949:5724   */\n    tag_47:\n        /* \"#utility.yul\":5184:5188   */\n      0x00\n        /* \"#utility.yul\":5222:5225   */\n      0xa0\n        /* \"#utility.yul\":5211:5220   */\n      dup3\n        /* \"#utility.yul\":5207:5226   */\n      add\n        /* \"#utility.yul\":5199:5226   */\n      swap1\n      pop\n        /* \"#utility.yul\":5272:5281   */\n      dup2\n        /* \"#utility.yul\":5266:5270   */\n      dup2\n        /* \"#utility.yul\":5262:5282   */\n      sub\n        /* \"#utility.yul\":5258:5259   */\n      0x00\n        /* \"#utility.yul\":5247:5256   */\n      dup4\n        /* \"#utility.yul\":5243:5260   */\n      add\n        /* \"#utility.yul\":5236:5283   */\n      mstore\n        /* \"#utility.yul\":5300:5378   */\n      tag_257\n        /* \"#utility.yul\":5373:5377   */\n      dup2\n        /* \"#utility.yul\":5364:5370   */\n      dup9\n        /* \"#utility.yul\":5300:5378   */\n      tag_152\n      jump\t// in\n    tag_257:\n        /* \"#utility.yul\":5292:5378   */\n      swap1\n      pop\n        /* \"#utility.yul\":5388:5460   */\n      tag_258\n        /* \"#utility.yul\":5456:5458   */\n      0x20\n        /* \"#utility.yul\":5445:5454   */\n      dup4\n        /* \"#utility.yul\":5441:5459   */\n      add\n        /* \"#utility.yul\":5432:5438   */\n      dup8\n        /* \"#utility.yul\":5388:5460   */\n      tag_146\n      jump\t// in\n    tag_258:\n        /* \"#utility.yul\":5470:5558   */\n      tag_259\n        /* \"#utility.yul\":5554:5556   */\n      0x40\n        /* \"#utility.yul\":5543:5552   */\n      dup4\n        /* \"#utility.yul\":5539:5557   */\n      add\n        /* \"#utility.yul\":5530:5536   */\n      dup7\n        /* \"#utility.yul\":5470:5558   */\n      tag_154\n      jump\t// in\n    tag_259:\n        /* \"#utility.yul\":5568:5634   */\n      tag_260\n        /* \"#utility.yul\":5630:5632   */\n      0x60\n        /* \"#utility.yul\":5619:5628   */\n      dup4\n        /* \"#utility.yul\":5615:5633   */\n      add\n        /* \"#utility.yul\":5606:5612   */\n      dup6\n        /* \"#utility.yul\":5568:5634   */\n      tag_145\n      jump\t// in\n    tag_260:\n        /* \"#utility.yul\":5644:5717   */\n      tag_261\n        /* \"#utility.yul\":5712:5715   */\n      0x80\n        /* \"#utility.yul\":5701:5710   */\n      dup4\n        /* \"#utility.yul\":5697:5716   */\n      add\n        /* \"#utility.yul\":5688:5694   */\n      dup5\n        /* \"#utility.yul\":5644:5717   */\n      tag_146\n      jump\t// in\n    tag_261:\n        /* \"#utility.yul\":4949:5724   */\n      swap7\n      swap6\n      pop\n      pop\n      pop\n      pop\n      pop\n      pop\n      jump\t// out\n        /* \"#utility.yul\":5730:5847   */\n    tag_155:\n        /* \"#utility.yul\":5839:5840   */\n      0x00\n        /* \"#utility.yul\":5836:5837   */\n      dup1\n        /* \"#utility.yul\":5829:5841   */\n      revert\n        /* \"#utility.yul\":5853:5970   */\n    tag_156:\n        /* \"#utility.yul\":5962:5963   */\n      0x00\n        /* \"#utility.yul\":5959:5960   */\n      dup1\n        /* \"#utility.yul\":5952:5964   */\n      revert\n        /* \"#utility.yul\":5976:6156   */\n    tag_115:\n        /* \"#utility.yul\":6024:6101   */\n      0x4e487b7100000000000000000000000000000000000000000000000000000000\n        /* \"#utility.yul\":6021:6022   */\n      0x00\n        /* \"#utility.yul\":6014:6102   */\n      mstore\n        /* \"#utility.yul\":6121:6125   */\n      0x41\n        /* \"#utility.yul\":6118:6119   */\n      0x04\n        /* \"#utility.yul\":6111:6126   */\n      mstore\n        /* \"#utility.yul\":6145:6149   */\n      0x24\n        /* \"#utility.yul\":6142:6143   */\n      0x00\n        /* \"#utility.yul\":6135:6150   */\n      revert\n        /* \"#utility.yul\":6162:6443   */\n    tag_157:\n        /* \"#utility.yul\":6245:6272   */\n      tag_266\n        /* \"#utility.yul\":6267:6271   */\n      dup3\n        /* \"#utility.yul\":6245:6272   */\n      tag_151\n      jump\t// in\n    tag_266:\n        /* \"#utility.yul\":6237:6243   */\n      dup2\n        /* \"#utility.yul\":6233:6273   */\n      add\n        /* \"#utility.yul\":6375:6381   */\n      dup2\n        /* \"#utility.yul\":6363:6373   */\n      dup2\n        /* \"#utility.yul\":6360:6382   */\n      lt\n        /* \"#utility.yul\":6339:6357   */\n      0xffffffffffffffff\n        /* \"#utility.yul\":6327:6337   */\n      dup3\n        /* \"#utility.yul\":6324:6358   */\n      gt\n        /* \"#utility.yul\":6321:6383   */\n      or\n        /* \"#utility.yul\":6318:6406   */\n      iszero\n      tag_267\n      jumpi\n        /* \"#utility.yul\":6386:6404   */\n      tag_268\n      tag_115\n      jump\t// in\n    tag_268:\n        /* \"#utility.yul\":6318:6406   */\n    tag_267:\n        /* \"#utility.yul\":6426:6436   */\n      dup1\n        /* \"#utility.yul\":6422:6424   */\n      0x40\n        /* \"#utility.yul\":6415:6437   */\n      mstore\n        /* \"#utility.yul\":6205:6443   */\n      pop\n        /* \"#utility.yul\":6162:6443   */\n      pop\n      pop\n      jump\t// out\n        /* \"#utility.yul\":6449:6578   */\n    tag_158:\n        /* \"#utility.yul\":6483:6489   */\n      0x00\n        /* \"#utility.yul\":6510:6530   */\n      tag_270\n      tag_134\n      jump\t// in\n    tag_270:\n        /* \"#utility.yul\":6500:6530   */\n      swap1\n      pop\n        /* \"#utility.yul\":6539:6572   */\n      tag_271\n        /* \"#utility.yul\":6567:6571   */\n      dup3\n        /* \"#utility.yul\":6559:6565   */\n      dup3\n        /* \"#utility.yul\":6539:6572   */\n      tag_157\n      jump\t// in\n    tag_271:\n        /* \"#utility.yul\":6449:6578   */\n      swap2\n      swap1\n      pop\n      jump\t// out\n        /* \"#utility.yul\":6584:6892   */\n    tag_159:\n        /* \"#utility.yul\":6646:6650   */\n      0x00\n        /* \"#utility.yul\":6736:6754   */\n      0xffffffffffffffff\n        /* \"#utility.yul\":6728:6734   */\n      dup3\n        /* \"#utility.yul\":6725:6755   */\n      gt\n        /* \"#utility.yul\":6722:6778   */\n      iszero\n      tag_273\n      jumpi\n        /* \"#utility.yul\":6758:6776   */\n      tag_274\n      tag_115\n      jump\t// in\n    tag_274:\n        /* \"#utility.yul\":6722:6778   */\n    tag_273:\n        /* \"#utility.yul\":6796:6825   */\n      tag_275\n        /* \"#utility.yul\":6818:6824   */\n      dup3\n        /* \"#utility.yul\":6796:6825   */\n      tag_151\n      jump\t// in\n    tag_275:\n        /* \"#utility.yul\":6788:6825   */\n      swap1\n      pop\n        /* \"#utility.yul\":6880:6884   */\n      0x20\n        /* \"#utility.yul\":6874:6878   */\n      dup2\n        /* \"#utility.yul\":6870:6885   */\n      add\n        /* \"#utility.yul\":6862:6885   */\n      swap1\n      pop\n        /* \"#utility.yul\":6584:6892   */\n      swap2\n      swap1\n      pop\n      jump\t// out\n        /* \"#utility.yul\":6898:7044   */\n    tag_160:\n        /* \"#utility.yul\":6995:7001   */\n      dup3\n        /* \"#utility.yul\":6990:6993   */\n      dup2\n        /* \"#utility.yul\":6985:6988   */\n      dup4\n        /* \"#utility.yul\":6972:7002   */\n      calldatacopy\n        /* \"#utility.yul\":7036:7037   */\n      0x00\n        /* \"#utility.yul\":7027:7033   */\n      dup4\n        /* \"#utility.yul\":7022:7025   */\n      dup4\n        /* \"#utility.yul\":7018:7034   */\n      add\n        /* \"#utility.yul\":7011:7038   */\n      mstore\n        /* \"#utility.yul\":6898:7044   */\n      pop\n      pop\n      pop\n      jump\t// out\n        /* \"#utility.yul\":7050:7475   */\n    tag_161:\n        /* \"#utility.yul\":7128:7133   */\n      0x00\n        /* \"#utility.yul\":7153:7219   */\n      tag_278\n        /* \"#utility.yul\":7169:7218   */\n      tag_279\n        /* \"#utility.yul\":7211:7217   */\n      dup5\n        /* \"#utility.yul\":7169:7218   */\n      tag_159\n      jump\t// in\n    tag_279:\n        /* \"#utility.yul\":7153:7219   */\n      tag_158\n      jump\t// in\n    tag_278:\n        /* \"#utility.yul\":7144:7219   */\n      swap1\n      pop\n        /* \"#utility.yul\":7242:7248   */\n      dup3\n        /* \"#utility.yul\":7235:7240   */\n      dup2\n        /* \"#utility.yul\":7228:7249   */\n      mstore\n        /* \"#utility.yul\":7280:7284   */\n      0x20\n        /* \"#utility.yul\":7273:7278   */\n      dup2\n        /* \"#utility.yul\":7269:7285   */\n      add\n        /* \"#utility.yul\":7318:7321   */\n      dup5\n        /* \"#utility.yul\":7309:7315   */\n      dup5\n        /* \"#utility.yul\":7304:7307   */\n      dup5\n        /* \"#utility.yul\":7300:7316   */\n      add\n        /* \"#utility.yul\":7297:7322   */\n      gt\n        /* \"#utility.yul\":7294:7406   */\n      iszero\n      tag_280\n      jumpi\n        /* \"#utility.yul\":7325:7404   */\n      tag_281\n      tag_156\n      jump\t// in\n    tag_281:\n        /* \"#utility.yul\":7294:7406   */\n    tag_280:\n        /* \"#utility.yul\":7415:7469   */\n      tag_282\n        /* \"#utility.yul\":7462:7468   */\n      dup5\n        /* \"#utility.yul\":7457:7460   */\n      dup3\n        /* \"#utility.yul\":7452:7455   */\n      dup6\n        /* \"#utility.yul\":7415:7469   */\n      tag_160\n      jump\t// in\n    tag_282:\n        /* \"#utility.yul\":7134:7475   */\n      pop\n        /* \"#utility.yul\":7050:7475   */\n      swap4\n      swap3\n      pop\n      pop\n      pop\n      jump\t// out\n        /* \"#utility.yul\":7495:7835   */\n    tag_162:\n        /* \"#utility.yul\":7551:7556   */\n      0x00\n        /* \"#utility.yul\":7600:7603   */\n      dup3\n        /* \"#utility.yul\":7593:7597   */\n      0x1f\n        /* \"#utility.yul\":7585:7591   */\n      dup4\n        /* \"#utility.yul\":7581:7598   */\n      add\n        /* \"#utility.yul\":7577:7604   */\n      slt\n        /* \"#utility.yul\":7567:7689   */\n      tag_284\n      jumpi\n        /* \"#utility.yul\":7608:7687   */\n      tag_285\n      tag_155\n      jump\t// in\n    tag_285:\n        /* \"#utility.yul\":7567:7689   */\n    tag_284:\n        /* \"#utility.yul\":7725:7731   */\n      dup2\n        /* \"#utility.yul\":7712:7732   */\n      calldataload\n        /* \"#utility.yul\":7750:7829   */\n      tag_286\n        /* \"#utility.yul\":7825:7828   */\n      dup5\n        /* \"#utility.yul\":7817:7823   */\n      dup3\n        /* \"#utility.yul\":7810:7814   */\n      0x20\n        /* \"#utility.yul\":7802:7808   */\n      dup7\n        /* \"#utility.yul\":7798:7815   */\n      add\n        /* \"#utility.yul\":7750:7829   */\n      tag_161\n      jump\t// in\n    tag_286:\n        /* \"#utility.yul\":7741:7829   */\n      swap2\n      pop\n        /* \"#utility.yul\":7557:7835   */\n      pop\n        /* \"#utility.yul\":7495:7835   */\n      swap3\n      swap2\n      pop\n      pop\n      jump\t// out\n        /* \"#utility.yul\":7841:7979   */\n    tag_163:\n        /* \"#utility.yul\":7922:7954   */\n      tag_288\n        /* \"#utility.yul\":7948:7953   */\n      dup2\n        /* \"#utility.yul\":7922:7954   */\n      tag_153\n      jump\t// in\n    tag_288:\n        /* \"#utility.yul\":7915:7920   */\n      dup2\n        /* \"#utility.yul\":7912:7955   */\n      eq\n        /* \"#utility.yul\":7902:7973   */\n      tag_289\n      jumpi\n        /* \"#utility.yul\":7969:7970   */\n      0x00\n        /* \"#utility.yul\":7966:7967   */\n      dup1\n        /* \"#utility.yul\":7959:7971   */\n      revert\n        /* \"#utility.yul\":7902:7973   */\n    tag_289:\n        /* \"#utility.yul\":7841:7979   */\n      pop\n      jump\t// out\n        /* \"#utility.yul\":7985:8140   */\n    tag_164:\n        /* \"#utility.yul\":8039:8044   */\n      0x00\n        /* \"#utility.yul\":8077:8083   */\n      dup2\n        /* \"#utility.yul\":8064:8084   */\n      calldataload\n        /* \"#utility.yul\":8055:8084   */\n      swap1\n      pop\n        /* \"#utility.yul\":8093:8134   */\n      tag_291\n        /* \"#utility.yul\":8128:8133   */\n      dup2\n        /* \"#utility.yul\":8093:8134   */\n      tag_163\n      jump\t// in\n    tag_291:\n        /* \"#utility.yul\":7985:8140   */\n      swap3\n      swap2\n      pop\n      pop\n      jump\t// out\n        /* \"#utility.yul\":8146:8961   */\n    tag_55:\n        /* \"#utility.yul\":8241:8247   */\n      0x00\n        /* \"#utility.yul\":8249:8255   */\n      dup1\n        /* \"#utility.yul\":8257:8263   */\n      0x00\n        /* \"#utility.yul\":8306:8308   */\n      0x60\n        /* \"#utility.yul\":8294:8303   */\n      dup5\n        /* \"#utility.yul\":8285:8292   */\n      dup7\n        /* \"#utility.yul\":8281:8304   */\n      sub\n        /* \"#utility.yul\":8277:8309   */\n      slt\n        /* \"#utility.yul\":8274:8393   */\n      iszero\n      tag_293\n      jumpi\n        /* \"#utility.yul\":8312:8391   */\n      tag_294\n      tag_135\n      jump\t// in\n    tag_294:\n        /* \"#utility.yul\":8274:8393   */\n    tag_293:\n        /* \"#utility.yul\":8460:8461   */\n      0x00\n        /* \"#utility.yul\":8449:8458   */\n      dup5\n        /* \"#utility.yul\":8445:8462   */\n      add\n        /* \"#utility.yul\":8432:8463   */\n      calldataload\n        /* \"#utility.yul\":8490:8508   */\n      0xffffffffffffffff\n        /* \"#utility.yul\":8482:8488   */\n      dup2\n        /* \"#utility.yul\":8479:8509   */\n      gt\n        /* \"#utility.yul\":8476:8593   */\n      iszero\n      tag_295\n      jumpi\n        /* \"#utility.yul\":8512:8591   */\n      tag_296\n      tag_136\n      jump\t// in\n    tag_296:\n        /* \"#utility.yul\":8476:8593   */\n    tag_295:\n        /* \"#utility.yul\":8617:8680   */\n      tag_297\n        /* \"#utility.yul\":8672:8679   */\n      dup7\n        /* \"#utility.yul\":8663:8669   */\n      dup3\n        /* \"#utility.yul\":8652:8661   */\n      dup8\n        /* \"#utility.yul\":8648:8670   */\n      add\n        /* \"#utility.yul\":8617:8680   */\n      tag_162\n      jump\t// in\n    tag_297:\n        /* \"#utility.yul\":8607:8680   */\n      swap4\n      pop\n        /* \"#utility.yul\":8403:8690   */\n      pop\n        /* \"#utility.yul\":8729:8731   */\n      0x20\n        /* \"#utility.yul\":8755:8808   */\n      tag_298\n        /* \"#utility.yul\":8800:8807   */\n      dup7\n        /* \"#utility.yul\":8791:8797   */\n      dup3\n        /* \"#utility.yul\":8780:8789   */\n      dup8\n        /* \"#utility.yul\":8776:8798   */\n      add\n        /* \"#utility.yul\":8755:8808   */\n      tag_139\n      jump\t// in\n    tag_298:\n        /* \"#utility.yul\":8745:8808   */\n      swap3\n      pop\n        /* \"#utility.yul\":8700:8818   */\n      pop\n        /* \"#utility.yul\":8857:8859   */\n      0x40\n        /* \"#utility.yul\":8883:8944   */\n      tag_299\n        /* \"#utility.yul\":8936:8943   */\n      dup7\n        /* \"#utility.yul\":8927:8933   */\n      dup3\n        /* \"#utility.yul\":8916:8925   */\n      dup8\n        /* \"#utility.yul\":8912:8934   */\n      add\n        /* \"#utility.yul\":8883:8944   */\n      tag_164\n      jump\t// in\n    tag_299:\n        /* \"#utility.yul\":8873:8944   */\n      swap2\n      pop\n        /* \"#utility.yul\":8828:8954   */\n      pop\n        /* \"#utility.yul\":8146:8961   */\n      swap3\n      pop\n      swap3\n      pop\n      swap3\n      jump\t// out\n        /* \"#utility.yul\":8967:9113   */\n    tag_165:\n        /* \"#utility.yul\":9066:9072   */\n      0x00\n        /* \"#utility.yul\":9100:9105   */\n      dup2\n        /* \"#utility.yul\":9094:9106   */\n      mload\n        /* \"#utility.yul\":9084:9106   */\n      swap1\n      pop\n        /* \"#utility.yul\":8967:9113   */\n      swap2\n      swap1\n      pop\n      jump\t// out\n        /* \"#utility.yul\":9119:9335   */\n    tag_166:\n        /* \"#utility.yul\":9250:9261   */\n      0x00\n        /* \"#utility.yul\":9284:9290   */\n      dup3\n        /* \"#utility.yul\":9279:9282   */\n      dup3\n        /* \"#utility.yul\":9272:9291   */\n      mstore\n        /* \"#utility.yul\":9324:9328   */\n      0x20\n        /* \"#utility.yul\":9319:9322   */\n      dup3\n        /* \"#utility.yul\":9315:9329   */\n      add\n        /* \"#utility.yul\":9300:9329   */\n      swap1\n      pop\n        /* \"#utility.yul\":9119:9335   */\n      swap3\n      swap2\n      pop\n      pop\n      jump\t// out\n        /* \"#utility.yul\":9341:9505   */\n    tag_167:\n        /* \"#utility.yul\":9440:9444   */\n      0x00\n        /* \"#utility.yul\":9463:9466   */\n      dup2\n        /* \"#utility.yul\":9455:9466   */\n      swap1\n      pop\n        /* \"#utility.yul\":9493:9497   */\n      0x20\n        /* \"#utility.yul\":9488:9491   */\n      dup3\n        /* \"#utility.yul\":9484:9498   */\n      add\n        /* \"#utility.yul\":9476:9498   */\n      swap1\n      pop\n        /* \"#utility.yul\":9341:9505   */\n      swap2\n      swap1\n      pop\n      jump\t// out\n        /* \"#utility.yul\":9511:9670   */\n    tag_168:\n        /* \"#utility.yul\":9585:9596   */\n      0x00\n        /* \"#utility.yul\":9619:9625   */\n      dup3\n        /* \"#utility.yul\":9614:9617   */\n      dup3\n        /* \"#utility.yul\":9607:9626   */\n      mstore\n        /* \"#utility.yul\":9659:9663   */\n      0x20\n        /* \"#utility.yul\":9654:9657   */\n      dup3\n        /* \"#utility.yul\":9650:9664   */\n      add\n        /* \"#utility.yul\":9635:9664   */\n      swap1\n      pop\n        /* \"#utility.yul\":9511:9670   */\n      swap3\n      swap2\n      pop\n      pop\n      jump\t// out\n        /* \"#utility.yul\":9676:10033   */\n    tag_169:\n        /* \"#utility.yul\":9754:9757   */\n      0x00\n        /* \"#utility.yul\":9782:9821   */\n      tag_305\n        /* \"#utility.yul\":9815:9820   */\n      dup3\n        /* \"#utility.yul\":9782:9821   */\n      tag_148\n      jump\t// in\n    tag_305:\n        /* \"#utility.yul\":9837:9898   */\n      tag_306\n        /* \"#utility.yul\":9891:9897   */\n      dup2\n        /* \"#utility.yul\":9886:9889   */\n      dup6\n        /* \"#utility.yul\":9837:9898   */\n      tag_168\n      jump\t// in\n    tag_306:\n        /* \"#utility.yul\":9830:9898   */\n      swap4\n      pop\n        /* \"#utility.yul\":9907:9972   */\n      tag_307\n        /* \"#utility.yul\":9965:9971   */\n      dup2\n        /* \"#utility.yul\":9960:9963   */\n      dup6\n        /* \"#utility.yul\":9953:9957   */\n      0x20\n        /* \"#utility.yul\":9946:9951   */\n      dup7\n        /* \"#utility.yul\":9942:9958   */\n      add\n        /* \"#utility.yul\":9907:9972   */\n      tag_150\n      jump\t// in\n    tag_307:\n        /* \"#utility.yul\":9997:10026   */\n      tag_308\n        /* \"#utility.yul\":10019:10025   */\n      dup2\n        /* \"#utility.yul\":9997:10026   */\n      tag_151\n      jump\t// in\n    tag_308:\n        /* \"#utility.yul\":9992:9995   */\n      dup5\n        /* \"#utility.yul\":9988:10027   */\n      add\n        /* \"#utility.yul\":9981:10027   */\n      swap2\n      pop\n        /* \"#utility.yul\":9758:10033   */\n      pop\n        /* \"#utility.yul\":9676:10033   */\n      swap3\n      swap2\n      pop\n      pop\n      jump\t// out\n        /* \"#utility.yul\":10039:10147   */\n    tag_170:\n        /* \"#utility.yul\":10116:10140   */\n      tag_310\n        /* \"#utility.yul\":10134:10139   */\n      dup2\n        /* \"#utility.yul\":10116:10140   */\n      tag_137\n      jump\t// in\n    tag_310:\n        /* \"#utility.yul\":10111:10114   */\n      dup3\n        /* \"#utility.yul\":10104:10141   */\n      mstore\n        /* \"#utility.yul\":10039:10147   */\n      pop\n      pop\n      jump\t// out\n        /* \"#utility.yul\":10153:10285   */\n    tag_171:\n        /* \"#utility.yul\":10246:10278   */\n      tag_312\n        /* \"#utility.yul\":10272:10277   */\n      dup2\n        /* \"#utility.yul\":10246:10278   */\n      tag_153\n      jump\t// in\n    tag_312:\n        /* \"#utility.yul\":10241:10244   */\n      dup3\n        /* \"#utility.yul\":10234:10279   */\n      mstore\n        /* \"#utility.yul\":10153:10285   */\n      pop\n      pop\n      jump\t// out\n        /* \"#utility.yul\":10291:10390   */\n    tag_172:\n        /* \"#utility.yul\":10362:10383   */\n      tag_314\n        /* \"#utility.yul\":10377:10382   */\n      dup2\n        /* \"#utility.yul\":10362:10383   */\n      tag_144\n      jump\t// in\n    tag_314:\n        /* \"#utility.yul\":10357:10360   */\n      dup3\n        /* \"#utility.yul\":10350:10384   */\n      mstore\n        /* \"#utility.yul\":10291:10390   */\n      pop\n      pop\n      jump\t// out\n        /* \"#utility.yul\":10472:11640   */\n    tag_173:\n        /* \"#utility.yul\":10595:10598   */\n      0x00\n        /* \"#utility.yul\":10631:10635   */\n      0xa0\n        /* \"#utility.yul\":10626:10629   */\n      dup4\n        /* \"#utility.yul\":10622:10636   */\n      add\n        /* \"#utility.yul\":10725:10729   */\n      0x00\n        /* \"#utility.yul\":10718:10723   */\n      dup4\n        /* \"#utility.yul\":10714:10730   */\n      add\n        /* \"#utility.yul\":10708:10731   */\n      mload\n        /* \"#utility.yul\":10778:10781   */\n      dup5\n        /* \"#utility.yul\":10772:10776   */\n      dup3\n        /* \"#utility.yul\":10768:10782   */\n      sub\n        /* \"#utility.yul\":10761:10765   */\n      0x00\n        /* \"#utility.yul\":10756:10759   */\n      dup7\n        /* \"#utility.yul\":10752:10766   */\n      add\n        /* \"#utility.yul\":10745:10783   */\n      mstore\n        /* \"#utility.yul\":10804:10877   */\n      tag_316\n        /* \"#utility.yul\":10872:10876   */\n      dup3\n        /* \"#utility.yul\":10858:10870   */\n      dup3\n        /* \"#utility.yul\":10804:10877   */\n      tag_169\n      jump\t// in\n    tag_316:\n        /* \"#utility.yul\":10796:10877   */\n      swap2\n      pop\n        /* \"#utility.yul\":10646:10888   */\n      pop\n        /* \"#utility.yul\":10971:10975   */\n      0x20\n        /* \"#utility.yul\":10964:10969   */\n      dup4\n        /* \"#utility.yul\":10960:10976   */\n      add\n        /* \"#utility.yul\":10954:10977   */\n      mload\n        /* \"#utility.yul\":10990:11053   */\n      tag_317\n        /* \"#utility.yul\":11047:11051   */\n      0x20\n        /* \"#utility.yul\":11042:11045   */\n      dup7\n        /* \"#utility.yul\":11038:11052   */\n      add\n        /* \"#utility.yul\":11024:11036   */\n      dup3\n        /* \"#utility.yul\":10990:11053   */\n      tag_170\n      jump\t// in\n    tag_317:\n        /* \"#utility.yul\":10898:11063   */\n      pop\n        /* \"#utility.yul\":11150:11154   */\n      0x40\n        /* \"#utility.yul\":11143:11148   */\n      dup4\n        /* \"#utility.yul\":11139:11155   */\n      add\n        /* \"#utility.yul\":11133:11156   */\n      mload\n        /* \"#utility.yul\":11169:11248   */\n      tag_318\n        /* \"#utility.yul\":11242:11246   */\n      0x40\n        /* \"#utility.yul\":11237:11240   */\n      dup7\n        /* \"#utility.yul\":11233:11247   */\n      add\n        /* \"#utility.yul\":11219:11231   */\n      dup3\n        /* \"#utility.yul\":11169:11248   */\n      tag_171\n      jump\t// in\n    tag_318:\n        /* \"#utility.yul\":11073:11258   */\n      pop\n        /* \"#utility.yul\":11344:11348   */\n      0x60\n        /* \"#utility.yul\":11337:11342   */\n      dup4\n        /* \"#utility.yul\":11333:11349   */\n      add\n        /* \"#utility.yul\":11327:11350   */\n      mload\n        /* \"#utility.yul\":11363:11420   */\n      tag_319\n        /* \"#utility.yul\":11414:11418   */\n      0x60\n        /* \"#utility.yul\":11409:11412   */\n      dup7\n        /* \"#utility.yul\":11405:11419   */\n      add\n        /* \"#utility.yul\":11391:11403   */\n      dup3\n        /* \"#utility.yul\":11363:11420   */\n      tag_172\n      jump\t// in\n    tag_319:\n        /* \"#utility.yul\":11268:11430   */\n      pop\n        /* \"#utility.yul\":11521:11525   */\n      0x80\n        /* \"#utility.yul\":11514:11519   */\n      dup4\n        /* \"#utility.yul\":11510:11526   */\n      add\n        /* \"#utility.yul\":11504:11527   */\n      mload\n        /* \"#utility.yul\":11540:11603   */\n      tag_320\n        /* \"#utility.yul\":11597:11601   */\n      0x80\n        /* \"#utility.yul\":11592:11595   */\n      dup7\n        /* \"#utility.yul\":11588:11602   */\n      add\n        /* \"#utility.yul\":11574:11586   */\n      dup3\n        /* \"#utility.yul\":11540:11603   */\n      tag_170\n      jump\t// in\n    tag_320:\n        /* \"#utility.yul\":11440:11613   */\n      pop\n        /* \"#utility.yul\":11630:11634   */\n      dup1\n        /* \"#utility.yul\":11623:11634   */\n      swap2\n      pop\n        /* \"#utility.yul\":10600:11640   */\n      pop\n        /* \"#utility.yul\":10472:11640   */\n      swap3\n      swap2\n      pop\n      pop\n      jump\t// out\n        /* \"#utility.yul\":11646:11930   */\n    tag_174:\n        /* \"#utility.yul\":11779:11789   */\n      0x00\n        /* \"#utility.yul\":11814:11924   */\n      tag_322\n        /* \"#utility.yul\":11920:11923   */\n      dup4\n        /* \"#utility.yul\":11912:11918   */\n      dup4\n        /* \"#utility.yul\":11814:11924   */\n      tag_173\n      jump\t// in\n    tag_322:\n        /* \"#utility.yul\":11800:11924   */\n      swap1\n      pop\n        /* \"#utility.yul\":11646:11930   */\n      swap3\n      swap2\n      pop\n      pop\n      jump\t// out\n        /* \"#utility.yul\":11936:12081   */\n    tag_175:\n        /* \"#utility.yul\":12038:12042   */\n      0x00\n        /* \"#utility.yul\":12070:12074   */\n      0x20\n        /* \"#utility.yul\":12065:12068   */\n      dup3\n        /* \"#utility.yul\":12061:12075   */\n      add\n        /* \"#utility.yul\":12053:12075   */\n      swap1\n      pop\n        /* \"#utility.yul\":11936:12081   */\n      swap2\n      swap1\n      pop\n      jump\t// out\n        /* \"#utility.yul\":12167:13334   */\n    tag_176:\n        /* \"#utility.yul\":12350:12353   */\n      0x00\n        /* \"#utility.yul\":12379:12465   */\n      tag_325\n        /* \"#utility.yul\":12459:12464   */\n      dup3\n        /* \"#utility.yul\":12379:12465   */\n      tag_165\n      jump\t// in\n    tag_325:\n        /* \"#utility.yul\":12481:12599   */\n      tag_326\n        /* \"#utility.yul\":12592:12598   */\n      dup2\n        /* \"#utility.yul\":12587:12590   */\n      dup6\n        /* \"#utility.yul\":12481:12599   */\n      tag_166\n      jump\t// in\n    tag_326:\n        /* \"#utility.yul\":12474:12599   */\n      swap4\n      pop\n        /* \"#utility.yul\":12625:12628   */\n      dup4\n        /* \"#utility.yul\":12670:12674   */\n      0x20\n        /* \"#utility.yul\":12662:12668   */\n      dup3\n        /* \"#utility.yul\":12658:12675   */\n      mul\n        /* \"#utility.yul\":12653:12656   */\n      dup6\n        /* \"#utility.yul\":12649:12676   */\n      add\n        /* \"#utility.yul\":12700:12788   */\n      tag_327\n        /* \"#utility.yul\":12782:12787   */\n      dup6\n        /* \"#utility.yul\":12700:12788   */\n      tag_167\n      jump\t// in\n    tag_327:\n        /* \"#utility.yul\":12811:12818   */\n      dup1\n        /* \"#utility.yul\":12842:12843   */\n      0x00\n        /* \"#utility.yul\":12827:13289   */\n    tag_328:\n        /* \"#utility.yul\":12852:12858   */\n      dup6\n        /* \"#utility.yul\":12849:12850   */\n      dup2\n        /* \"#utility.yul\":12846:12859   */\n      lt\n        /* \"#utility.yul\":12827:13289   */\n      iszero\n      tag_330\n      jumpi\n        /* \"#utility.yul\":12923:12932   */\n      dup5\n        /* \"#utility.yul\":12917:12921   */\n      dup5\n        /* \"#utility.yul\":12913:12933   */\n      sub\n        /* \"#utility.yul\":12908:12911   */\n      dup10\n        /* \"#utility.yul\":12901:12934   */\n      mstore\n        /* \"#utility.yul\":12974:12980   */\n      dup2\n        /* \"#utility.yul\":12968:12981   */\n      mload\n        /* \"#utility.yul\":13002:13130   */\n      tag_331\n        /* \"#utility.yul\":13125:13129   */\n      dup6\n        /* \"#utility.yul\":13110:13123   */\n      dup3\n        /* \"#utility.yul\":13002:13130   */\n      tag_174\n      jump\t// in\n    tag_331:\n        /* \"#utility.yul\":12994:13130   */\n      swap5\n      pop\n        /* \"#utility.yul\":13153:13245   */\n      tag_332\n        /* \"#utility.yul\":13238:13244   */\n      dup4\n        /* \"#utility.yul\":13153:13245   */\n      tag_175\n      jump\t// in\n    tag_332:\n        /* \"#utility.yul\":13143:13245   */\n      swap3\n      pop\n        /* \"#utility.yul\":13274:13278   */\n      0x20\n        /* \"#utility.yul\":13269:13272   */\n      dup11\n        /* \"#utility.yul\":13265:13279   */\n      add\n        /* \"#utility.yul\":13258:13279   */\n      swap10\n      pop\n        /* \"#utility.yul\":12887:13289   */\n      pop\n        /* \"#utility.yul\":12874:12875   */\n      0x01\n        /* \"#utility.yul\":12871:12872   */\n      dup2\n        /* \"#utility.yul\":12867:12876   */\n      add\n        /* \"#utility.yul\":12862:12876   */\n      swap1\n      pop\n        /* \"#utility.yul\":12827:13289   */\n      jump(tag_328)\n    tag_330:\n        /* \"#utility.yul\":12831:12845   */\n      pop\n        /* \"#utility.yul\":13305:13309   */\n      dup3\n        /* \"#utility.yul\":13298:13309   */\n      swap8\n      pop\n        /* \"#utility.yul\":13325:13328   */\n      dup8\n        /* \"#utility.yul\":13318:13328   */\n      swap6\n      pop\n        /* \"#utility.yul\":12355:13334   */\n      pop\n      pop\n      pop\n      pop\n      pop\n        /* \"#utility.yul\":12167:13334   */\n      swap3\n      swap2\n      pop\n      pop\n      jump\t// out\n        /* \"#utility.yul\":13340:13841   */\n    tag_71:\n        /* \"#utility.yul\":13547:13551   */\n      0x00\n        /* \"#utility.yul\":13585:13587   */\n      0x20\n        /* \"#utility.yul\":13574:13583   */\n      dup3\n        /* \"#utility.yul\":13570:13588   */\n      add\n        /* \"#utility.yul\":13562:13588   */\n      swap1\n      pop\n        /* \"#utility.yul\":13634:13643   */\n      dup2\n        /* \"#utility.yul\":13628:13632   */\n      dup2\n        /* \"#utility.yul\":13624:13644   */\n      sub\n        /* \"#utility.yul\":13620:13621   */\n      0x00\n        /* \"#utility.yul\":13609:13618   */\n      dup4\n        /* \"#utility.yul\":13605:13622   */\n      add\n        /* \"#utility.yul\":13598:13645   */\n      mstore\n        /* \"#utility.yul\":13662:13834   */\n      tag_334\n        /* \"#utility.yul\":13829:13833   */\n      dup2\n        /* \"#utility.yul\":13820:13826   */\n      dup5\n        /* \"#utility.yul\":13662:13834   */\n      tag_176\n      jump\t// in\n    tag_334:\n        /* \"#utility.yul\":13654:13834   */\n      swap1\n      pop\n        /* \"#utility.yul\":13340:13841   */\n      swap3\n      swap2\n      pop\n      pop\n      jump\t// out\n        /* \"#utility.yul\":13847:14027   */\n    tag_77:\n        /* \"#utility.yul\":13895:13972   */\n      0x4e487b7100000000000000000000000000000000000000000000000000000000\n        /* \"#utility.yul\":13892:13893   */\n      0x00\n        /* \"#utility.yul\":13885:13973   */\n      mstore\n        /* \"#utility.yul\":13992:13996   */\n      0x32\n        /* \"#utility.yul\":13989:13990   */\n      0x04\n        /* \"#utility.yul\":13982:13997   */\n      mstore\n        /* \"#utility.yul\":14016:14020   */\n      0x24\n        /* \"#utility.yul\":14013:14014   */\n      0x00\n        /* \"#utility.yul\":14006:14021   */\n      revert\n        /* \"#utility.yul\":14033:14213   */\n    tag_177:\n        /* \"#utility.yul\":14081:14158   */\n      0x4e487b7100000000000000000000000000000000000000000000000000000000\n        /* \"#utility.yul\":14078:14079   */\n      0x00\n        /* \"#utility.yul\":14071:14159   */\n      mstore\n        /* \"#utility.yul\":14178:14182   */\n      0x12\n        /* \"#utility.yul\":14175:14176   */\n      0x04\n        /* \"#utility.yul\":14168:14183   */\n      mstore\n        /* \"#utility.yul\":14202:14206   */\n      0x24\n        /* \"#utility.yul\":14199:14200   */\n      0x00\n        /* \"#utility.yul\":14192:14207   */\n      revert\n        /* \"#utility.yul\":14219:14399   */\n    tag_178:\n        /* \"#utility.yul\":14267:14344   */\n      0x4e487b7100000000000000000000000000000000000000000000000000000000\n        /* \"#utility.yul\":14264:14265   */\n      0x00\n        /* \"#utility.yul\":14257:14345   */\n      mstore\n        /* \"#utility.yul\":14364:14368   */\n      0x11\n        /* \"#utility.yul\":14361:14362   */\n      0x04\n        /* \"#utility.yul\":14354:14369   */\n      mstore\n        /* \"#utility.yul\":14388:14392   */\n      0x24\n        /* \"#utility.yul\":14385:14386   */\n      0x00\n        /* \"#utility.yul\":14378:14393   */\n      revert\n        /* \"#utility.yul\":14405:14590   */\n    tag_81:\n        /* \"#utility.yul\":14445:14446   */\n      0x00\n        /* \"#utility.yul\":14462:14482   */\n      tag_339\n        /* \"#utility.yul\":14480:14481   */\n      dup3\n        /* \"#utility.yul\":14462:14482   */\n      tag_137\n      jump\t// in\n    tag_339:\n        /* \"#utility.yul\":14457:14482   */\n      swap2\n      pop\n        /* \"#utility.yul\":14496:14516   */\n      tag_340\n        /* \"#utility.yul\":14514:14515   */\n      dup4\n        /* \"#utility.yul\":14496:14516   */\n      tag_137\n      jump\t// in\n    tag_340:\n        /* \"#utility.yul\":14491:14516   */\n      swap3\n      pop\n        /* \"#utility.yul\":14535:14536   */\n      dup3\n        /* \"#utility.yul\":14525:14560   */\n      tag_341\n      jumpi\n        /* \"#utility.yul\":14540:14558   */\n      tag_342\n      tag_177\n      jump\t// in\n    tag_342:\n        /* \"#utility.yul\":14525:14560   */\n    tag_341:\n        /* \"#utility.yul\":14582:14583   */\n      dup3\n        /* \"#utility.yul\":14579:14580   */\n      dup3\n        /* \"#utility.yul\":14575:14584   */\n      div\n        /* \"#utility.yul\":14570:14584   */\n      swap1\n      pop\n        /* \"#utility.yul\":14405:14590   */\n      swap3\n      swap2\n      pop\n      pop\n      jump\t// out\n        /* \"#utility.yul\":14596:14776   */\n    tag_179:\n        /* \"#utility.yul\":14644:14721   */\n      0x4e487b7100000000000000000000000000000000000000000000000000000000\n        /* \"#utility.yul\":14641:14642   */\n      0x00\n        /* \"#utility.yul\":14634:14722   */\n      mstore\n        /* \"#utility.yul\":14741:14745   */\n      0x22\n        /* \"#utility.yul\":14738:14739   */\n      0x04\n        /* \"#utility.yul\":14731:14746   */\n      mstore\n        /* \"#utility.yul\":14765:14769   */\n      0x24\n        /* \"#utility.yul\":14762:14763   */\n      0x00\n        /* \"#utility.yul\":14755:14770   */\n      revert\n        /* \"#utility.yul\":14782:15102   */\n    tag_90:\n        /* \"#utility.yul\":14826:14832   */\n      0x00\n        /* \"#utility.yul\":14863:14864   */\n      0x02\n        /* \"#utility.yul\":14857:14861   */\n      dup3\n        /* \"#utility.yul\":14853:14865   */\n      div\n        /* \"#utility.yul\":14843:14865   */\n      swap1\n      pop\n        /* \"#utility.yul\":14910:14911   */\n      0x01\n        /* \"#utility.yul\":14904:14908   */\n      dup3\n        /* \"#utility.yul\":14900:14912   */\n      and\n        /* \"#utility.yul\":14931:14949   */\n      dup1\n        /* \"#utility.yul\":14921:15002   */\n      tag_345\n      jumpi\n        /* \"#utility.yul\":14987:14991   */\n      0x7f\n        /* \"#utility.yul\":14979:14985   */\n      dup3\n        /* \"#utility.yul\":14975:14992   */\n      and\n        /* \"#utility.yul\":14965:14992   */\n      swap2\n      pop\n        /* \"#utility.yul\":14921:15002   */\n    tag_345:\n        /* \"#utility.yul\":15049:15051   */\n      0x20\n        /* \"#utility.yul\":15041:15047   */\n      dup3\n        /* \"#utility.yul\":15038:15052   */\n      lt\n        /* \"#utility.yul\":15018:15036   */\n      dup2\n        /* \"#utility.yul\":15015:15053   */\n      sub\n        /* \"#utility.yul\":15012:15096   */\n      tag_346\n      jumpi\n        /* \"#utility.yul\":15068:15086   */\n      tag_347\n      tag_179\n      jump\t// in\n    tag_347:\n        /* \"#utility.yul\":15012:15096   */\n    tag_346:\n        /* \"#utility.yul\":14833:15102   */\n      pop\n        /* \"#utility.yul\":14782:15102   */\n      swap2\n      swap1\n      pop\n      jump\t// out\n        /* \"#utility.yul\":15108:15249   */\n    tag_180:\n        /* \"#utility.yul\":15157:15161   */\n      0x00\n        /* \"#utility.yul\":15180:15183   */\n      dup2\n        /* \"#utility.yul\":15172:15183   */\n      swap1\n      pop\n        /* \"#utility.yul\":15203:15206   */\n      dup2\n        /* \"#utility.yul\":15200:15201   */\n      0x00\n        /* \"#utility.yul\":15193:15207   */\n      mstore\n        /* \"#utility.yul\":15237:15241   */\n      0x20\n        /* \"#utility.yul\":15234:15235   */\n      0x00\n        /* \"#utility.yul\":15224:15242   */\n      keccak256\n        /* \"#utility.yul\":15216:15242   */\n      swap1\n      pop\n        /* \"#utility.yul\":15108:15249   */\n      swap2\n      swap1\n      pop\n      jump\t// out\n        /* \"#utility.yul\":15255:15348   */\n    tag_181:\n        /* \"#utility.yul\":15292:15298   */\n      0x00\n        /* \"#utility.yul\":15339:15341   */\n      0x20\n        /* \"#utility.yul\":15334:15336   */\n      0x1f\n        /* \"#utility.yul\":15327:15332   */\n      dup4\n        /* \"#utility.yul\":15323:15337   */\n      add\n        /* \"#utility.yul\":15319:15342   */\n      div\n        /* \"#utility.yul\":15309:15342   */\n      swap1\n      pop\n        /* \"#utility.yul\":15255:15348   */\n      swap2\n      swap1\n      pop\n      jump\t// out\n        /* \"#utility.yul\":15354:15461   */\n    tag_182:\n        /* \"#utility.yul\":15398:15406   */\n      0x00\n        /* \"#utility.yul\":15448:15453   */\n      dup3\n        /* \"#utility.yul\":15442:15446   */\n      dup3\n        /* \"#utility.yul\":15438:15454   */\n      shl\n        /* \"#utility.yul\":15417:15454   */\n      swap1\n      pop\n        /* \"#utility.yul\":15354:15461   */\n      swap3\n      swap2\n      pop\n      pop\n      jump\t// out\n        /* \"#utility.yul\":15467:15860   */\n    tag_183:\n        /* \"#utility.yul\":15536:15542   */\n      0x00\n        /* \"#utility.yul\":15586:15587   */\n      0x08\n        /* \"#utility.yul\":15574:15584   */\n      dup4\n        /* \"#utility.yul\":15570:15588   */\n      mul\n        /* \"#utility.yul\":15609:15706   */\n      tag_352\n        /* \"#utility.yul\":15639:15705   */\n      0xffffffffffffffffffffffffffffffffffffffffffffffffffffffffffffffff\n        /* \"#utility.yul\":15628:15637   */\n      dup3\n        /* \"#utility.yul\":15609:15706   */\n      tag_182\n      jump\t// in\n    tag_352:\n        /* \"#utility.yul\":15727:15766   */\n      tag_353\n        /* \"#utility.yul\":15757:15765   */\n      dup7\n        /* \"#utility.yul\":15746:15755   */\n      dup4\n        /* \"#utility.yul\":15727:15766   */\n      tag_182\n      jump\t// in\n    tag_353:\n        /* \"#utility.yul\":15715:15766   */\n      swap6\n      pop\n        /* \"#utility.yul\":15799:15803   */\n      dup1\n        /* \"#utility.yul\":15795:15804   */\n      not\n        /* \"#utility.yul\":15788:15793   */\n      dup5\n        /* \"#utility.yul\":15784:15805   */\n      and\n        /* \"#utility.yul\":15775:15805   */\n      swap4\n      pop\n        /* \"#utility.yul\":15848:15852   */\n      dup1\n        /* \"#utility.yul\":15838:15846   */\n      dup7\n        /* \"#utility.yul\":15834:15853   */\n      and\n        /* \"#utility.yul\":15827:15832   */\n      dup5\n        /* \"#utility.yul\":15824:15854   */\n      or\n        /* \"#utility.yul\":15814:15854   */\n      swap3\n      pop\n        /* \"#utility.yul\":15543:15860   */\n      pop\n      pop\n        /* \"#utility.yul\":15467:15860   */\n      swap4\n      swap3\n      pop\n      pop\n      pop\n      jump\t// out\n        /* \"#utility.yul\":15866:15926   */\n    tag_184:\n        /* \"#utility.yul\":15894:15897   */\n      0x00\n        /* \"#utility.yul\":15915:15920   */\n      dup2\n        /* \"#utility.yul\":15908:15920   */\n      swap1\n      pop\n        /* \"#utility.yul\":15866:15926   */\n      swap2\n      swap1\n      pop\n      jump\t// out\n        /* \"#utility.yul\":15932:16074   */\n    tag_185:\n        /* \"#utility.yul\":15982:15991   */\n      0x00\n        /* \"#utility.yul\":16015:16068   */\n      tag_356\n        /* \"#utility.yul\":16033:16067   */\n      tag_357\n        /* \"#utility.yul\":16042:16066   */\n      tag_358\n        /* \"#utility.yul\":16060:16065   */\n      dup5\n        /* \"#utility.yul\":16042:16066   */\n      tag_137\n      jump\t// in\n    tag_358:\n        /* \"#utility.yul\":16033:16067   */\n      tag_184\n      jump\t// in\n    tag_357:\n        /* \"#utility.yul\":16015:16068   */\n      tag_137\n      jump\t// in\n    tag_356:\n        /* \"#utility.yul\":16002:16068   */\n      swap1\n      pop\n        /* \"#utility.yul\":15932:16074   */\n      swap2\n      swap1\n      pop\n      jump\t// out\n        /* \"#utility.yul\":16080:16155   */\n    tag_186:\n        /* \"#utility.yul\":16123:16126   */\n      0x00\n        /* \"#utility.yul\":16144:16149   */\n      dup2\n        /* \"#utility.yul\":16137:16149   */\n      swap1\n      pop\n        /* \"#utility.yul\":16080:16155   */\n      swap2\n      swap1\n      pop\n      jump\t// out\n        /* \"#utility.yul\":16161:16430   */\n    tag_187:\n        /* \"#utility.yul\":16271:16310   */\n      tag_361\n        /* \"#utility.yul\":16302:16309   */\n      dup4\n        /* \"#utility.yul\":16271:16310   */\n      tag_185\n      jump\t// in\n    tag_361:\n        /* \"#utility.yul\":16332:16423   */\n      tag_362\n        /* \"#utility.yul\":16381:16422   */\n      tag_363\n        /* \"#utility.yul\":16405:16421   */\n      dup3\n        /* \"#utility.yul\":16381:16422   */\n      tag_186\n      jump\t// in\n    tag_363:\n        /* \"#utility.yul\":16373:16379   */\n      dup5\n        /* \"#utility.yul\":16366:16370   */\n      dup5\n        /* \"#utility.yul\":16360:16371   */\n      sload\n        /* \"#utility.yul\":16332:16423   */\n      tag_183\n      jump\t// in\n    tag_362:\n        /* \"#utility.yul\":16326:16330   */\n      dup3\n        /* \"#utility.yul\":16319:16424   */\n      sstore\n        /* \"#utility.yul\":16237:16430   */\n      pop\n        /* \"#utility.yul\":16161:16430   */\n      pop\n      pop\n      pop\n      jump\t// out\n        /* \"#utility.yul\":16436:16509   */\n    tag_188:\n        /* \"#utility.yul\":16481:16484   */\n      0x00\n        /* \"#utility.yul\":16436:16509   */\n      swap1\n      jump\t// out\n        /* \"#utility.yul\":16515:16704   */\n    tag_189:\n        /* \"#utility.yul\":16592:16624   */\n      tag_366\n      tag_188\n      jump\t// in\n    tag_366:\n        /* \"#utility.yul\":16633:16698   */\n      tag_367\n        /* \"#utility.yul\":16691:16697   */\n      dup2\n        /* \"#utility.yul\":16683:16689   */\n      dup5\n        /* \"#utility.yul\":16677:16681   */\n      dup5\n        /* \"#utility.yul\":16633:16698   */\n      tag_187\n      jump\t// in\n    tag_367:\n        /* \"#utility.yul\":16568:16704   */\n      pop\n        /* \"#utility.yul\":16515:16704   */\n      pop\n      pop\n      jump\t// out\n        /* \"#utility.yul\":16710:16896   */\n    tag_190:\n        /* \"#utility.yul\":16770:16890   */\n    tag_369:\n        /* \"#utility.yul\":16787:16790   */\n      dup2\n        /* \"#utility.yul\":16780:16785   */\n      dup2\n        /* \"#utility.yul\":16777:16791   */\n      lt\n        /* \"#utility.yul\":16770:16890   */\n      iszero\n      tag_371\n      jumpi\n        /* \"#utility.yul\":16841:16880   */\n      tag_372\n        /* \"#utility.yul\":16878:16879   */\n      0x00\n        /* \"#utility.yul\":16871:16876   */\n      dup3\n        /* \"#utility.yul\":16841:16880   */\n      tag_189\n      jump\t// in\n    tag_372:\n        /* \"#utility.yul\":16814:16815   */\n      0x01\n        /* \"#utility.yul\":16807:16812   */\n      dup2\n        /* \"#utility.yul\":16803:16816   */\n      add\n        /* \"#utility.yul\":16794:16816   */\n      swap1\n      pop\n        /* \"#utility.yul\":16770:16890   */\n      jump(tag_369)\n    tag_371:\n        /* \"#utility.yul\":16710:16896   */\n      pop\n      pop\n      jump\t// out\n        /* \"#utility.yul\":16902:17445   */\n    tag_191:\n        /* \"#utility.yul\":17003:17005   */\n      0x1f\n        /* \"#utility.yul\":16998:17001   */\n      dup3\n        /* \"#utility.yul\":16995:17006   */\n      gt\n        /* \"#utility.yul\":16992:17438   */\n      iszero\n      tag_374\n      jumpi\n        /* \"#utility.yul\":17037:17075   */\n      tag_375\n        /* \"#utility.yul\":17069:17074   */\n      dup2\n        /* \"#utility.yul\":17037:17075   */\n      tag_180\n      jump\t// in\n    tag_375:\n        /* \"#utility.yul\":17121:17150   */\n      tag_376\n        /* \"#utility.yul\":17139:17149   */\n      dup5\n        /* \"#utility.yul\":17121:17150   */\n      tag_181\n      jump\t// in\n    tag_376:\n        /* \"#utility.yul\":17111:17119   */\n      dup2\n        /* \"#utility.yul\":17107:17151   */\n      add\n        /* \"#utility.yul\":17304:17306   */\n      0x20\n        /* \"#utility.yul\":17292:17302   */\n      dup6\n        /* \"#utility.yul\":17289:17307   */\n      lt\n        /* \"#utility.yul\":17286:17335   */\n      iszero\n      tag_377\n      jumpi\n        /* \"#utility.yul\":17325:17333   */\n      dup2\n        /* \"#utility.yul\":17310:17333   */\n      swap1\n      pop\n        /* \"#utility.yul\":17286:17335   */\n    tag_377:\n        /* \"#utility.yul\":17348:17428   */\n      tag_378\n        /* \"#utility.yul\":17404:17426   */\n      tag_379\n        /* \"#utility.yul\":17422:17425   */\n      dup6\n        /* \"#utility.yul\":17404:17426   */\n      tag_181\n      jump\t// in\n    tag_379:\n        /* \"#utility.yul\":17394:17402   */\n      dup4\n        /* \"#utility.yul\":17390:17427   */\n      add\n        /* \"#utility.yul\":17377:17388   */\n      dup3\n        /* \"#utility.yul\":17348:17428   */\n      tag_190\n      jump\t// in\n    tag_378:\n        /* \"#utility.yul\":17007:17438   */\n      pop\n      pop\n        /* \"#utility.yul\":16992:17438   */\n    tag_374:\n        /* \"#utility.yul\":16902:17445   */\n      pop\n      pop\n      pop\n      jump\t// out\n        /* \"#utility.yul\":17451:17568   */\n    tag_192:\n        /* \"#utility.yul\":17505:17513   */\n      0x00\n        /* \"#utility.yul\":17555:17560   */\n      dup3\n        /* \"#utility.yul\":17549:17553   */\n      dup3\n        /* \"#utility.yul\":17545:17561   */\n      shr\n        /* \"#utility.yul\":17524:17561   */\n      swap1\n      pop\n        /* \"#utility.yul\":17451:17568   */\n      swap3\n      swap2\n      pop\n      pop\n      jump\t// out\n        /* \"#utility.yul\":17574:17743   */\n    tag_193:\n        /* \"#utility.yul\":17618:17624   */\n      0x00\n        /* \"#utility.yul\":17651:17702   */\n      tag_382\n        /* \"#utility.yul\":17699:17700   */\n      0x00\n        /* \"#utility.yul\":17695:17701   */\n      not\n        /* \"#utility.yul\":17687:17692   */\n      dup5\n        /* \"#utility.yul\":17684:17685   */\n      0x08\n        /* \"#utility.yul\":17680:17693   */\n      mul\n        /* \"#utility.yul\":17651:17702   */\n      tag_192\n      jump\t// in\n    tag_382:\n        /* \"#utility.yul\":17647:17703   */\n      not\n        /* \"#utility.yul\":17732:17736   */\n      dup1\n        /* \"#utility.yul\":17726:17730   */\n      dup4\n        /* \"#utility.yul\":17722:17737   */\n      and\n        /* \"#utility.yul\":17712:17737   */\n      swap2\n      pop\n        /* \"#utility.yul\":17625:17743   */\n      pop\n        /* \"#utility.yul\":17574:17743   */\n      swap3\n      swap2\n      pop\n      pop\n      jump\t// out\n        /* \"#utility.yul\":17748:18043   */\n    tag_194:\n        /* \"#utility.yul\":17824:17828   */\n      0x00\n        /* \"#utility.yul\":17970:17999   */\n      tag_384\n        /* \"#utility.yul\":17995:17998   */\n      dup4\n        /* \"#utility.yul\":17989:17993   */\n      dup4\n        /* \"#utility.yul\":17970:17999   */\n      tag_193\n      jump\t// in\n    tag_384:\n        /* \"#utility.yul\":17962:17999   */\n      swap2\n      pop\n        /* \"#utility.yul\":18032:18035   */\n      dup3\n        /* \"#utility.yul\":18029:18030   */\n      0x02\n        /* \"#utility.yul\":18025:18036   */\n      mul\n        /* \"#utility.yul\":18019:18023   */\n      dup3\n        /* \"#utility.yul\":18016:18037   */\n      or\n        /* \"#utility.yul\":18008:18037   */\n      swap1\n      pop\n        /* \"#utility.yul\":17748:18043   */\n      swap3\n      swap2\n      pop\n      pop\n      jump\t// out\n        /* \"#utility.yul\":18048:19443   */\n    tag_100:\n        /* \"#utility.yul\":18165:18202   */\n      tag_386\n        /* \"#utility.yul\":18198:18201   */\n      dup3\n        /* \"#utility.yul\":18165:18202   */\n      tag_148\n      jump\t// in\n    tag_386:\n        /* \"#utility.yul\":18267:18285   */\n      0xffffffffffffffff\n        /* \"#utility.yul\":18259:18265   */\n      dup2\n        /* \"#utility.yul\":18256:18286   */\n      gt\n        /* \"#utility.yul\":18253:18309   */\n      iszero\n      tag_387\n      jumpi\n        /* \"#utility.yul\":18289:18307   */\n      tag_388\n      tag_115\n      jump\t// in\n    tag_388:\n        /* \"#utility.yul\":18253:18309   */\n    tag_387:\n        /* \"#utility.yul\":18333:18371   */\n      tag_389\n        /* \"#utility.yul\":18365:18369   */\n      dup3\n        /* \"#utility.yul\":18359:18370   */\n      sload\n        /* \"#utility.yul\":18333:18371   */\n      tag_90\n      jump\t// in\n    tag_389:\n        /* \"#utility.yul\":18418:18485   */\n      tag_390\n        /* \"#utility.yul\":18478:18484   */\n      dup3\n        /* \"#utility.yul\":18470:18476   */\n      dup3\n        /* \"#utility.yul\":18464:18468   */\n      dup6\n        /* \"#utility.yul\":18418:18485   */\n      tag_191\n      jump\t// in\n    tag_390:\n        /* \"#utility.yul\":18512:18513   */\n      0x00\n        /* \"#utility.yul\":18536:18540   */\n      0x20\n        /* \"#utility.yul\":18523:18540   */\n      swap1\n      pop\n        /* \"#utility.yul\":18568:18570   */\n      0x1f\n        /* \"#utility.yul\":18560:18566   */\n      dup4\n        /* \"#utility.yul\":18557:18571   */\n      gt\n        /* \"#utility.yul\":18585:18586   */\n      0x01\n        /* \"#utility.yul\":18580:19198   */\n      dup2\n      eq\n      tag_392\n      jumpi\n        /* \"#utility.yul\":19242:19243   */\n      0x00\n        /* \"#utility.yul\":19259:19265   */\n      dup5\n        /* \"#utility.yul\":19256:19333   */\n      iszero\n      tag_393\n      jumpi\n        /* \"#utility.yul\":19308:19317   */\n      dup3\n        /* \"#utility.yul\":19303:19306   */\n      dup8\n        /* \"#utility.yul\":19299:19318   */\n      add\n        /* \"#utility.yul\":19293:19319   */\n      mload\n        /* \"#utility.yul\":19284:19319   */\n      swap1\n      pop\n        /* \"#utility.yul\":19256:19333   */\n    tag_393:\n        /* \"#utility.yul\":19359:19426   */\n      tag_394\n        /* \"#utility.yul\":19419:19425   */\n      dup6\n        /* \"#utility.yul\":19412:19417   */\n      dup3\n        /* \"#utility.yul\":19359:19426   */\n      tag_194\n      jump\t// in\n    tag_394:\n        /* \"#utility.yul\":19353:19357   */\n      dup7\n        /* \"#utility.yul\":19346:19427   */\n      sstore\n        /* \"#utility.yul\":19215:19437   */\n      pop\n        /* \"#utility.yul\":18550:19437   */\n      jump(tag_391)\n        /* \"#utility.yul\":18580:19198   */\n    tag_392:\n        /* \"#utility.yul\":18632:18636   */\n      0x1f\n        /* \"#utility.yul\":18628:18637   */\n      not\n        /* \"#utility.yul\":18620:18626   */\n      dup5\n        /* \"#utility.yul\":18616:18638   */\n      and\n        /* \"#utility.yul\":18666:18703   */\n      tag_395\n        /* \"#utility.yul\":18698:18702   */\n      dup7\n        /* \"#utility.yul\":18666:18703   */\n      tag_180\n      jump\t// in\n    tag_395:\n        /* \"#utility.yul\":18725:18726   */\n      0x00\n        /* \"#utility.yul\":18739:18947   */\n    tag_396:\n        /* \"#utility.yul\":18753:18760   */\n      dup3\n        /* \"#utility.yul\":18750:18751   */\n      dup2\n        /* \"#utility.yul\":18747:18761   */\n      lt\n        /* \"#utility.yul\":18739:18947   */\n      iszero\n      tag_398\n      jumpi\n        /* \"#utility.yul\":18832:18841   */\n      dup5\n        /* \"#utility.yul\":18827:18830   */\n      dup10\n        /* \"#utility.yul\":18823:18842   */\n      add\n        /* \"#utility.yul\":18817:18843   */\n      mload\n        /* \"#utility.yul\":18809:18815   */\n      dup3\n        /* \"#utility.yul\":18802:18844   */\n      sstore\n        /* \"#utility.yul\":18883:18884   */\n      0x01\n        /* \"#utility.yul\":18875:18881   */\n      dup3\n        /* \"#utility.yul\":18871:18885   */\n      add\n        /* \"#utility.yul\":18861:18885   */\n      swap2\n      pop\n        /* \"#utility.yul\":18930:18932   */\n      0x20\n        /* \"#utility.yul\":18919:18928   */\n      dup6\n        /* \"#utility.yul\":18915:18933   */\n      add\n        /* \"#utility.yul\":18902:18933   */\n      swap5\n      pop\n        /* \"#utility.yul\":18776:18780   */\n      0x20\n        /* \"#utility.yul\":18773:18774   */\n      dup2\n        /* \"#utility.yul\":18769:18781   */\n      add\n        /* \"#utility.yul\":18764:18781   */\n      swap1\n      pop\n        /* \"#utility.yul\":18739:18947   */\n      jump(tag_396)\n    tag_398:\n        /* \"#utility.yul\":18975:18981   */\n      dup7\n        /* \"#utility.yul\":18966:18973   */\n      dup4\n        /* \"#utility.yul\":18963:18982   */\n      lt\n        /* \"#utility.yul\":18960:19139   */\n      iszero\n      tag_399\n      jumpi\n        /* \"#utility.yul\":19033:19042   */\n      dup5\n        /* \"#utility.yul\":19028:19031   */\n      dup10\n        /* \"#utility.yul\":19024:19043   */\n      add\n        /* \"#utility.yul\":19018:19044   */\n      mload\n        /* \"#utility.yul\":19076:19124   */\n      tag_400\n        /* \"#utility.yul\":19118:19122   */\n      0x1f\n        /* \"#utility.yul\":19110:19116   */\n      dup10\n        /* \"#utility.yul\":19106:19123   */\n      and\n        /* \"#utility.yul\":19095:19104   */\n      dup3\n        /* \"#utility.yul\":19076:19124   */\n      tag_193\n      jump\t// in\n    tag_400:\n        /* \"#utility.yul\":19068:19074   */\n      dup4\n        /* \"#utility.yul\":19061:19125   */\n      sstore\n        /* \"#utility.yul\":18983:19139   */\n      pop\n        /* \"#utility.yul\":18960:19139   */\n    tag_399:\n        /* \"#utility.yul\":19185:19186   */\n      0x01\n        /* \"#utility.yul\":19181:19182   */\n      0x02\n        /* \"#utility.yul\":19173:19179   */\n      dup9\n        /* \"#utility.yul\":19169:19183   */\n      mul\n        /* \"#utility.yul\":19165:19187   */\n      add\n        /* \"#utility.yul\":19159:19163   */\n      dup9\n        /* \"#utility.yul\":19152:19188   */\n      sstore\n        /* \"#utility.yul\":18587:19198   */\n      pop\n      pop\n      pop\n        /* \"#utility.yul\":18550:19437   */\n    tag_391:\n      pop\n        /* \"#utility.yul\":18140:19443   */\n      pop\n      pop\n      pop\n        /* \"#utility.yul\":18048:19443   */\n      pop\n      pop\n      jump\t// out\n        /* \"#utility.yul\":19449:19682   */\n    tag_104:\n        /* \"#utility.yul\":19488:19491   */\n      0x00\n        /* \"#utility.yul\":19511:19535   */\n      tag_402\n        /* \"#utility.yul\":19529:19534   */\n      dup3\n        /* \"#utility.yul\":19511:19535   */\n      tag_137\n      jump\t// in\n    tag_402:\n        /* \"#utility.yul\":19502:19535   */\n      swap2\n      pop\n        /* \"#utility.yul\":19557:19623   */\n      0xffffffffffffffffffffffffffffffffffffffffffffffffffffffffffffffff\n        /* \"#utility.yul\":19550:19555   */\n      dup3\n        /* \"#utility.yul\":19547:19624   */\n      sub\n        /* \"#utility.yul\":19544:19647   */\n      tag_403\n      jumpi\n        /* \"#utility.yul\":19627:19645   */\n      tag_404\n      tag_178\n      jump\t// in\n    tag_404:\n        /* \"#utility.yul\":19544:19647   */\n    tag_403:\n        /* \"#utility.yul\":19674:19675   */\n      0x01\n        /* \"#utility.yul\":19667:19672   */\n      dup3\n        /* \"#utility.yul\":19663:19676   */\n      add\n        /* \"#utility.yul\":19656:19676   */\n      swap1\n      pop\n        /* \"#utility.yul\":19449:19682   */\n      swap2\n      swap1\n      pop\n      jump\t// out\n\n    auxdata: 0xa2646970667358221220f08a101aceab0ec7be4917345f784d897631c5b91a1d883f1353b50ee623066b64736f6c63430008180033\n}\n","bytecode":{"linkReferences":{},"object":"608060405234801562000010575f80fd5b506040516200162438038062001624833981810160405281019062000036919062000122565b8060015f6101000a81548173ffffffffffffffffffffffffffffffffffffffff021916908373ffffffffffffffffffffffffffffffffffffffff16021790555081600281905550505062000167565b5f80fd5b5f819050919050565b6200009d8162000089565b8114620000a8575f80fd5b50565b5f81519050620000bb8162000092565b92915050565b5f73ffffffffffffffffffffffffffffffffffffffff82169050919050565b5f620000ec82620000c1565b9050919050565b620000fe81620000e0565b811462000109575f80fd5b50565b5f815190506200011c81620000f3565b92915050565b5f80604083850312156200013b576200013a62000085565b5b5f6200014a85828601620000ab565b92505060206200015d858286016200010c565b9150509250929050565b6114af80620001755f395ff3fe6080604052600436106100a6575f3560e01c806382fde0931161006357806382fde093146101d05780638a9cfd55146101fa578063937e09b114610222578063d7bb99ba1461024c578063d7d1bbdb14610256578063fb1a002a1461027e576100a6565b806303441006146100aa5780630a144391146100d25780633410452a1461010e5780634051ddac14610138578063481c6a751461016657806381d12c5814610190575b5f80fd5b3480156100b5575f80fd5b506100d060048036038101906100cb9190610aa7565b6102a8565b005b3480156100dd575f80fd5b506100f860048036038101906100f39190610b2c565b6103e6565b6040516101059190610b71565b60405180910390f35b348015610119575f80fd5b50610122610403565b60405161012f9190610b99565b60405180910390f35b348015610143575f80fd5b5061014c61040e565b60405161015d959493929190610bc1565b60405180910390f35b348015610171575f80fd5b5061017a610452565b6040516101879190610c12565b60405180910390f35b34801561019b575f80fd5b506101b660048036038101906101b19190610aa7565b610477565b6040516101c7959493929190610cd5565b60405180910390f35b3480156101db575f80fd5b506101e4610569565b6040516101f19190610b99565b60405180910390f35b348015610205575f80fd5b50610220600480360381019061021b9190610e83565b61056f565b005b34801561022d575f80fd5b5061023661066e565b6040516102439190610b99565b60405180910390f35b610254610674565b005b348015610261575f80fd5b5061027c60048036038101906102779190610aa7565b6106ef565b005b348015610289575f80fd5b5061029261082c565b60405161029f9190611092565b60405180910390f35b3373ffffffffffffffffffffffffffffffffffffffff1660015f9054906101000a900473ffffffffffffffffffffffffffffffffffffffff1673ffffffffffffffffffffffffffffffffffffffff1614610300575f80fd5b5f808281548110610314576103136110b2565b5b905f5260205f20906005020190508060020160149054906101000a900460ff161561033d575f80fd5b600260045461034c9190611139565b81600301541161035a575f80fd5b806002015f9054906101000a900473ffffffffffffffffffffffffffffffffffffffff1673ffffffffffffffffffffffffffffffffffffffff166108fc826001015490811502906040515f60405180830381858888f193505050501580156103c4573d5f803e3d5ffd5b5060018160020160146101000a81548160ff0219169083151502179055505050565b6003602052805f5260405f205f915054906101000a900460ff1681565b5f8080549050905090565b5f805f805f600254475f8054905060045460015f9054906101000a900473ffffffffffffffffffffffffffffffffffffffff16945094509450945094509091929394565b60015f9054906101000a900473ffffffffffffffffffffffffffffffffffffffff1681565b5f8181548110610485575f80fd5b905f5260205f2090600502015f91509050805f0180546104a490611196565b80601f01602080910402602001604051908101604052809291908181526020018280546104d090611196565b801561051b5780601f106104f25761010080835404028352916020019161051b565b820191905f5260205f20905b8154815290600101906020018083116104fe57829003601f168201915b505050505090806001015490806002015f9054906101000a900473ffffffffffffffffffffffffffffffffffffffff16908060020160149054906101000a900460ff16908060030154905085565b60045481565b3373ffffffffffffffffffffffffffffffffffffffff1660015f9054906101000a900473ffffffffffffffffffffffffffffffffffffffff1673ffffffffffffffffffffffffffffffffffffffff16146105c7575f80fd5b5f8060018160018154018082558091505003905f5260205f209060050201905083815f0190816105f79190611363565b5082816001018190555081816002015f6101000a81548173ffffffffffffffffffffffffffffffffffffffff021916908373ffffffffffffffffffffffffffffffffffffffff1602179055505f8160020160146101000a81548160ff0219169083151502179055505f816003018190555050505050565b60025481565b6002543411610681575f80fd5b600160035f3373ffffffffffffffffffffffffffffffffffffffff1673ffffffffffffffffffffffffffffffffffffffff1681526020019081526020015f205f6101000a81548160ff02191690831515021790555060045f8154809291906106e890611432565b9190505550565b60035f3373ffffffffffffffffffffffffffffffffffffffff1673ffffffffffffffffffffffffffffffffffffffff1681526020019081526020015f205f9054906101000a900460ff16610741575f80fd5b5f808281548110610755576107546110b2565b5b905f5260205f2090600502019050806004015f3373ffffffffffffffffffffffffffffffffffffffff1673ffffffffffffffffffffffffffffffffffffffff1681526020019081526020015f205f9054906101000a900460ff16156107b8575f80fd5b6001816004015f3373ffffffffffffffffffffffffffffffffffffffff1673ffffffffffffffffffffffffffffffffffffffff1681526020019081526020015f205f6101000a81548160ff021916908315150217905550806003015f81548092919061082390611432565b91905055505050565b60605f808054905067ffffffffffffffff81111561084d5761084c610d35565b5b60405190808252806020026020018201604052801561088657816020015b610873610a20565b81526020019060019003908161086b5790505b5090505f5b5f80549050811015610a18575f8082815481106108ab576108aa6110b2565b5b905f5260205f20906005020190506108c1610a20565b815f0180546108cf90611196565b80601f01602080910402602001604051908101604052809291908181526020018280546108fb90611196565b80156109465780601f1061091d57610100808354040283529160200191610946565b820191905f5260205f20905b81548152906001019060200180831161092957829003601f168201915b5050505050815f01819052508160010154816020018181525050816002015f9054906101000a900473ffffffffffffffffffffffffffffffffffffffff16816040019073ffffffffffffffffffffffffffffffffffffffff16908173ffffffffffffffffffffffffffffffffffffffff16815250508160020160149054906101000a900460ff168160600190151590811515815250508160030154816080018181525050808484815181106109fe576109fd6110b2565b5b60200260200101819052505050808060010191505061088b565b508091505090565b6040518060a00160405280606081526020015f81526020015f73ffffffffffffffffffffffffffffffffffffffff1681526020015f151581526020015f81525090565b5f604051905090565b5f80fd5b5f80fd5b5f819050919050565b610a8681610a74565b8114610a90575f80fd5b50565b5f81359050610aa181610a7d565b92915050565b5f60208284031215610abc57610abb610a6c565b5b5f610ac984828501610a93565b91505092915050565b5f73ffffffffffffffffffffffffffffffffffffffff82169050919050565b5f610afb82610ad2565b9050919050565b610b0b81610af1565b8114610b15575f80fd5b50565b5f81359050610b2681610b02565b92915050565b5f60208284031215610b4157610b40610a6c565b5b5f610b4e84828501610b18565b91505092915050565b5f8115159050919050565b610b6b81610b57565b82525050565b5f602082019050610b845f830184610b62565b92915050565b610b9381610a74565b82525050565b5f602082019050610bac5f830184610b8a565b92915050565b610bbb81610af1565b82525050565b5f60a082019050610bd45f830188610b8a565b610be16020830187610b8a565b610bee6040830186610b8a565b610bfb6060830185610b8a565b610c086080830184610bb2565b9695505050505050565b5f602082019050610c255f830184610bb2565b92915050565b5f81519050919050565b5f82825260208201905092915050565b5f5b83811015610c62578082015181840152602081019050610c47565b5f8484015250505050565b5f601f19601f8301169050919050565b5f610c8782610c2b565b610c918185610c35565b9350610ca1818560208601610c45565b610caa81610c6d565b840191505092915050565b5f610cbf82610ad2565b9050919050565b610ccf81610cb5565b82525050565b5f60a0820190508181035f830152610ced8188610c7d565b9050610cfc6020830187610b8a565b610d096040830186610cc6565b610d166060830185610b62565b610d236080830184610b8a565b9695505050505050565b5f80fd5b5f80fd5b7f4e487b71000000000000000000000000000000000000000000000000000000005f52604160045260245ffd5b610d6b82610c6d565b810181811067ffffffffffffffff82111715610d8a57610d89610d35565b5b80604052505050565b5f610d9c610a63565b9050610da88282610d62565b919050565b5f67ffffffffffffffff821115610dc757610dc6610d35565b5b610dd082610c6d565b9050602081019050919050565b828183375f83830152505050565b5f610dfd610df884610dad565b610d93565b905082815260208101848484011115610e1957610e18610d31565b5b610e24848285610ddd565b509392505050565b5f82601f830112610e4057610e3f610d2d565b5b8135610e50848260208601610deb565b91505092915050565b610e6281610cb5565b8114610e6c575f80fd5b50565b5f81359050610e7d81610e59565b92915050565b5f805f60608486031215610e9a57610e99610a6c565b5b5f84013567ffffffffffffffff811115610eb757610eb6610a70565b5b610ec386828701610e2c565b9350506020610ed486828701610a93565b9250506040610ee586828701610e6f565b9150509250925092565b5f81519050919050565b5f82825260208201905092915050565b5f819050602082019050919050565b5f82825260208201905092915050565b5f610f3282610c2b565b610f3c8185610f18565b9350610f4c818560208601610c45565b610f5581610c6d565b840191505092915050565b610f6981610a74565b82525050565b610f7881610cb5565b82525050565b610f8781610b57565b82525050565b5f60a083015f8301518482035f860152610fa78282610f28565b9150506020830151610fbc6020860182610f60565b506040830151610fcf6040860182610f6f565b506060830151610fe26060860182610f7e565b506080830151610ff56080860182610f60565b508091505092915050565b5f61100b8383610f8d565b905092915050565b5f602082019050919050565b5f61102982610eef565b6110338185610ef9565b93508360208202850161104585610f09565b805f5b8581101561108057848403895281516110618582611000565b945061106c83611013565b925060208a01995050600181019050611048565b50829750879550505050505092915050565b5f6020820190508181035f8301526110aa818461101f565b905092915050565b7f4e487b71000000000000000000000000000000000000000000000000000000005f52603260045260245ffd5b7f4e487b71000000000000000000000000000000000000000000000000000000005f52601260045260245ffd5b7f4e487b71000000000000000000000000000000000000000000000000000000005f52601160045260245ffd5b5f61114382610a74565b915061114e83610a74565b92508261115e5761115d6110df565b5b828204905092915050565b7f4e487b71000000000000000000000000000000000000000000000000000000005f52602260045260245ffd5b5f60028204905060018216806111ad57607f821691505b6020821081036111c0576111bf611169565b5b50919050565b5f819050815f5260205f209050919050565b5f6020601f8301049050919050565b5f82821b905092915050565b5f600883026112227fffffffffffffffffffffffffffffffffffffffffffffffffffffffffffffffff826111e7565b61122c86836111e7565b95508019841693508086168417925050509392505050565b5f819050919050565b5f61126761126261125d84610a74565b611244565b610a74565b9050919050565b5f819050919050565b6112808361124d565b61129461128c8261126e565b8484546111f3565b825550505050565b5f90565b6112a861129c565b6112b3818484611277565b505050565b5b818110156112d6576112cb5f826112a0565b6001810190506112b9565b5050565b601f82111561131b576112ec816111c6565b6112f5846111d8565b81016020851015611304578190505b611318611310856111d8565b8301826112b8565b50505b505050565b5f82821c905092915050565b5f61133b5f1984600802611320565b1980831691505092915050565b5f611353838361132c565b9150826002028217905092915050565b61136c82610c2b565b67ffffffffffffffff81111561138557611384610d35565b5b61138f8254611196565b61139a8282856112da565b5f60209050601f8311600181146113cb575f84156113b9578287015190505b6113c38582611348565b86555061142a565b601f1984166113d9866111c6565b5f5b82811015611400578489015182556001820191506020850194506020810190506113db565b8683101561141d5784890151611419601f89168261132c565b8355505b6001600288020188555050505b505050505050565b5f61143c82610a74565b91507fffffffffffffffffffffffffffffffffffffffffffffffffffffffffffffffff820361146e5761146d61110c565b5b60018201905091905056fea2646970667358221220f08a101aceab0ec7be4917345f784d897631c5b91a1d883f1353b50ee623066b64736f6c63430008180033","opcodes":"PUSH1 0x80 PUSH1 0x40 MSTORE CALLVALUE DUP1 ISZERO PUSH3 0x10 JUMPI PUSH0 DUP1 REVERT JUMPDEST POP PUSH1 0x40 MLOAD PUSH3 0x1624 CODESIZE SUB DUP1 PUSH3 0x1624 DUP4 CODECOPY DUP2 DUP2 ADD PUSH1 0x40 MSTORE DUP2 ADD SWAP1 PUSH3 0x36 SWAP2 SWAP1 PUSH3 0x122 JUMP JUMPDEST DUP1 PUSH1 0x1 PUSH0 PUSH2 0x100 EXP DUP2 SLOAD DUP2 PUSH20 0xFFFFFFFFFFFFFFFFFFFFFFFFFFFFFFFFFFFFFFFF MUL NOT AND SWAP1 DUP4 PUSH20 0xFFFFFFFFFFFFFFFFFFFFFFFFFFFFFFFFFFFFFFFF AND MUL OR SWAP1 SSTORE POP DUP2 PUSH1 0x2 DUP2 SWAP1 SSTORE POP POP POP PUSH3 0x167 JUMP JUMPDEST PUSH0 DUP1 REVERT JUMPDEST PUSH0 DUP2 SWAP1 POP SWAP2 SWAP1 POP JUMP JUMPDEST PUSH3 0x9D DUP2 PUSH3 0x89 JUMP JUMPDEST DUP2 EQ PUSH3 0xA8 JUMPI PUSH0 DUP1 REVERT JUMPDEST POP JUMP JUMPDEST PUSH0 DUP2 MLOAD SWAP1 POP PUSH3 0xBB DUP2 PUSH3 0x92 JUMP JUMPDEST SWAP3 SWAP2 POP POP JUMP JUMPDEST PUSH0 PUSH20 0xFFFFFFFFFFFFFFFFFFFFFFFFFFFFFFFFFFFFFFFF DUP3 AND SWAP1 POP SWAP2 SWAP1 POP JUMP JUMPDEST PUSH0 PUSH3 0xEC DUP3 PUSH3 0xC1 JUMP JUMPDEST SWAP1 POP SWAP2 SWAP1 POP JUMP JUMPDEST PUSH3 0xFE DUP2 PUSH3 0xE0 JUMP JUMPDEST DUP2 EQ PUSH3 0x109 JUMPI PUSH0 DUP1 REVERT JUMPDEST POP JUMP JUMPDEST PUSH0 DUP2 MLOAD SWAP1 POP PUSH3 0x11C DUP2 PUSH3 0xF3 JUMP JUMPDEST SWAP3 SWAP2 POP POP JUMP JUMPDEST PUSH0 DUP1 PUSH1 0x40 DUP4 DUP6 SUB SLT ISZERO PUSH3 0x13B JUMPI PUSH3 0x13A PUSH3 0x85 JUMP JUMPDEST JUMPDEST PUSH0 PUSH3 0x14A DUP6 DUP3 DUP7 ADD PUSH3 0xAB JUMP JUMPDEST SWAP3 POP POP PUSH1 0x20 PUSH3 0x15D DUP6 DUP3 DUP7 ADD PUSH3 0x10C JUMP JUMPDEST SWAP2 POP POP SWAP3 POP SWAP3 SWAP1 POP JUMP JUMPDEST PUSH2 0x14AF DUP1 PUSH3 0x175 PUSH0 CODECOPY PUSH0 RETURN INVALID PUSH1 0x80 PUSH1 0x40 MSTORE PUSH1 0x4 CALLDATASIZE LT PUSH2 0xA6 JUMPI PUSH0 CALLDATALOAD PUSH1 0xE0 SHR DUP1 PUSH4 0x82FDE093 GT PUSH2 0x63 JUMPI DUP1 PUSH4 0x82FDE093 EQ PUSH2 0x1D0 JUMPI DUP1 PUSH4 0x8A9CFD55 EQ PUSH2 0x1FA JUMPI DUP1 PUSH4 0x937E09B1 EQ PUSH2 0x222 JUMPI DUP1 PUSH4 0xD7BB99BA EQ PUSH2 0x24C JUMPI DUP1 PUSH4 0xD7D1BBDB EQ PUSH2 0x256 JUMPI DUP1 PUSH4 0xFB1A002A EQ PUSH2 0x27E JUMPI PUSH2 0xA6 JUMP JUMPDEST DUP1 PUSH4 0x3441006 EQ PUSH2 0xAA JUMPI DUP1 PUSH4 0xA144391 EQ PUSH2 0xD2 JUMPI DUP1 PUSH4 0x3410452A EQ PUSH2 0x10E JUMPI DUP1 PUSH4 0x4051DDAC EQ PUSH2 0x138 JUMPI DUP1 PUSH4 0x481C6A75 EQ PUSH2 0x166 JUMPI DUP1 PUSH4 0x81D12C58 EQ PUSH2 0x190 JUMPI JUMPDEST PUSH0 DUP1 REVERT JUMPDEST CALLVALUE DUP1 ISZERO PUSH2 0xB5 JUMPI PUSH0 DUP1 REVERT JUMPDEST POP PUSH2 0xD0 PUSH1 0x4 DUP1 CALLDATASIZE SUB DUP2 ADD SWAP1 PUSH2 0xCB SWAP2 SWAP1 PUSH2 0xAA7 JUMP JUMPDEST PUSH2 0x2A8 JUMP JUMPDEST STOP JUMPDEST CALLVALUE DUP1 ISZERO PUSH2 0xDD JUMPI PUSH0 DUP1 REVERT JUMPDEST POP PUSH2 0xF8 PUSH1 0x4 DUP1 CALLDATASIZE SUB DUP2 ADD SWAP1 PUSH2 0xF3 SWAP2 SWAP1 PUSH2 0xB2C JUMP JUMPDEST PUSH2 0x3E6 JUMP JUMPDEST PUSH1 0x40 MLOAD PUSH2 0x105 SWAP2 SWAP1 PUSH2 0xB71 JUMP JUMPDEST PUSH1 0x40 MLOAD DUP1 SWAP2 SUB SWAP1 RETURN JUMPDEST CALLVALUE DUP1 ISZERO PUSH2 0x119 JUMPI PUSH0 DUP1 REVERT JUMPDEST POP PUSH2 0x122 PUSH2 0x403 JUMP JUMPDEST PUSH1 0x40 MLOAD PUSH2 0x12F SWAP2 SWAP1 PUSH2 0xB99 JUMP JUMPDEST PUSH1 0x40 MLOAD DUP1 SWAP2 SUB SWAP1 RETURN JUMPDEST CALLVALUE DUP1 ISZERO PUSH2 0x143 JUMPI PUSH0 DUP1 REVERT JUMPDEST POP PUSH2 0x14C PUSH2 0x40E JUMP JUMPDEST PUSH1 0x40 MLOAD PUSH2 0x15D SWAP6 SWAP5 SWAP4 SWAP3 SWAP2 SWAP1 PUSH2 0xBC1 JUMP JUMPDEST PUSH1 0x40 MLOAD DUP1 SWAP2 SUB SWAP1 RETURN JUMPDEST CALLVALUE DUP1 ISZERO PUSH2 0x171 JUMPI PUSH0 DUP1 REVERT JUMPDEST POP PUSH2 0x17A PUSH2 0x452 JUMP JUMPDEST PUSH1 0x40 MLOAD PUSH2 0x187 SWAP2 SWAP1 PUSH2 0xC12 JUMP JUMPDEST PUSH1 0x40 MLOAD DUP1 SWAP2 SUB SWAP1 RETURN JUMPDEST CALLVALUE DUP1 ISZERO PUSH2 0x19B JUMPI PUSH0 DUP1 REVERT JUMPDEST POP PUSH2 0x1B6 PUSH1 0x4 DUP1 CALLDATASIZE SUB DUP2 ADD SWAP1 PUSH2 0x1B1 SWAP2 SWAP1 PUSH2 0xAA7 JUMP JUMPDEST PUSH2 0x477 JUMP JUMPDEST PUSH1 0x40 MLOAD PUSH2 0x1C7 SWAP6 SWAP5 SWAP4 SWAP3 SWAP2 SWAP1 PUSH2 0xCD5 JUMP JUMPDEST PUSH1 0x40 MLOAD DUP1 SWAP2 SUB SWAP1 RETURN JUMPDEST CALLVALUE DUP1 ISZERO PUSH2 0x1DB JUMPI PUSH0 DUP1 REVERT JUMPDEST POP PUSH2 0x1E4 PUSH2 0x569 JUMP JUMPDEST PUSH1 0x40 MLOAD PUSH2 0x1F1 SWAP2 SWAP1 PUSH2 0xB99 JUMP JUMPDEST PUSH1 0x40 MLOAD DUP1 SWAP2 SUB SWAP1 RETURN JUMPDEST CALLVALUE DUP1 ISZERO PUSH2 0x205 JUMPI PUSH0 DUP1 REVERT JUMPDEST POP PUSH2 0x220 PUSH1 0x4 DUP1 CALLDATASIZE SUB DUP2 ADD SWAP1 PUSH2 0x21B SWAP2 SWAP1 PUSH2 0xE83 JUMP JUMPDEST PUSH2 0x56F JUMP JUMPDEST STOP JUMPDEST CALLVALUE DUP1 ISZERO PUSH2 0x22D JUMPI PUSH0 DUP1 REVERT JUMPDEST POP PUSH2 0x236 PUSH2 0x66E JUMP JUMPDEST PUSH1 0x40 MLOAD PUSH2 0x243 SWAP2 SWAP1 PUSH2 0xB99 JUMP JUMPDEST PUSH1 0x40 MLOAD DUP1 SWAP2 SUB SWAP1 RETURN JUMPDEST PUSH2 0x254 PUSH2 0x674 JUMP JUMPDEST STOP JUMPDEST CALLVALUE DUP1 ISZERO PUSH2 0x261 JUMPI PUSH0 DUP1 REVERT JUMPDEST POP PUSH2 0x27C PUSH1 0x4 DUP1 CALLDATASIZE SUB DUP2 ADD SWAP1 PUSH2 0x277 SWAP2 SWAP1 PUSH2 0xAA7 JUMP JUMPDEST PUSH2 0x6EF JUMP JUMPDEST STOP JUMPDEST CALLVALUE DUP1 ISZERO PUSH2 0x289 JUMPI PUSH0 DUP1 REVERT JUMPDEST POP PUSH2 0x292 PUSH2 0x82C JUMP JUMPDEST PUSH1 0x40 MLOAD PUSH2 0x29F SWAP2 SWAP1 PUSH2 0x1092 JUMP JUMPDEST PUSH1 0x40 MLOAD DUP1 SWAP2 SUB SWAP1 RETURN JUMPDEST CALLER PUSH20 0xFFFFFFFFFFFFFFFFFFFFFFFFFFFFFFFFFFFFFFFF AND PUSH1 0x1 PUSH0 SWAP1 SLOAD SWAP1 PUSH2 0x100 EXP SWAP1 DIV PUSH20 0xFFFFFFFFFFFFFFFFFFFFFFFFFFFFFFFFFFFFFFFF AND PUSH20 0xFFFFFFFFFFFFFFFFFFFFFFFFFFFFFFFFFFFFFFFF AND EQ PUSH2 0x300 JUMPI PUSH0 DUP1 REVERT JUMPDEST PUSH0 DUP1 DUP3 DUP2 SLOAD DUP2 LT PUSH2 0x314 JUMPI PUSH2 0x313 PUSH2 0x10B2 JUMP JUMPDEST JUMPDEST SWAP1 PUSH0 MSTORE PUSH1 0x20 PUSH0 KECCAK256 SWAP1 PUSH1 0x5 MUL ADD SWAP1 POP DUP1 PUSH1 0x2 ADD PUSH1 0x14 SWAP1 SLOAD SWAP1 PUSH2 0x100 EXP SWAP1 DIV PUSH1 0xFF AND ISZERO PUSH2 0x33D JUMPI PUSH0 DUP1 REVERT JUMPDEST PUSH1 0x2 PUSH1 0x4 SLOAD PUSH2 0x34C SWAP2 SWAP1 PUSH2 0x1139 JUMP JUMPDEST DUP2 PUSH1 0x3 ADD SLOAD GT PUSH2 0x35A JUMPI PUSH0 DUP1 REVERT JUMPDEST DUP1 PUSH1 0x2 ADD PUSH0 SWAP1 SLOAD SWAP1 PUSH2 0x100 EXP SWAP1 DIV PUSH20 0xFFFFFFFFFFFFFFFFFFFFFFFFFFFFFFFFFFFFFFFF AND PUSH20 0xFFFFFFFFFFFFFFFFFFFFFFFFFFFFFFFFFFFFFFFF AND PUSH2 0x8FC DUP3 PUSH1 0x1 ADD SLOAD SWAP1 DUP2 ISZERO MUL SWAP1 PUSH1 0x40 MLOAD PUSH0 PUSH1 0x40 MLOAD DUP1 DUP4 SUB DUP2 DUP6 DUP9 DUP9 CALL SWAP4 POP POP POP POP ISZERO DUP1 ISZERO PUSH2 0x3C4 JUMPI RETURNDATASIZE PUSH0 DUP1 RETURNDATACOPY RETURNDATASIZE PUSH0 REVERT JUMPDEST POP PUSH1 0x1 DUP2 PUSH1 0x2 ADD PUSH1 0x14 PUSH2 0x100 EXP DUP2 SLOAD DUP2 PUSH1 0xFF MUL NOT AND SWAP1 DUP4 ISZERO ISZERO MUL OR SWAP1 SSTORE POP POP POP JUMP JUMPDEST PUSH1 0x3 PUSH1 0x20 MSTORE DUP1 PUSH0 MSTORE PUSH1 0x40 PUSH0 KECCAK256 PUSH0 SWAP2 POP SLOAD SWAP1 PUSH2 0x100 EXP SWAP1 DIV PUSH1 0xFF AND DUP2 JUMP JUMPDEST PUSH0 DUP1 DUP1 SLOAD SWAP1 POP SWAP1 POP SWAP1 JUMP JUMPDEST PUSH0 DUP1 PUSH0 DUP1 PUSH0 PUSH1 0x2 SLOAD SELFBALANCE PUSH0 DUP1 SLOAD SWAP1 POP PUSH1 0x4 SLOAD PUSH1 0x1 PUSH0 SWAP1 SLOAD SWAP1 PUSH2 0x100 EXP SWAP1 DIV PUSH20 0xFFFFFFFFFFFFFFFFFFFFFFFFFFFFFFFFFFFFFFFF AND SWAP5 POP SWAP5 POP SWAP5 POP SWAP5 POP SWAP5 POP SWAP1 SWAP2 SWAP3 SWAP4 SWAP5 JUMP JUMPDEST PUSH1 0x1 PUSH0 SWAP1 SLOAD SWAP1 PUSH2 0x100 EXP SWAP1 DIV PUSH20 0xFFFFFFFFFFFFFFFFFFFFFFFFFFFFFFFFFFFFFFFF AND DUP2 JUMP JUMPDEST PUSH0 DUP2 DUP2 SLOAD DUP2 LT PUSH2 0x485 JUMPI PUSH0 DUP1 REVERT JUMPDEST SWAP1 PUSH0 MSTORE PUSH1 0x20 PUSH0 KECCAK256 SWAP1 PUSH1 0x5 MUL ADD PUSH0 SWAP2 POP SWAP1 POP DUP1 PUSH0 ADD DUP1 SLOAD PUSH2 0x4A4 SWAP1 PUSH2 0x1196 JUMP JUMPDEST DUP1 PUSH1 0x1F ADD PUSH1 0x20 DUP1 SWAP2 DIV MUL PUSH1 0x20 ADD PUSH1 0x40 MLOAD SWAP1 DUP2 ADD PUSH1 0x40 MSTORE DUP1 SWAP3 SWAP2 SWAP1 DUP2 DUP2 MSTORE PUSH1 0x20 ADD DUP3 DUP1 SLOAD PUSH2 0x4D0 SWAP1 PUSH2 0x1196 JUMP JUMPDEST DUP1 ISZERO PUSH2 0x51B JUMPI DUP1 PUSH1 0x1F LT PUSH2 0x4F2 JUMPI PUSH2 0x100 DUP1 DUP4 SLOAD DIV MUL DUP4 MSTORE SWAP2 PUSH1 0x20 ADD SWAP2 PUSH2 0x51B JUMP JUMPDEST DUP3 ADD SWAP2 SWAP1 PUSH0 MSTORE PUSH1 0x20 PUSH0 KECCAK256 SWAP1 JUMPDEST DUP2 SLOAD DUP2 MSTORE SWAP1 PUSH1 0x1 ADD SWAP1 PUSH1 0x20 ADD DUP1 DUP4 GT PUSH2 0x4FE JUMPI DUP3 SWAP1 SUB PUSH1 0x1F AND DUP3 ADD SWAP2 JUMPDEST POP POP POP POP POP SWAP1 DUP1 PUSH1 0x1 ADD SLOAD SWAP1 DUP1 PUSH1 0x2 ADD PUSH0 SWAP1 SLOAD SWAP1 PUSH2 0x100 EXP SWAP1 DIV PUSH20 0xFFFFFFFFFFFFFFFFFFFFFFFFFFFFFFFFFFFFFFFF AND SWAP1 DUP1 PUSH1 0x2 ADD PUSH1 0x14 SWAP1 SLOAD SWAP1 PUSH2 0x100 EXP SWAP1 DIV PUSH1 0xFF AND SWAP1 DUP1 PUSH1 0x3 ADD SLOAD SWAP1 POP DUP6 JUMP JUMPDEST PUSH1 0x4 SLOAD DUP2 JUMP JUMPDEST CALLER PUSH20 0xFFFFFFFFFFFFFFFFFFFFFFFFFFFFFFFFFFFFFFFF AND PUSH1 0x1 PUSH0 SWAP1 SLOAD SWAP1 PUSH2 0x100 EXP SWAP1 DIV PUSH20 0xFFFFFFFFFFFFFFFFFFFFFFFFFFFFFFFFFFFFFFFF AND PUSH20 0xFFFFFFFFFFFFFFFFFFFFFFFFFFFFFFFFFFFFFFFF AND EQ PUSH2 0x5C7 JUMPI PUSH0 DUP1 REVERT JUMPDEST PUSH0 DUP1 PUSH1 0x1 DUP2 PUSH1 0x1 DUP2 SLOAD ADD DUP1 DUP3 SSTORE DUP1 SWAP2 POP POP SUB SWAP1 PUSH0 MSTORE PUSH1 0x20 PUSH0 KECCAK256 SWAP1 PUSH1 0x5 MUL ADD SWAP1 POP DUP4 DUP2 PUSH0 ADD SWAP1 DUP2 PUSH2 0x5F7 SWAP2 SWAP1 PUSH2 0x1363 JUMP JUMPDEST POP DUP3 DUP2 PUSH1 0x1 ADD DUP2 SWAP1 SSTORE POP DUP2 DUP2 PUSH1 0x2 ADD PUSH0 PUSH2 0x100 EXP DUP2 SLOAD DUP2 PUSH20 0xFFFFFFFFFFFFFFFFFFFFFFFFFFFFFFFFFFFFFFFF MUL NOT AND SWAP1 DUP4 PUSH20 0xFFFFFFFFFFFFFFFFFFFFFFFFFFFFFFFFFFFFFFFF AND MUL OR SWAP1 SSTORE POP PUSH0 DUP2 PUSH1 0x2 ADD PUSH1 0x14 PUSH2 0x100 EXP DUP2 SLOAD DUP2 PUSH1 0xFF MUL NOT AND SWAP1 DUP4 ISZERO ISZERO MUL OR SWAP1 SSTORE POP PUSH0 DUP2 PUSH1 0x3 ADD DUP2 SWAP1 SSTORE POP POP POP POP POP JUMP JUMPDEST PUSH1 0x2 SLOAD DUP2 JUMP JUMPDEST PUSH1 0x2 SLOAD CALLVALUE GT PUSH2 0x681 JUMPI PUSH0 DUP1 REVERT JUMPDEST PUSH1 0x1 PUSH1 0x3 PUSH0 CALLER PUSH20 0xFFFFFFFFFFFFFFFFFFFFFFFFFFFFFFFFFFFFFFFF AND PUSH20 0xFFFFFFFFFFFFFFFFFFFFFFFFFFFFFFFFFFFFFFFF AND DUP2 MSTORE PUSH1 0x20 ADD SWAP1 DUP2 MSTORE PUSH1 0x20 ADD PUSH0 KECCAK256 PUSH0 PUSH2 0x100 EXP DUP2 SLOAD DUP2 PUSH1 0xFF MUL NOT AND SWAP1 DUP4 ISZERO ISZERO MUL OR SWAP1 SSTORE POP PUSH1 0x4 PUSH0 DUP2 SLOAD DUP1 SWAP3 SWAP2 SWAP1 PUSH2 0x6E8 SWAP1 PUSH2 0x1432 JUMP JUMPDEST SWAP2 SWAP1 POP SSTORE POP JUMP JUMPDEST PUSH1 0x3 PUSH0 CALLER PUSH20 0xFFFFFFFFFFFFFFFFFFFFFFFFFFFFFFFFFFFFFFFF AND PUSH20 0xFFFFFFFFFFFFFFFFFFFFFFFFFFFFFFFFFFFFFFFF AND DUP2 MSTORE PUSH1 0x20 ADD SWAP1 DUP2 MSTORE PUSH1 0x20 ADD PUSH0 KECCAK256 PUSH0 SWAP1 SLOAD SWAP1 PUSH2 0x100 EXP SWAP1 DIV PUSH1 0xFF AND PUSH2 0x741 JUMPI PUSH0 DUP1 REVERT JUMPDEST PUSH0 DUP1 DUP3 DUP2 SLOAD DUP2 LT PUSH2 0x755 JUMPI PUSH2 0x754 PUSH2 0x10B2 JUMP JUMPDEST JUMPDEST SWAP1 PUSH0 MSTORE PUSH1 0x20 PUSH0 KECCAK256 SWAP1 PUSH1 0x5 MUL ADD SWAP1 POP DUP1 PUSH1 0x4 ADD PUSH0 CALLER PUSH20 0xFFFFFFFFFFFFFFFFFFFFFFFFFFFFFFFFFFFFFFFF AND PUSH20 0xFFFFFFFFFFFFFFFFFFFFFFFFFFFFFFFFFFFFFFFF AND DUP2 MSTORE PUSH1 0x20 ADD SWAP1 DUP2 MSTORE PUSH1 0x20 ADD PUSH0 KECCAK256 PUSH0 SWAP1 SLOAD SWAP1 PUSH2 0x100 EXP SWAP1 DIV PUSH1 0xFF AND ISZERO PUSH2 0x7B8 JUMPI PUSH0 DUP1 REVERT JUMPDEST PUSH1 0x1 DUP2 PUSH1 0x4 ADD PUSH0 CALLER PUSH20 0xFFFFFFFFFFFFFFFFFFFFFFFFFFFFFFFFFFFFFFFF AND PUSH20 0xFFFFFFFFFFFFFFFFFFFFFFFFFFFFFFFFFFFFFFFF AND DUP2 MSTORE PUSH1 0x20 ADD SWAP1 DUP2 MSTORE PUSH1 0x20 ADD PUSH0 KECCAK256 PUSH0 PUSH2 0x100 EXP DUP2 SLOAD DUP2 PUSH1 0xFF MUL NOT AND SWAP1 DUP4 ISZERO ISZERO MUL OR SWAP1 SSTORE POP DUP1 PUSH1 0x3 ADD PUSH0 DUP2 SLOAD DUP1 SWAP3 SWAP2 SWAP1 PUSH2 0x823 SWAP1 PUSH2 0x1432 JUMP JUMPDEST SWAP2 SWAP1 POP SSTORE POP POP POP JUMP JUMPDEST PUSH1 0x60 PUSH0 DUP1 DUP1 SLOAD SWAP1 POP PUSH8 0xFFFFFFFFFFFFFFFF DUP2 GT ISZERO PUSH2 0x84D JUMPI PUSH2 0x84C PUSH2 0xD35 JUMP JUMPDEST JUMPDEST PUSH1 0x40 MLOAD SWAP1 DUP1 DUP3 MSTORE DUP1 PUSH1 0x20 MUL PUSH1 0x20 ADD DUP3 ADD PUSH1 0x40 MSTORE DUP1 ISZERO PUSH2 0x886 JUMPI DUP2 PUSH1 0x20 ADD JUMPDEST PUSH2 0x873 PUSH2 0xA20 JUMP JUMPDEST DUP2 MSTORE PUSH1 0x20 ADD SWAP1 PUSH1 0x1 SWAP1 SUB SWAP1 DUP2 PUSH2 0x86B JUMPI SWAP1 POP JUMPDEST POP SWAP1 POP PUSH0 JUMPDEST PUSH0 DUP1 SLOAD SWAP1 POP DUP2 LT ISZERO PUSH2 0xA18 JUMPI PUSH0 DUP1 DUP3 DUP2 SLOAD DUP2 LT PUSH2 0x8AB JUMPI PUSH2 0x8AA PUSH2 0x10B2 JUMP JUMPDEST JUMPDEST SWAP1 PUSH0 MSTORE PUSH1 0x20 PUSH0 KECCAK256 SWAP1 PUSH1 0x5 MUL ADD SWAP1 POP PUSH2 0x8C1 PUSH2 0xA20 JUMP JUMPDEST DUP2 PUSH0 ADD DUP1 SLOAD PUSH2 0x8CF SWAP1 PUSH2 0x1196 JUMP JUMPDEST DUP1 PUSH1 0x1F ADD PUSH1 0x20 DUP1 SWAP2 DIV MUL PUSH1 0x20 ADD PUSH1 0x40 MLOAD SWAP1 DUP2 ADD PUSH1 0x40 MSTORE DUP1 SWAP3 SWAP2 SWAP1 DUP2 DUP2 MSTORE PUSH1 0x20 ADD DUP3 DUP1 SLOAD PUSH2 0x8FB SWAP1 PUSH2 0x1196 JUMP JUMPDEST DUP1 ISZERO PUSH2 0x946 JUMPI DUP1 PUSH1 0x1F LT PUSH2 0x91D JUMPI PUSH2 0x100 DUP1 DUP4 SLOAD DIV MUL DUP4 MSTORE SWAP2 PUSH1 0x20 ADD SWAP2 PUSH2 0x946 JUMP JUMPDEST DUP3 ADD SWAP2 SWAP1 PUSH0 MSTORE PUSH1 0x20 PUSH0 KECCAK256 SWAP1 JUMPDEST DUP2 SLOAD DUP2 MSTORE SWAP1 PUSH1 0x1 ADD SWAP1 PUSH1 0x20 ADD DUP1 DUP4 GT PUSH2 0x929 JUMPI DUP3 SWAP1 SUB PUSH1 0x1F AND DUP3 ADD SWAP2 JUMPDEST POP POP POP POP POP DUP2 PUSH0 ADD DUP2 SWAP1 MSTORE POP DUP2 PUSH1 0x1 ADD SLOAD DUP2 PUSH1 0x20 ADD DUP2 DUP2 MSTORE POP POP DUP2 PUSH1 0x2 ADD PUSH0 SWAP1 SLOAD SWAP1 PUSH2 0x100 EXP SWAP1 DIV PUSH20 0xFFFFFFFFFFFFFFFFFFFFFFFFFFFFFFFFFFFFFFFF AND DUP2 PUSH1 0x40 ADD SWAP1 PUSH20 0xFFFFFFFFFFFFFFFFFFFFFFFFFFFFFFFFFFFFFFFF AND SWAP1 DUP2 PUSH20 0xFFFFFFFFFFFFFFFFFFFFFFFFFFFFFFFFFFFFFFFF AND DUP2 MSTORE POP POP DUP2 PUSH1 0x2 ADD PUSH1 0x14 SWAP1 SLOAD SWAP1 PUSH2 0x100 EXP SWAP1 DIV PUSH1 0xFF AND DUP2 PUSH1 0x60 ADD SWAP1 ISZERO ISZERO SWAP1 DUP2 ISZERO ISZERO DUP2 MSTORE POP POP DUP2 PUSH1 0x3 ADD SLOAD DUP2 PUSH1 0x80 ADD DUP2 DUP2 MSTORE POP POP DUP1 DUP5 DUP5 DUP2 MLOAD DUP2 LT PUSH2 0x9FE JUMPI PUSH2 0x9FD PUSH2 0x10B2 JUMP JUMPDEST JUMPDEST PUSH1 0x20 MUL PUSH1 0x20 ADD ADD DUP2 SWAP1 MSTORE POP POP POP DUP1 DUP1 PUSH1 0x1 ADD SWAP2 POP POP PUSH2 0x88B JUMP JUMPDEST POP DUP1 SWAP2 POP POP SWAP1 JUMP JUMPDEST PUSH1 0x40 MLOAD DUP1 PUSH1 0xA0 ADD PUSH1 0x40 MSTORE DUP1 PUSH1 0x60 DUP2 MSTORE PUSH1 0x20 ADD PUSH0 DUP2 MSTORE PUSH1 0x20 ADD PUSH0 PUSH20 0xFFFFFFFFFFFFFFFFFFFFFFFFFFFFFFFFFFFFFFFF AND DUP2 MSTORE PUSH1 0x20 ADD PUSH0 ISZERO ISZERO DUP2 MSTORE PUSH1 0x20 ADD PUSH0 DUP2 MSTORE POP SWAP1 JUMP JUMPDEST PUSH0 PUSH1 0x40 MLOAD SWAP1 POP SWAP1 JUMP JUMPDEST PUSH0 DUP1 REVERT JUMPDEST PUSH0 DUP1 REVERT JUMPDEST PUSH0 DUP2 SWAP1 POP SWAP2 SWAP1 POP JUMP JUMPDEST PUSH2 0xA86 DUP2 PUSH2 0xA74 JUMP JUMPDEST DUP2 EQ PUSH2 0xA90 JUMPI PUSH0 DUP1 REVERT JUMPDEST POP JUMP JUMPDEST PUSH0 DUP2 CALLDATALOAD SWAP1 POP PUSH2 0xAA1 DUP2 PUSH2 0xA7D JUMP JUMPDEST SWAP3 SWAP2 POP POP JUMP JUMPDEST PUSH0 PUSH1 0x20 DUP3 DUP5 SUB SLT ISZERO PUSH2 0xABC JUMPI PUSH2 0xABB PUSH2 0xA6C JUMP JUMPDEST JUMPDEST PUSH0 PUSH2 0xAC9 DUP5 DUP3 DUP6 ADD PUSH2 0xA93 JUMP JUMPDEST SWAP2 POP POP SWAP3 SWAP2 POP POP JUMP JUMPDEST PUSH0 PUSH20 0xFFFFFFFFFFFFFFFFFFFFFFFFFFFFFFFFFFFFFFFF DUP3 AND SWAP1 POP SWAP2 SWAP1 POP JUMP JUMPDEST PUSH0 PUSH2 0xAFB DUP3 PUSH2 0xAD2 JUMP JUMPDEST SWAP1 POP SWAP2 SWAP1 POP JUMP JUMPDEST PUSH2 0xB0B DUP2 PUSH2 0xAF1 JUMP JUMPDEST DUP2 EQ PUSH2 0xB15 JUMPI PUSH0 DUP1 REVERT JUMPDEST POP JUMP JUMPDEST PUSH0 DUP2 CALLDATALOAD SWAP1 POP PUSH2 0xB26 DUP2 PUSH2 0xB02 JUMP JUMPDEST SWAP3 SWAP2 POP POP JUMP JUMPDEST PUSH0 PUSH1 0x20 DUP3 DUP5 SUB SLT ISZERO PUSH2 0xB41 JUMPI PUSH2 0xB40 PUSH2 0xA6C JUMP JUMPDEST JUMPDEST PUSH0 PUSH2 0xB4E DUP5 DUP3 DUP6 ADD PUSH2 0xB18 JUMP JUMPDEST SWAP2 POP POP SWAP3 SWAP2 POP POP JUMP JUMPDEST PUSH0 DUP2 ISZERO ISZERO SWAP1 POP SWAP2 SWAP1 POP JUMP JUMPDEST PUSH2 0xB6B DUP2 PUSH2 0xB57 JUMP JUMPDEST DUP3 MSTORE POP POP JUMP JUMPDEST PUSH0 PUSH1 0x20 DUP3 ADD SWAP1 POP PUSH2 0xB84 PUSH0 DUP4 ADD DUP5 PUSH2 0xB62 JUMP JUMPDEST SWAP3 SWAP2 POP POP JUMP JUMPDEST PUSH2 0xB93 DUP2 PUSH2 0xA74 JUMP JUMPDEST DUP3 MSTORE POP POP JUMP JUMPDEST PUSH0 PUSH1 0x20 DUP3 ADD SWAP1 POP PUSH2 0xBAC PUSH0 DUP4 ADD DUP5 PUSH2 0xB8A JUMP JUMPDEST SWAP3 SWAP2 POP POP JUMP JUMPDEST PUSH2 0xBBB DUP2 PUSH2 0xAF1 JUMP JUMPDEST DUP3 MSTORE POP POP JUMP JUMPDEST PUSH0 PUSH1 0xA0 DUP3 ADD SWAP1 POP PUSH2 0xBD4 PUSH0 DUP4 ADD DUP9 PUSH2 0xB8A JUMP JUMPDEST PUSH2 0xBE1 PUSH1 0x20 DUP4 ADD DUP8 PUSH2 0xB8A JUMP JUMPDEST PUSH2 0xBEE PUSH1 0x40 DUP4 ADD DUP7 PUSH2 0xB8A JUMP JUMPDEST PUSH2 0xBFB PUSH1 0x60 DUP4 ADD DUP6 PUSH2 0xB8A JUMP JUMPDEST PUSH2 0xC08 PUSH1 0x80 DUP4 ADD DUP5 PUSH2 0xBB2 JUMP JUMPDEST SWAP7 SWAP6 POP POP POP POP POP POP JUMP JUMPDEST PUSH0 PUSH1 0x20 DUP3 ADD SWAP1 POP PUSH2 0xC25 PUSH0 DUP4 ADD DUP5 PUSH2 0xBB2 JUMP JUMPDEST SWAP3 SWAP2 POP POP JUMP JUMPDEST PUSH0 DUP2 MLOAD SWAP1 POP SWAP2 SWAP1 POP JUMP JUMPDEST PUSH0 DUP3 DUP3 MSTORE PUSH1 0x20 DUP3 ADD SWAP1 POP SWAP3 SWAP2 POP POP JUMP JUMPDEST PUSH0 JUMPDEST DUP4 DUP2 LT ISZERO PUSH2 0xC62 JUMPI DUP1 DUP3 ADD MLOAD DUP2 DUP5 ADD MSTORE PUSH1 0x20 DUP2 ADD SWAP1 POP PUSH2 0xC47 JUMP JUMPDEST PUSH0 DUP5 DUP5 ADD MSTORE POP POP POP POP JUMP JUMPDEST PUSH0 PUSH1 0x1F NOT PUSH1 0x1F DUP4 ADD AND SWAP1 POP SWAP2 SWAP1 POP JUMP JUMPDEST PUSH0 PUSH2 0xC87 DUP3 PUSH2 0xC2B JUMP JUMPDEST PUSH2 0xC91 DUP2 DUP6 PUSH2 0xC35 JUMP JUMPDEST SWAP4 POP PUSH2 0xCA1 DUP2 DUP6 PUSH1 0x20 DUP7 ADD PUSH2 0xC45 JUMP JUMPDEST PUSH2 0xCAA DUP2 PUSH2 0xC6D JUMP JUMPDEST DUP5 ADD SWAP2 POP POP SWAP3 SWAP2 POP POP JUMP JUMPDEST PUSH0 PUSH2 0xCBF DUP3 PUSH2 0xAD2 JUMP JUMPDEST SWAP1 POP SWAP2 SWAP1 POP JUMP JUMPDEST PUSH2 0xCCF DUP2 PUSH2 0xCB5 JUMP JUMPDEST DUP3 MSTORE POP POP JUMP JUMPDEST PUSH0 PUSH1 0xA0 DUP3 ADD SWAP1 POP DUP2 DUP2 SUB PUSH0 DUP4 ADD MSTORE PUSH2 0xCED DUP2 DUP9 PUSH2 0xC7D JUMP JUMPDEST SWAP1 POP PUSH2 0xCFC PUSH1 0x20 DUP4 ADD DUP8 PUSH2 0xB8A JUMP JUMPDEST PUSH2 0xD09 PUSH1 0x40 DUP4 ADD DUP7 PUSH2 0xCC6 JUMP JUMPDEST PUSH2 0xD16 PUSH1 0x60 DUP4 ADD DUP6 PUSH2 0xB62 JUMP JUMPDEST PUSH2 0xD23 PUSH1 0x80 DUP4 ADD DUP5 PUSH2 0xB8A JUMP JUMPDEST SWAP7 SWAP6 POP POP POP POP POP POP JUMP JUMPDEST PUSH0 DUP1 REVERT JUMPDEST PUSH0 DUP1 REVERT JUMPDEST PUSH32 0x4E487B7100000000000000000000000000000000000000000000000000000000 PUSH0 MSTORE PUSH1 0x41 PUSH1 0x4 MSTORE PUSH1 0x24 PUSH0 REVERT JUMPDEST PUSH2 0xD6B DUP3 PUSH2 0xC6D JUMP JUMPDEST DUP2 ADD DUP2 DUP2 LT PUSH8 0xFFFFFFFFFFFFFFFF DUP3 GT OR ISZERO PUSH2 0xD8A JUMPI PUSH2 0xD89 PUSH2 0xD35 JUMP JUMPDEST JUMPDEST DUP1 PUSH1 0x40 MSTORE POP POP POP JUMP JUMPDEST PUSH0 PUSH2 0xD9C PUSH2 0xA63 JUMP JUMPDEST SWAP1 POP PUSH2 0xDA8 DUP3 DUP3 PUSH2 0xD62 JUMP JUMPDEST SWAP2 SWAP1 POP JUMP JUMPDEST PUSH0 PUSH8 0xFFFFFFFFFFFFFFFF DUP3 GT ISZERO PUSH2 0xDC7 JUMPI PUSH2 0xDC6 PUSH2 0xD35 JUMP JUMPDEST JUMPDEST PUSH2 0xDD0 DUP3 PUSH2 0xC6D JUMP JUMPDEST SWAP1 POP PUSH1 0x20 DUP2 ADD SWAP1 POP SWAP2 SWAP1 POP JUMP JUMPDEST DUP3 DUP2 DUP4 CALLDATACOPY PUSH0 DUP4 DUP4 ADD MSTORE POP POP POP JUMP JUMPDEST PUSH0 PUSH2 0xDFD PUSH2 0xDF8 DUP5 PUSH2 0xDAD JUMP JUMPDEST PUSH2 0xD93 JUMP JUMPDEST SWAP1 POP DUP3 DUP2 MSTORE PUSH1 0x20 DUP2 ADD DUP5 DUP5 DUP5 ADD GT ISZERO PUSH2 0xE19 JUMPI PUSH2 0xE18 PUSH2 0xD31 JUMP JUMPDEST JUMPDEST PUSH2 0xE24 DUP5 DUP3 DUP6 PUSH2 0xDDD JUMP JUMPDEST POP SWAP4 SWAP3 POP POP POP JUMP JUMPDEST PUSH0 DUP3 PUSH1 0x1F DUP4 ADD SLT PUSH2 0xE40 JUMPI PUSH2 0xE3F PUSH2 0xD2D JUMP JUMPDEST JUMPDEST DUP2 CALLDATALOAD PUSH2 0xE50 DUP5 DUP3 PUSH1 0x20 DUP7 ADD PUSH2 0xDEB JUMP JUMPDEST SWAP2 POP POP SWAP3 SWAP2 POP POP JUMP JUMPDEST PUSH2 0xE62 DUP2 PUSH2 0xCB5 JUMP JUMPDEST DUP2 EQ PUSH2 0xE6C JUMPI PUSH0 DUP1 REVERT JUMPDEST POP JUMP JUMPDEST PUSH0 DUP2 CALLDATALOAD SWAP1 POP PUSH2 0xE7D DUP2 PUSH2 0xE59 JUMP JUMPDEST SWAP3 SWAP2 POP POP JUMP JUMPDEST PUSH0 DUP1 PUSH0 PUSH1 0x60 DUP5 DUP7 SUB SLT ISZERO PUSH2 0xE9A JUMPI PUSH2 0xE99 PUSH2 0xA6C JUMP JUMPDEST JUMPDEST PUSH0 DUP5 ADD CALLDATALOAD PUSH8 0xFFFFFFFFFFFFFFFF DUP2 GT ISZERO PUSH2 0xEB7 JUMPI PUSH2 0xEB6 PUSH2 0xA70 JUMP JUMPDEST JUMPDEST PUSH2 0xEC3 DUP7 DUP3 DUP8 ADD PUSH2 0xE2C JUMP JUMPDEST SWAP4 POP POP PUSH1 0x20 PUSH2 0xED4 DUP7 DUP3 DUP8 ADD PUSH2 0xA93 JUMP JUMPDEST SWAP3 POP POP PUSH1 0x40 PUSH2 0xEE5 DUP7 DUP3 DUP8 ADD PUSH2 0xE6F JUMP JUMPDEST SWAP2 POP POP SWAP3 POP SWAP3 POP SWAP3 JUMP JUMPDEST PUSH0 DUP2 MLOAD SWAP1 POP SWAP2 SWAP1 POP JUMP JUMPDEST PUSH0 DUP3 DUP3 MSTORE PUSH1 0x20 DUP3 ADD SWAP1 POP SWAP3 SWAP2 POP POP JUMP JUMPDEST PUSH0 DUP2 SWAP1 POP PUSH1 0x20 DUP3 ADD SWAP1 POP SWAP2 SWAP1 POP JUMP JUMPDEST PUSH0 DUP3 DUP3 MSTORE PUSH1 0x20 DUP3 ADD SWAP1 POP SWAP3 SWAP2 POP POP JUMP JUMPDEST PUSH0 PUSH2 0xF32 DUP3 PUSH2 0xC2B JUMP JUMPDEST PUSH2 0xF3C DUP2 DUP6 PUSH2 0xF18 JUMP JUMPDEST SWAP4 POP PUSH2 0xF4C DUP2 DUP6 PUSH1 0x20 DUP7 ADD PUSH2 0xC45 JUMP JUMPDEST PUSH2 0xF55 DUP2 PUSH2 0xC6D JUMP JUMPDEST DUP5 ADD SWAP2 POP POP SWAP3 SWAP2 POP POP JUMP JUMPDEST PUSH2 0xF69 DUP2 PUSH2 0xA74 JUMP JUMPDEST DUP3 MSTORE POP POP JUMP JUMPDEST PUSH2 0xF78 DUP2 PUSH2 0xCB5 JUMP JUMPDEST DUP3 MSTORE POP POP JUMP JUMPDEST PUSH2 0xF87 DUP2 PUSH2 0xB57 JUMP JUMPDEST DUP3 MSTORE POP POP JUMP JUMPDEST PUSH0 PUSH1 0xA0 DUP4 ADD PUSH0 DUP4 ADD MLOAD DUP5 DUP3 SUB PUSH0 DUP7 ADD MSTORE PUSH2 0xFA7 DUP3 DUP3 PUSH2 0xF28 JUMP JUMPDEST SWAP2 POP POP PUSH1 0x20 DUP4 ADD MLOAD PUSH2 0xFBC PUSH1 0x20 DUP7 ADD DUP3 PUSH2 0xF60 JUMP JUMPDEST POP PUSH1 0x40 DUP4 ADD MLOAD PUSH2 0xFCF PUSH1 0x40 DUP7 ADD DUP3 PUSH2 0xF6F JUMP JUMPDEST POP PUSH1 0x60 DUP4 ADD MLOAD PUSH2 0xFE2 PUSH1 0x60 DUP7 ADD DUP3 PUSH2 0xF7E JUMP JUMPDEST POP PUSH1 0x80 DUP4 ADD MLOAD PUSH2 0xFF5 PUSH1 0x80 DUP7 ADD DUP3 PUSH2 0xF60 JUMP JUMPDEST POP DUP1 SWAP2 POP POP SWAP3 SWAP2 POP POP JUMP JUMPDEST PUSH0 PUSH2 0x100B DUP4 DUP4 PUSH2 0xF8D JUMP JUMPDEST SWAP1 POP SWAP3 SWAP2 POP POP JUMP JUMPDEST PUSH0 PUSH1 0x20 DUP3 ADD SWAP1 POP SWAP2 SWAP1 POP JUMP JUMPDEST PUSH0 PUSH2 0x1029 DUP3 PUSH2 0xEEF JUMP JUMPDEST PUSH2 0x1033 DUP2 DUP6 PUSH2 0xEF9 JUMP JUMPDEST SWAP4 POP DUP4 PUSH1 0x20 DUP3 MUL DUP6 ADD PUSH2 0x1045 DUP6 PUSH2 0xF09 JUMP JUMPDEST DUP1 PUSH0 JUMPDEST DUP6 DUP2 LT ISZERO PUSH2 0x1080 JUMPI DUP5 DUP5 SUB DUP10 MSTORE DUP2 MLOAD PUSH2 0x1061 DUP6 DUP3 PUSH2 0x1000 JUMP JUMPDEST SWAP5 POP PUSH2 0x106C DUP4 PUSH2 0x1013 JUMP JUMPDEST SWAP3 POP PUSH1 0x20 DUP11 ADD SWAP10 POP POP PUSH1 0x1 DUP2 ADD SWAP1 POP PUSH2 0x1048 JUMP JUMPDEST POP DUP3 SWAP8 POP DUP8 SWAP6 POP POP POP POP POP POP SWAP3 SWAP2 POP POP JUMP JUMPDEST PUSH0 PUSH1 0x20 DUP3 ADD SWAP1 POP DUP2 DUP2 SUB PUSH0 DUP4 ADD MSTORE PUSH2 0x10AA DUP2 DUP5 PUSH2 0x101F JUMP JUMPDEST SWAP1 POP SWAP3 SWAP2 POP POP JUMP JUMPDEST PUSH32 0x4E487B7100000000000000000000000000000000000000000000000000000000 PUSH0 MSTORE PUSH1 0x32 PUSH1 0x4 MSTORE PUSH1 0x24 PUSH0 REVERT JUMPDEST PUSH32 0x4E487B7100000000000000000000000000000000000000000000000000000000 PUSH0 MSTORE PUSH1 0x12 PUSH1 0x4 MSTORE PUSH1 0x24 PUSH0 REVERT JUMPDEST PUSH32 0x4E487B7100000000000000000000000000000000000000000000000000000000 PUSH0 MSTORE PUSH1 0x11 PUSH1 0x4 MSTORE PUSH1 0x24 PUSH0 REVERT JUMPDEST PUSH0 PUSH2 0x1143 DUP3 PUSH2 0xA74 JUMP JUMPDEST SWAP2 POP PUSH2 0x114E DUP4 PUSH2 0xA74 JUMP JUMPDEST SWAP3 POP DUP3 PUSH2 0x115E JUMPI PUSH2 0x115D PUSH2 0x10DF JUMP JUMPDEST JUMPDEST DUP3 DUP3 DIV SWAP1 POP SWAP3 SWAP2 POP POP JUMP JUMPDEST PUSH32 0x4E487B7100000000000000000000000000000000000000000000000000000000 PUSH0 MSTORE PUSH1 0x22 PUSH1 0x4 MSTORE PUSH1 0x24 PUSH0 REVERT JUMPDEST PUSH0 PUSH1 0x2 DUP3 DIV SWAP1 POP PUSH1 0x1 DUP3 AND DUP1 PUSH2 0x11AD JUMPI PUSH1 0x7F DUP3 AND SWAP2 POP JUMPDEST PUSH1 0x20 DUP3 LT DUP2 SUB PUSH2 0x11C0 JUMPI PUSH2 0x11BF PUSH2 0x1169 JUMP JUMPDEST JUMPDEST POP SWAP2 SWAP1 POP JUMP JUMPDEST PUSH0 DUP2 SWAP1 POP DUP2 PUSH0 MSTORE PUSH1 0x20 PUSH0 KECCAK256 SWAP1 POP SWAP2 SWAP1 POP JUMP JUMPDEST PUSH0 PUSH1 0x20 PUSH1 0x1F DUP4 ADD DIV SWAP1 POP SWAP2 SWAP1 POP JUMP JUMPDEST PUSH0 DUP3 DUP3 SHL SWAP1 POP SWAP3 SWAP2 POP POP JUMP JUMPDEST PUSH0 PUSH1 0x8 DUP4 MUL PUSH2 0x1222 PUSH32 0xFFFFFFFFFFFFFFFFFFFFFFFFFFFFFFFFFFFFFFFFFFFFFFFFFFFFFFFFFFFFFFFF DUP3 PUSH2 0x11E7 JUMP JUMPDEST PUSH2 0x122C DUP7 DUP4 PUSH2 0x11E7 JUMP JUMPDEST SWAP6 POP DUP1 NOT DUP5 AND SWAP4 POP DUP1 DUP7 AND DUP5 OR SWAP3 POP POP POP SWAP4 SWAP3 POP POP POP JUMP JUMPDEST PUSH0 DUP2 SWAP1 POP SWAP2 SWAP1 POP JUMP JUMPDEST PUSH0 PUSH2 0x1267 PUSH2 0x1262 PUSH2 0x125D DUP5 PUSH2 0xA74 JUMP JUMPDEST PUSH2 0x1244 JUMP JUMPDEST PUSH2 0xA74 JUMP JUMPDEST SWAP1 POP SWAP2 SWAP1 POP JUMP JUMPDEST PUSH0 DUP2 SWAP1 POP SWAP2 SWAP1 POP JUMP JUMPDEST PUSH2 0x1280 DUP4 PUSH2 0x124D JUMP JUMPDEST PUSH2 0x1294 PUSH2 0x128C DUP3 PUSH2 0x126E JUMP JUMPDEST DUP5 DUP5 SLOAD PUSH2 0x11F3 JUMP JUMPDEST DUP3 SSTORE POP POP POP POP JUMP JUMPDEST PUSH0 SWAP1 JUMP JUMPDEST PUSH2 0x12A8 PUSH2 0x129C JUMP JUMPDEST PUSH2 0x12B3 DUP2 DUP5 DUP5 PUSH2 0x1277 JUMP JUMPDEST POP POP POP JUMP JUMPDEST JUMPDEST DUP2 DUP2 LT ISZERO PUSH2 0x12D6 JUMPI PUSH2 0x12CB PUSH0 DUP3 PUSH2 0x12A0 JUMP JUMPDEST PUSH1 0x1 DUP2 ADD SWAP1 POP PUSH2 0x12B9 JUMP JUMPDEST POP POP JUMP JUMPDEST PUSH1 0x1F DUP3 GT ISZERO PUSH2 0x131B JUMPI PUSH2 0x12EC DUP2 PUSH2 0x11C6 JUMP JUMPDEST PUSH2 0x12F5 DUP5 PUSH2 0x11D8 JUMP JUMPDEST DUP2 ADD PUSH1 0x20 DUP6 LT ISZERO PUSH2 0x1304 JUMPI DUP2 SWAP1 POP JUMPDEST PUSH2 0x1318 PUSH2 0x1310 DUP6 PUSH2 0x11D8 JUMP JUMPDEST DUP4 ADD DUP3 PUSH2 0x12B8 JUMP JUMPDEST POP POP JUMPDEST POP POP POP JUMP JUMPDEST PUSH0 DUP3 DUP3 SHR SWAP1 POP SWAP3 SWAP2 POP POP JUMP JUMPDEST PUSH0 PUSH2 0x133B PUSH0 NOT DUP5 PUSH1 0x8 MUL PUSH2 0x1320 JUMP JUMPDEST NOT DUP1 DUP4 AND SWAP2 POP POP SWAP3 SWAP2 POP POP JUMP JUMPDEST PUSH0 PUSH2 0x1353 DUP4 DUP4 PUSH2 0x132C JUMP JUMPDEST SWAP2 POP DUP3 PUSH1 0x2 MUL DUP3 OR SWAP1 POP SWAP3 SWAP2 POP POP JUMP JUMPDEST PUSH2 0x136C DUP3 PUSH2 0xC2B JUMP JUMPDEST PUSH8 0xFFFFFFFFFFFFFFFF DUP2 GT ISZERO PUSH2 0x1385 JUMPI PUSH2 0x1384 PUSH2 0xD35 JUMP JUMPDEST JUMPDEST PUSH2 0x138F DUP3 SLOAD PUSH2 0x1196 JUMP JUMPDEST PUSH2 0x139A DUP3 DUP3 DUP6 PUSH2 0x12DA JUMP JUMPDEST PUSH0 PUSH1 0x20 SWAP1 POP PUSH1 0x1F DUP4 GT PUSH1 0x1 DUP2 EQ PUSH2 0x13CB JUMPI PUSH0 DUP5 ISZERO PUSH2 0x13B9 JUMPI DUP3 DUP8 ADD MLOAD SWAP1 POP JUMPDEST PUSH2 0x13C3 DUP6 DUP3 PUSH2 0x1348 JUMP JUMPDEST DUP7 SSTORE POP PUSH2 0x142A JUMP JUMPDEST PUSH1 0x1F NOT DUP5 AND PUSH2 0x13D9 DUP7 PUSH2 0x11C6 JUMP JUMPDEST PUSH0 JUMPDEST DUP3 DUP2 LT ISZERO PUSH2 0x1400 JUMPI DUP5 DUP10 ADD MLOAD DUP3 SSTORE PUSH1 0x1 DUP3 ADD SWAP2 POP PUSH1 0x20 DUP6 ADD SWAP5 POP PUSH1 0x20 DUP2 ADD SWAP1 POP PUSH2 0x13DB JUMP JUMPDEST DUP7 DUP4 LT ISZERO PUSH2 0x141D JUMPI DUP5 DUP10 ADD MLOAD PUSH2 0x1419 PUSH1 0x1F DUP10 AND DUP3 PUSH2 0x132C JUMP JUMPDEST DUP4 SSTORE POP JUMPDEST PUSH1 0x1 PUSH1 0x2 DUP9 MUL ADD DUP9 SSTORE POP POP POP JUMPDEST POP POP POP POP POP POP JUMP JUMPDEST PUSH0 PUSH2 0x143C DUP3 PUSH2 0xA74 JUMP JUMPDEST SWAP2 POP PUSH32 0xFFFFFFFFFFFFFFFFFFFFFFFFFFFFFFFFFFFFFFFFFFFFFFFFFFFFFFFFFFFFFFFF DUP3 SUB PUSH2 0x146E JUMPI PUSH2 0x146D PUSH2 0x110C JUMP JUMPDEST JUMPDEST PUSH1 0x1 DUP3 ADD SWAP1 POP SWAP2 SWAP1 POP JUMP INVALID LOG2 PUSH5 0x6970667358 0x22 SLT KECCAK256 CREATE DUP11 LT BYTE 0xCE 0xAB 0xE 0xC7 0xBE BLOBHASH OR CALLVALUE PUSH0 PUSH25 0x4D897631C5B91A1D883F1353B50EE623066B64736F6C634300 ADDMOD XOR STOP CALLER "},"gasEstimates":{"creation":{"codeDepositCost":"1059000","executionCost":"infinite","totalCost":"infinite"},"external":{"approveRequest(uint256)":"infinite","approvers(address)":"2856","approversCount()":"2425","contribute()":"51014","createRequest(string,uint256,address)":"infinite","finalizeRequest(uint256)":"infinite","getAllRequests()":"infinite","getRequestsCount()":"2485","getSummary()":"infinite","manager()":"2597","minimumContribution()":"2469","requests(uint256)":"infinite"}},"methodIdentifiers":{"approveRequest(uint256)":"d7d1bbdb","approvers(address)":"0a144391","approversCount()":"82fde093","contribute()":"d7bb99ba","createRequest(string,uint256,address)":"8a9cfd55","finalizeRequest(uint256)":"03441006","getAllRequests()":"fb1a002a","getRequestsCount()":"3410452a","getSummary()":"4051ddac","manager()":"481c6a75","minimumContribution()":"937e09b1","requests(uint256)":"81d12c58"}},"storageLayout":{"storage":[{"astId":69,"contract":"Campaign.sol:Campaign","label":"requests","offset":0,"slot":"0","type":"t_array(t_struct(Request)54_storage)dyn_storage"},{"astId":71,"contract":"Campaign.sol:Campaign","label":"manager","offset":0,"slot":"1","type":"t_address"},{"astId":73,"contract":"Campaign.sol:Campaign","label":"minimumContribution","offset":0,"slot":"2","type":"t_uint256"},{"astId":77,"contract":"Campaign.sol:Campaign","label":"approvers","offset":0,"slot":"3","type":"t_mapping(t_address,t_bool)"},{"astId":79,"contract":"Campaign.sol:Campaign","label":"approversCount","offset":0,"slot":"4","type":"t_uint256"}],"types":{"t_address":{"encoding":"inplace","label":"address","numberOfBytes":"20"},"t_address_payable":{"encoding":"inplace","label":"address payable","numberOfBytes":"20"},"t_array(t_struct(Request)54_storage)dyn_storage":{"base":"t_struct(Request)54_storage","encoding":"dynamic_array","label":"struct Campaign.Request[]","numberOfBytes":"32"},"t_bool":{"encoding":"inplace","label":"bool","numberOfBytes":"1"},"t_mapping(t_address,t_bool)":{"encoding":"mapping","key":"t_address","label":"mapping(address => bool)","numberOfBytes":"32","value":"t_bool"},"t_string_storage":{"encoding":"bytes","label":"string","numberOfBytes":"32"},"t_struct(Request)54_storage":{"encoding":"inplace","label":"struct Campaign.Request","members":[{"astId":41,"contract":"Campaign.sol:Campaign","label":"description","offset":0,"slot":"0","type":"t_string_storage"},{"astId":43,"contract":"Campaign.sol:Campaign","label":"value","offset":0,"slot":"1","type":"t_uint256"},{"astId":45,"contract":"Campaign.sol:Campaign","label":"recipient","offset":0,"slot":"2","type":"t_address_payable"},{"astId":47,"contract":"Campaign.sol:Campaign","label":"complete","offset":20,"slot":"2","type":"t_bool"},{"astId":49,"contract":"Campaign.sol:Campaign","label":"approvalCount","offset":0,"slot":"3","type":"t_uint256"},{"astId":53,"contract":"Campaign.sol:Campaign","label":"approvals","offset":0,"slot":"4","type":"t_mapping(t_address,t_bool)"}],"numberOfBytes":"160"},"t_uint256":{"encoding":"inplace","label":"uint256","numberOfBytes":"32"}}},"userdoc":{"kind":"user","methods":{},"version":1}}